{
  "contractName": "Grouping",
  "abi": [
    {
      "constant": true,
      "inputs": [
        {
          "name": "",
          "type": "address"
        }
      ],
      "name": "groups",
      "outputs": [
        {
          "name": "",
          "type": "uint256"
        }
      ],
      "payable": false,
      "stateMutability": "view",
      "type": "function"
    },
    {
      "constant": true,
      "inputs": [],
      "name": "votersCount",
      "outputs": [
        {
          "name": "",
          "type": "uint256"
        }
      ],
      "payable": false,
      "stateMutability": "view",
      "type": "function"
    },
    {
      "constant": true,
      "inputs": [
        {
          "name": "",
          "type": "address"
        }
      ],
      "name": "registered",
      "outputs": [
        {
          "name": "",
          "type": "bool"
        }
      ],
      "payable": false,
      "stateMutability": "view",
      "type": "function"
    },
    {
      "constant": true,
      "inputs": [
        {
          "name": "",
          "type": "uint256"
        }
      ],
      "name": "voters",
      "outputs": [
        {
          "name": "",
          "type": "address"
        }
      ],
      "payable": false,
      "stateMutability": "view",
      "type": "function"
    },
    {
      "inputs": [],
      "payable": false,
      "stateMutability": "nonpayable",
      "type": "constructor"
    },
    {
      "constant": false,
      "inputs": [],
      "name": "registerVoter",
      "outputs": [],
      "payable": false,
      "stateMutability": "nonpayable",
      "type": "function"
    },
    {
      "constant": false,
      "inputs": [
        {
          "name": "_groups",
          "type": "uint256"
        }
      ],
      "name": "roundRobin",
      "outputs": [],
      "payable": false,
      "stateMutability": "nonpayable",
      "type": "function"
    },
    {
      "constant": false,
      "inputs": [
        {
          "name": "_seed",
          "type": "uint256"
        },
        {
          "name": "_groups",
          "type": "uint256"
        }
      ],
      "name": "randomRoundRobin",
      "outputs": [],
      "payable": false,
      "stateMutability": "nonpayable",
      "type": "function"
    }
  ],
  "bytecode": "0x6080604052600060055534801561001557600080fd5b50336000806101000a81548173ffffffffffffffffffffffffffffffffffffffff021916908373ffffffffffffffffffffffffffffffffffffffff16021790555061085a806100656000396000f3fe608060405234801561001057600080fd5b506004361061007d5760003560e01c8063bd16f1651161005b578063bd16f16514610154578063da58c7d914610182578063ecb617d9146101f0578063f3998f5c146101fa5761007d565b806363d5e44d1461008257806398c07938146100da578063b2dd5c07146100f8575b600080fd5b6100c46004803603602081101561009857600080fd5b81019080803573ffffffffffffffffffffffffffffffffffffffff169060200190929190505050610232565b6040518082815260200191505060405180910390f35b6100e261024a565b6040518082815260200191505060405180910390f35b61013a6004803603602081101561010e57600080fd5b81019080803573ffffffffffffffffffffffffffffffffffffffff169060200190929190505050610250565b604051808215151515815260200191505060405180910390f35b6101806004803603602081101561016a57600080fd5b8101908080359060200190929190505050610270565b005b6101ae6004803603602081101561019857600080fd5b8101908080359060200190929190505050610329565b604051808273ffffffffffffffffffffffffffffffffffffffff1673ffffffffffffffffffffffffffffffffffffffff16815260200191505060405180910390f35b6101f861035c565b005b6102306004803603604081101561021057600080fd5b81019080803590602001909291908035906020019092919050505061056e565b005b60046020528060005260406000206000915090505481565b60055481565b60016020528060005260406000206000915054906101000a900460ff1681565b60055481111561027c57fe5b60008090505b60055481101561032557600082828161029757fe5b06905060006002600084815260200190815260200160002060009054906101000a900473ffffffffffffffffffffffffffffffffffffffff16905081600460008373ffffffffffffffffffffffffffffffffffffffff1673ffffffffffffffffffffffffffffffffffffffff1681526020019081526020016000208190555050508080600101915050610282565b5050565b60026020528060005260406000206000915054906101000a900473ffffffffffffffffffffffffffffffffffffffff1681565b600160003373ffffffffffffffffffffffffffffffffffffffff1673ffffffffffffffffffffffffffffffffffffffff16815260200190815260200160002060009054906101000a900460ff161561041c576040517f08c379a00000000000000000000000000000000000000000000000000000000081526004018080602001828103825260198152602001807f566f74657220616c726561647920726567697374657265642e0000000000000081525060200191505060405180910390fd5b7fffffffffffffffffffffffffffffffffffffffffffffffffffffffffffffffff600554106104b3576040517f08c379a00000000000000000000000000000000000000000000000000000000081526004018080602001828103825260098152602001807f4f766572666c6f7721000000000000000000000000000000000000000000000081525060200191505060405180910390fd5b60018060003373ffffffffffffffffffffffffffffffffffffffff1673ffffffffffffffffffffffffffffffffffffffff16815260200190815260200160002060006101000a81548160ff02191690831515021790555033600260006005600081548092919060010191905055815260200190815260200160002060006101000a81548173ffffffffffffffffffffffffffffffffffffffff021916908373ffffffffffffffffffffffffffffffffffffffff160217905550565b6000809054906101000a900473ffffffffffffffffffffffffffffffffffffffff1673ffffffffffffffffffffffffffffffffffffffff163373ffffffffffffffffffffffffffffffffffffffff16146105c757600080fd5b6105d0826105dd565b6105d981610270565b5050565b60008090505b6005548110156106fa5760005b6105fd83836005546106fe565b9050600073ffffffffffffffffffffffffffffffffffffffff166003600083815260200190815260200160002060009054906101000a900473ffffffffffffffffffffffffffffffffffffffff1673ffffffffffffffffffffffffffffffffffffffff1614156105f0576002600083815260200190815260200160002060009054906101000a900473ffffffffffffffffffffffffffffffffffffffff166003600083815260200190815260200160002060006101000a81548173ffffffffffffffffffffffffffffffffffffffff021916908373ffffffffffffffffffffffffffffffffffffffff1602179055505080806001019150506105e3565b5050565b6000806107096107ea565b61071161080c565b60208160006006811061072057fe5b60200201818152505060208160016006811061073857fe5b60200201818152505060208160026006811061075057fe5b602002018181525050868160036006811061076757fe5b602002018181525050858160046006811061077e57fe5b602002018181525050848160056006811061079557fe5b60200201818152505060208260c08360056107d05a03fa925082600081146107bc576107c1565b600080fd5b50826107cc57600080fd5b816000600181106107d957fe5b602002015193505050509392505050565b6040518060200160405280600190602082028038833980820191505090505090565b6040518060c0016040528060069060208202803883398082019150509050509056fea165627a7a723058205e319dc6394ed0735fbd517d25848cd7d4eb702f824ef22d7733760b93f3f0620029",
  "source": "pragma solidity >=0.4.22 <0.7.0;\n\ncontract Grouping {\n    // Init\n    address owner;\n    mapping(address => bool) public registered;\n    mapping(uint256 => address) public voters;\n    mapping(uint256 => address) shuffled;\n    mapping(address => uint256) public groups;\n    uint256 public votersCount = 0;\n\n    constructor() public {\n        owner = msg.sender;\n    }\n\n    // Voter registration\n    function registerVoter() public {\n        require(!registered[msg.sender], \"Voter already registered.\");\n        require(votersCount < 2**256 - 1, \"Overflow!\");\n\n        registered[msg.sender] = true;\n        voters[votersCount++] = msg.sender;\n    }\n\n    // Round Robin\n    function roundRobin(uint256 _groups) public {\n        assert(_groups <= votersCount);\n\n        for(uint256 i = 0; i < votersCount; i++) {\n            uint256 group = i % _groups;\n            address voter = voters[i];\n\n            groups[voter] = group;\n        }\n    }\n\n    // Random Shuffle\n    // Changes the order of voters mapping\n    function randomShuffle(uint256 _seed) private {\n\n        // Shuffle voters mapping\n        for(uint256 i = 0; i < votersCount; i++) {\n            uint256 newIndex;\n\n            do {\n                newIndex = bigMod(_seed, i, votersCount);\n            } while(shuffled[newIndex] != address(0));\n\n            shuffled[newIndex] = voters[i];\n        }\n    }\n\n    // Random Grouping\n    // _seed    = seed from owner\n    // _groups  = number of groups set by owner\n    function randomRoundRobin(uint256 _seed, uint256 _groups) public {\n        // only the owner can perform this action\n        require(msg.sender == owner);\n\n        // shuffle all the voters\n        randomShuffle(_seed);\n\n        // group the shuffled voters in round robin style\n        roundRobin(_groups);\n    }\n\n    // Original Source from https://github.com/HarryR/solcrypto/blob/master/contracts/altbn128.sol\n    // Commit 396fe4642cf39e2577217651a64bc3d19362ce42 License: MIT\n    // From: https://gist.githubusercontent.com/chriseth/f9be9d9391efc5beb9704255a8e2989d/raw/4d0fb90847df1d4e04d507019031888df8372239/snarktest.solidity\n    // Basically just calls the precompiled EVM contract/function 0x05 which calculates (_base ** _expoonent) % _modulus efficiently\n    // Modified for Solitity ^0.5.0, original function name expMod()\n    function bigMod(uint256 _base, uint256 _exponent, uint256 _modulus) internal view returns (uint256 returnValue) {\n        bool success;\n        uint256[1] memory output;\n        uint[6] memory input;\n        input[0] = 0x20;        // baseLen = new(big.Int).SetBytes(getData(input, 0, 32))\n        input[1] = 0x20;        // expLen  = new(big.Int).SetBytes(getData(input, 32, 32))\n        input[2] = 0x20;        // modLen  = new(big.Int).SetBytes(getData(input, 64, 32))\n        input[3] = _base;\n        input[4] = _exponent;\n        input[5] = _modulus;\n        assembly {\n            success := staticcall(sub(gas, 2000), 5, input, 0xc0, output, 0x20)\n        // Use \"revert\" to make gas estimation work\n            switch success case 0 {\n                revert(0, 0)\n            }\n        }\n        require(success);\n        return output[0];\n    }\n}",
  "sourcePath": "/Users/florens/Documents/Master/Master Thesis/grouping/contracts/Grouping.sol",
  "compiler": {
    "name": "solc",
    "version": "0.5.8+commit.23d335f2.Emscripten.clang"
  },
  "schemaVersion": "3.0.11",
  "updatedAt": "2020-02-15T13:57:01.973Z",
  "devdoc": {
    "methods": {}
  },
  "userdoc": {
    "methods": {}
  }
}