{
  "contractName": "Grouping",
  "abi": [
    {
      "constant": true,
      "inputs": [
        {
          "name": "",
          "type": "uint256"
        }
      ],
      "name": "shuffled",
      "outputs": [
        {
          "name": "",
          "type": "address"
        }
      ],
      "payable": false,
      "stateMutability": "view",
      "type": "function"
    },
    {
      "constant": true,
      "inputs": [
        {
          "name": "",
          "type": "address"
        }
      ],
      "name": "groups",
      "outputs": [
        {
          "name": "",
          "type": "uint256"
        }
      ],
      "payable": false,
      "stateMutability": "view",
      "type": "function"
    },
    {
      "constant": true,
      "inputs": [
        {
          "name": "",
          "type": "address"
        }
      ],
      "name": "votersCount",
      "outputs": [
        {
          "name": "",
          "type": "uint256"
        }
      ],
      "payable": false,
      "stateMutability": "view",
      "type": "function"
    },
    {
      "constant": true,
      "inputs": [
        {
          "name": "",
          "type": "address"
        }
      ],
      "name": "registered",
      "outputs": [
        {
          "name": "",
          "type": "bool"
        }
      ],
      "payable": false,
      "stateMutability": "view",
      "type": "function"
    },
    {
      "inputs": [
        {
          "name": "",
          "type": "uint256"
        }
      ],
      "payable": false,
      "stateMutability": "view",
      "type": "function",
      "constant": true,
      "name": "voters",
      "outputs": [
        {
          "name": "",
          "type": "address"
        }
      ]
    },
    {
      "constant": false,
      "inputs": [],
      "name": "registerVoter",
      "outputs": [],
      "payable": false,
      "stateMutability": "nonpayable",
      "type": "constructor"
    },
    {
      "constant": false,
      "inputs": [
        {
          "name": "_groups",
          "type": "uint256"
        }
      ],
      "name": "registerVoter",
      "outputs": [],
      "payable": false,
      "stateMutability": "nonpayable",
      "type": "function"
    },
    {
      "constant": false,
      "inputs": [
        {
          "name": "_seed",
          "type": "uint256"
        },
        {
          "name": "_groups",
          "type": "uint256"
        }
      ],
      "name": "randomRoundRobin",
      "outputs": [],
      "payable": false,
      "stateMutability": "nonpayable",
      "type": "function"
    }
  ],
  "bytecode": "0x6080604052600060055534801561001557600080fd5b50336000806101000a81548173ffffffffffffffffffffffffffffffffffffffff021916908373ffffffffffffffffffffffffffffffffffffffff1602179055506109d0806100656000396000f3fe608060405260043610610083576000357c0100000000000000000000000000000000000000000000000000000000900463ffffffff16806348a9e4e01461008857806363d5e44d1461010357806398c0793814610168578063b2dd5c0714610193578063da58c7d9146101fc578063ecb617d914610277578063f3998f5c1461028e575b600080fd5b34801561009457600080fd5b506100c1600480360360208110156100ab57600080fd5b81019080803590602001909291905050506102d3565b604051808273ffffffffffffffffffffffffffffffffffffffff1673ffffffffffffffffffffffffffffffffffffffff16815260200191505060405180910390f35b34801561010f57600080fd5b506101526004803603602081101561012657600080fd5b81019080803573ffffffffffffffffffffffffffffffffffffffff169060200190929190505050610306565b6040518082815260200191505060405180910390f35b34801561017457600080fd5b5061017d61031e565b6040518082815260200191505060405180910390f35b34801561019f57600080fd5b506101e2600480360360208110156101b657600080fd5b81019080803573ffffffffffffffffffffffffffffffffffffffff169060200190929190505050610324565b604051808215151515815260200191505060405180910390f35b34801561020857600080fd5b506102356004803603602081101561021f57600080fd5b8101908080359060200190929190505050610344565b604051808273ffffffffffffffffffffffffffffffffffffffff1673ffffffffffffffffffffffffffffffffffffffff16815260200191505060405180910390f35b34801561028357600080fd5b5061028c610377565b005b34801561029a57600080fd5b506102d1600480360360408110156102b157600080fd5b81019080803590602001909291908035906020019092919050505061058d565b005b60036020528060005260406000206000915054906101000a900473ffffffffffffffffffffffffffffffffffffffff1681565b60046020528060005260406000206000915090505481565b60055481565b60016020528060005260406000206000915054906101000a900460ff1681565b60026020528060005260406000206000915054906101000a900473ffffffffffffffffffffffffffffffffffffffff1681565b600160003373ffffffffffffffffffffffffffffffffffffffff1673ffffffffffffffffffffffffffffffffffffffff16815260200190815260200160002060009054906101000a900460ff16151515610439576040517f08c379a00000000000000000000000000000000000000000000000000000000081526004018080602001828103825260198152602001807f566f74657220616c726561647920726567697374657265642e0000000000000081525060200191505060405180910390fd5b7fffffffffffffffffffffffffffffffffffffffffffffffffffffffffffffffff6005541015156104d2576040517f08c379a00000000000000000000000000000000000000000000000000000000081526004018080602001828103825260098152602001807f4f766572666c6f7721000000000000000000000000000000000000000000000081525060200191505060405180910390fd5b60018060003373ffffffffffffffffffffffffffffffffffffffff1673ffffffffffffffffffffffffffffffffffffffff16815260200190815260200160002060006101000a81548160ff02191690831515021790555033600260006005600081548092919060010191905055815260200190815260200160002060006101000a81548173ffffffffffffffffffffffffffffffffffffffff021916908373ffffffffffffffffffffffffffffffffffffffff160217905550565b6000809054906101000a900473ffffffffffffffffffffffffffffffffffffffff1673ffffffffffffffffffffffffffffffffffffffff163373ffffffffffffffffffffffffffffffffffffffff161415156105e857600080fd5b6105f1826105fe565b6105fa816107a5565b5050565b600080905060008090505b81600554018110156107a05760005b6106258483600554610862565b9050600073ffffffffffffffffffffffffffffffffffffffff166003600083815260200190815260200160002060009054906101000a900473ffffffffffffffffffffffffffffffffffffffff1673ffffffffffffffffffffffffffffffffffffffff161415156106a157818060010192505082806001019350505b600073ffffffffffffffffffffffffffffffffffffffff166003600083815260200190815260200160002060009054906101000a900473ffffffffffffffffffffffffffffffffffffffff1673ffffffffffffffffffffffffffffffffffffffff16141515156106185760026000848403815260200190815260200160002060009054906101000a900473ffffffffffffffffffffffffffffffffffffffff166003600083815260200190815260200160002060006101000a81548173ffffffffffffffffffffffffffffffffffffffff021916908373ffffffffffffffffffffffffffffffffffffffff160217905550508080600101915050610609565b505050565b60055481111515156107b357fe5b60008090505b60055481101561085e57600082828115156107d057fe5b06905060006003600084815260200190815260200160002060009054906101000a900473ffffffffffffffffffffffffffffffffffffffff16905081600460008373ffffffffffffffffffffffffffffffffffffffff1673ffffffffffffffffffffffffffffffffffffffff16815260200190815260200160002081905550505080806001019150506107b9565b5050565b60008061086d61095e565b610875610981565b602081600060068110151561088657fe5b60200201818152505060208160016006811015156108a057fe5b60200201818152505060208160026006811015156108ba57fe5b602002018181525050868160036006811015156108d357fe5b602002018181525050858160046006811015156108ec57fe5b6020020181815250508481600560068110151561090557fe5b60200201818152505060208260c08360056107d05a03fa9250826000811461092c57610931565b600080fd5b5082151561093e57600080fd5b81600060018110151561094d57fe5b602002015193505050509392505050565b602060405190810160405280600190602082028038833980820191505090505090565b60c06040519081016040528060069060208202803883398082019150509050509056fea165627a7a72305820067a370a8ce133500dceabd934308bf84a8efcb99c3d4122bb7670c86a41e8b80029",
  "source": "pragma solidity >=0.4.22 <0.7.0;\n\ncontract Grouping {\n    // Init\n    address owner;\n    mapping(address => bool) public registered;\n    mapping(uint256 => address) public voters;\n    mapping(uint256 => address) public shuffled;\n    mapping(address => uint256) public groups;\n    uint256 public votersCount = 0;\n\n    constructor() public {\n        owner = msg.sender;\n    }\n\n    // Voter registration\n    function registerVoter() public {\n        require(!registered[msg.sender], \"Voter already registered.\");\n        require(votersCount < 2**256 - 1, \"Overflow!\");\n\n        registered[msg.sender] = true;\n        voters[votersCount++] = msg.sender;\n    }\n\n    // Round Robin\n    function roundRobin(uint256 _groups) private {\n        assert(_groups <= votersCount);\n\n        for(uint256 i = 0; i < votersCount; i++) {\n            uint256 group = i % _groups;\n            address voter = shuffled[i];\n\n            groups[voter] = group;\n        }\n    }\n\n    // Random Shuffle\n    // Changes the order of voters mapping\n    function randomShuffle(uint256 _seed) private {\n        uint256 offset = 0;\n\n        for(uint256 i = 0; i < votersCount + offset; i++) {\n            uint256 newIndex;\n\n            do {\n                newIndex = bigMod(_seed, i, votersCount);\n                if (shuffled[newIndex] != address(0)) {\n                    i++;\n                    offset++;\n                }\n            } while(shuffled[newIndex] != address(0));\n\n\n            shuffled[newIndex] = voters[i - offset];\n        }\n    }\n\n    // Random Grouping\n    // _seed    = seed from owner\n    // _groups  = number of groups set by owner\n    function randomRoundRobin(uint256 _seed, uint256 _groups) public {\n        // only the owner can perform this action\n        require(msg.sender == owner);\n\n        // shuffle all the voters\n        randomShuffle(_seed);\n\n        // group the shuffled voters in round robin style\n        roundRobin(_groups);\n    }\n\n    // Original Source from https://github.com/HarryR/solcrypto/blob/master/contracts/altbn128.sol\n    // Commit 396fe4642cf39e2577217651a64bc3d19362ce42 License: MIT\n    // From: https://gist.githubusercontent.com/chriseth/f9be9d9391efc5beb9704255a8e2989d/raw/4d0fb90847df1d4e04d507019031888df8372239/snarktest.solidity\n    // Basically just calls the precompiled EVM contract/function 0x05 which calculates (_base ** _expoonent) % _modulus efficiently\n    // Modified for Solitity ^0.5.0, original function name expMod()\n    function bigMod(uint256 _base, uint256 _exponent, uint256 _modulus) internal view returns (uint256 returnValue) {\n        bool success;\n        uint256[1] memory output;\n        uint[6] memory input;\n        input[0] = 0x20;        // baseLen = new(big.Int).SetBytes(getData(input, 0, 32))\n        input[1] = 0x20;        // expLen  = new(big.Int).SetBytes(getData(input, 32, 32))\n        input[2] = 0x20;        // modLen  = new(big.Int).SetBytes(getData(input, 64, 32))\n        input[3] = _base;\n        input[4] = _exponent;\n        input[5] = _modulus;\n        assembly {\n            success := staticcall(sub(gas, 2000), 5, input, 0xc0, output, 0x20)\n        // Use \"revert\" to make gas estimation work\n            switch success case 0 {\n                revert(0, 0)\n            }\n        }\n        require(success);\n        return output[0];\n    }\n}",
  "sourcePath": "/Users/florens/Documents/Master/Master Thesis/grouping/contracts/Grouping.sol",
  "compiler": {
    "name": "solc",
    "version": "0.5.0+commit.1d4f565a.Emscripten.clang"
  },
  "schemaVersion": "3.0.9",
  "updatedAt": "2020-02-22T11:37:33.998Z",
  "devdoc": {
    "methods": {}
  },
  "userdoc": {
    "methods": {}
  }
}