{
  "contractName": "Grouping",
  "abi": [
    {
      "constant": true,
      "inputs": [
        {
          "name": "",
          "type": "address"
        }
      ],
      "name": "addressToParticipant",
      "outputs": [
        {
          "name": "name",
          "type": "string"
        },
        {
          "name": "participantAddress",
          "type": "address"
        }
      ],
      "payable": false,
      "stateMutability": "view",
      "type": "function"
    },
    {
      "constant": true,
      "inputs": [],
      "name": "owner",
      "outputs": [
        {
          "name": "",
          "type": "address"
        }
      ],
      "payable": false,
      "stateMutability": "view",
      "type": "function"
    },
    {
      "constant": true,
      "inputs": [
        {
          "name": "",
          "type": "address"
        }
      ],
      "name": "addressToGroup",
      "outputs": [
        {
          "name": "groupNumber",
          "type": "uint256"
        }
      ],
      "payable": false,
      "stateMutability": "view",
      "type": "function"
    },
    {
      "inputs": [],
      "payable": false,
      "stateMutability": "nonpayable",
      "type": "constructor"
    },
    {
      "constant": false,
      "inputs": [
        {
          "name": "_name",
          "type": "string"
        }
      ],
      "name": "register",
      "outputs": [],
      "payable": false,
      "stateMutability": "nonpayable",
      "type": "function"
    },
    {
      "constant": true,
      "inputs": [],
      "name": "getParticipant",
      "outputs": [
        {
          "name": "name",
          "type": "string"
        },
        {
          "name": "participantAddress",
          "type": "address"
        }
      ],
      "payable": false,
      "stateMutability": "view",
      "type": "function"
    }
  ],
  "bytecode": "0x6080604052600060015534801561001557600080fd5b50336000806101000a81548173ffffffffffffffffffffffffffffffffffffffff021916908373ffffffffffffffffffffffffffffffffffffffff16021790555061094e806100656000396000f3fe608060405234801561001057600080fd5b50600436106100575760003560e01c806314b878621461005c578063341b9246146101125780638da5cb5b14610202578063f2c298be1461024c578063f3e3063d14610307575b600080fd5b61006461035f565b60405180806020018373ffffffffffffffffffffffffffffffffffffffff1673ffffffffffffffffffffffffffffffffffffffff168152602001828103825284818151815260200191508051906020019080838360005b838110156100d65780820151818401526020810190506100bb565b50505050905090810190601f1680156101035780820380516001836020036101000a031916815260200191505b50935050505060405180910390f35b6101546004803603602081101561012857600080fd5b81019080803573ffffffffffffffffffffffffffffffffffffffff1690602001909291905050506104c5565b60405180806020018373ffffffffffffffffffffffffffffffffffffffff1673ffffffffffffffffffffffffffffffffffffffff168152602001828103825284818151815260200191508051906020019080838360005b838110156101c65780820151818401526020810190506101ab565b50505050905090810190601f1680156101f35780820380516001836020036101000a031916815260200191505b50935050505060405180910390f35b61020a6105a1565b604051808273ffffffffffffffffffffffffffffffffffffffff1673ffffffffffffffffffffffffffffffffffffffff16815260200191505060405180910390f35b6103056004803603602081101561026257600080fd5b810190808035906020019064010000000081111561027f57600080fd5b82018360208201111561029157600080fd5b803590602001918460018302840111640100000000831117156102b357600080fd5b91908080601f016020809104026020016040519081016040528093929190818152602001838380828437600081840152601f19601f8201169050808301925050505050505091929192905050506105c6565b005b6103496004803603602081101561031d57600080fd5b81019080803573ffffffffffffffffffffffffffffffffffffffff169060200190929190505050610758565b6040518082815260200191505060405180910390f35b6060600061036b61083a565b600460003373ffffffffffffffffffffffffffffffffffffffff1673ffffffffffffffffffffffffffffffffffffffff168152602001908152602001600020604051806040016040529081600082018054600181600116156101000203166002900480601f01602080910402602001604051908101604052809291908181526020018280546001816001161561010002031660029004801561044e5780601f106104235761010080835404028352916020019161044e565b820191906000526020600020905b81548152906001019060200180831161043157829003601f168201915b505050505081526020016001820160009054906101000a900473ffffffffffffffffffffffffffffffffffffffff1673ffffffffffffffffffffffffffffffffffffffff1673ffffffffffffffffffffffffffffffffffffffff168152505090508060000151816020015181915092509250509091565b6004602052806000526040600020600091509050806000018054600181600116156101000203166002900480601f0160208091040260200160405190810160405280929190818152602001828054600181600116156101000203166002900480156105715780601f1061054657610100808354040283529160200191610571565b820191906000526020600020905b81548152906001019060200180831161055457829003601f168201915b5050505050908060010160009054906101000a900473ffffffffffffffffffffffffffffffffffffffff16905082565b6000809054906101000a900473ffffffffffffffffffffffffffffffffffffffff1681565b6105ce61083a565b60405180604001604052808381526020013373ffffffffffffffffffffffffffffffffffffffff16815250905060038190806001815401808255809150509060018203906000526020600020906002020160009091929091909150600082015181600001908051906020019061064592919061086a565b5060208201518160010160006101000a81548173ffffffffffffffffffffffffffffffffffffffff021916908373ffffffffffffffffffffffffffffffffffffffff16021790555050505080600460003373ffffffffffffffffffffffffffffffffffffffff1673ffffffffffffffffffffffffffffffffffffffff16815260200190815260200160002060008201518160000190805190602001906106ec92919061086a565b5060208201518160010160006101000a81548173ffffffffffffffffffffffffffffffffffffffff021916908373ffffffffffffffffffffffffffffffffffffffff16021790555090505061073f6108ea565b610747610776565b905061075382826107e5565b505050565b60056020528060005260406000206000915090508060000154905081565b61077e6108ea565b6107866108ea565b604051806020016040528060016000815480929190600101919050558152509050600281908060018154018082558091505090600182039060005260206000200160009091929091909150600082015181600001555050508091505090565b8060056000846020015173ffffffffffffffffffffffffffffffffffffffff1673ffffffffffffffffffffffffffffffffffffffff168152602001908152602001600020600082015181600001559050505050565b604051806040016040528060608152602001600073ffffffffffffffffffffffffffffffffffffffff1681525090565b828054600181600116156101000203166002900490600052602060002090601f016020900481019282601f106108ab57805160ff19168380011785556108d9565b828001600101855582156108d9579182015b828111156108d85782518255916020019190600101906108bd565b5b5090506108e691906108fd565b5090565b6040518060200160405280600081525090565b61091f91905b8082111561091b576000816000905550600101610903565b5090565b9056fea165627a7a7230582067e5ec5b53a755d9ed8e273a8677060e9a4e1a10e662835b919b32ad9c04a17b0029",
  "source": "pragma solidity >=0.4.21 <0.7.0;\n\ncontract Grouping {\n    // the owner of the contract\n    address public owner;\n\n    // a participant\n    struct Participant {\n        string name;\n        address participantAddress;\n    }\n\n    // number of groups\n    uint private groupCount = 0;\n\n    // a group\n    struct Group {\n        uint groupNumber;\n    }\n\n    // list of groups\n    Group[] groups;\n\n    // list of participants\n    Participant[] participants;\n\n    // an address points to a participant\n    mapping (address => Participant) public addressToParticipant;\n    // an address points to a group\n    mapping (address => Group) public addressToGroup;\n\n    // saving the owner of the contract\n    constructor() public {\n        owner = msg.sender;\n    }\n\n    // register new participants\n    function register(string memory _name) public {\n        // create a new participant\n        Participant memory participant = Participant(_name, msg.sender);\n        // push it to the array\n        participants.push(participant);\n        // save it in the mapping\n        addressToParticipant[msg.sender] = participant;\n        // create a new group\n        Group memory group = createGroup();\n        // add participant to new group\n        addParticipantToGroup(participant, group);\n    }\n\n    // return a participant\n    function getParticipant() public view returns (string memory name, address participantAddress) {\n        Participant memory participant = addressToParticipant[msg.sender];\n        return (participant.name, participant.participantAddress);\n    }\n\n    // create a new group\n    function createGroup() private returns (Group memory) {\n        Group memory group = Group(groupCount++);\n        groups.push(group);\n        return group;\n    }\n\n    // add participant to group\n    function addParticipantToGroup(Participant memory participant, Group memory group) private {\n        addressToGroup[participant.participantAddress] = group;\n    }\n}\n",
  "sourcePath": "/Users/florens/Documents/Master/Master Thesis/grouping/contracts/Grouping.sol",
  "compiler": {
    "name": "solc",
    "version": "0.5.8+commit.23d335f2.Emscripten.clang"
  },
  "schemaVersion": "3.0.11",
  "updatedAt": "2020-01-22T09:48:53.004Z",
  "devdoc": {
    "methods": {}
  },
  "userdoc": {
    "methods": {}
  }
}