{
  "contractName": "ShuffleAndRoundRobin",
  "abi": [
    {
      "inputs": [],
      "payable": false,
      "stateMutability": "nonpayable",
      "type": "constructor"
    },
    {
      "anonymous": false,
      "inputs": [
        {
          "indexed": false,
          "internalType": "string",
          "name": "description",
          "type": "string"
        }
      ],
      "name": "LogNewProvableQuery",
      "type": "event"
    },
    {
      "anonymous": false,
      "inputs": [
        {
          "indexed": false,
          "internalType": "string",
          "name": "randomNumber",
          "type": "string"
        }
      ],
      "name": "LogNewRandomNumber",
      "type": "event"
    },
    {
      "anonymous": false,
      "inputs": [
        {
          "indexed": true,
          "internalType": "address",
          "name": "_address",
          "type": "address"
        },
        {
          "indexed": true,
          "internalType": "uint256",
          "name": "_group",
          "type": "uint256"
        }
      ],
      "name": "distributed",
      "type": "event"
    },
    {
      "anonymous": false,
      "inputs": [
        {
          "indexed": true,
          "internalType": "uint256",
          "name": "_rand",
          "type": "uint256"
        },
        {
          "indexed": true,
          "internalType": "bool",
          "name": "_accepted",
          "type": "bool"
        }
      ],
      "name": "randomNr",
      "type": "event"
    },
    {
      "constant": true,
      "inputs": [
        {
          "internalType": "address",
          "name": "",
          "type": "address"
        }
      ],
      "name": "commits",
      "outputs": [
        {
          "internalType": "bytes32",
          "name": "",
          "type": "bytes32"
        }
      ],
      "payable": false,
      "stateMutability": "view",
      "type": "function"
    },
    {
      "constant": true,
      "inputs": [
        {
          "internalType": "address",
          "name": "",
          "type": "address"
        },
        {
          "internalType": "uint256",
          "name": "",
          "type": "uint256"
        }
      ],
      "name": "groupTotals",
      "outputs": [
        {
          "internalType": "uint256",
          "name": "",
          "type": "uint256"
        }
      ],
      "payable": false,
      "stateMutability": "view",
      "type": "function"
    },
    {
      "constant": true,
      "inputs": [
        {
          "internalType": "address",
          "name": "",
          "type": "address"
        }
      ],
      "name": "groups",
      "outputs": [
        {
          "internalType": "uint256",
          "name": "",
          "type": "uint256"
        }
      ],
      "payable": false,
      "stateMutability": "view",
      "type": "function"
    },
    {
      "constant": true,
      "inputs": [
        {
          "internalType": "address",
          "name": "",
          "type": "address"
        }
      ],
      "name": "isRegistered",
      "outputs": [
        {
          "internalType": "bool",
          "name": "",
          "type": "bool"
        }
      ],
      "payable": false,
      "stateMutability": "view",
      "type": "function"
    },
    {
      "constant": true,
      "inputs": [],
      "name": "numberOfGroups",
      "outputs": [
        {
          "internalType": "uint256",
          "name": "",
          "type": "uint256"
        }
      ],
      "payable": false,
      "stateMutability": "view",
      "type": "function"
    },
    {
      "constant": true,
      "inputs": [],
      "name": "provableRandomNumber",
      "outputs": [
        {
          "internalType": "uint256",
          "name": "",
          "type": "uint256"
        }
      ],
      "payable": false,
      "stateMutability": "view",
      "type": "function"
    },
    {
      "constant": true,
      "inputs": [
        {
          "internalType": "uint256",
          "name": "",
          "type": "uint256"
        }
      ],
      "name": "registered",
      "outputs": [
        {
          "internalType": "address",
          "name": "",
          "type": "address"
        }
      ],
      "payable": false,
      "stateMutability": "view",
      "type": "function"
    },
    {
      "constant": true,
      "inputs": [
        {
          "internalType": "address",
          "name": "",
          "type": "address"
        }
      ],
      "name": "reveals",
      "outputs": [
        {
          "internalType": "string",
          "name": "",
          "type": "string"
        }
      ],
      "payable": false,
      "stateMutability": "view",
      "type": "function"
    },
    {
      "constant": true,
      "inputs": [],
      "name": "seedCommit",
      "outputs": [
        {
          "internalType": "bytes32",
          "name": "",
          "type": "bytes32"
        }
      ],
      "payable": false,
      "stateMutability": "view",
      "type": "function"
    },
    {
      "constant": true,
      "inputs": [],
      "name": "seedReveal",
      "outputs": [
        {
          "internalType": "string",
          "name": "",
          "type": "string"
        }
      ],
      "payable": false,
      "stateMutability": "view",
      "type": "function"
    },
    {
      "constant": true,
      "inputs": [
        {
          "internalType": "uint256",
          "name": "",
          "type": "uint256"
        }
      ],
      "name": "shuffled",
      "outputs": [
        {
          "internalType": "address",
          "name": "",
          "type": "address"
        }
      ],
      "payable": false,
      "stateMutability": "view",
      "type": "function"
    },
    {
      "constant": true,
      "inputs": [
        {
          "internalType": "bytes32",
          "name": "",
          "type": "bytes32"
        }
      ],
      "name": "smartDHXs",
      "outputs": [
        {
          "internalType": "contract SmartDiffieHellman",
          "name": "",
          "type": "address"
        }
      ],
      "payable": false,
      "stateMutability": "view",
      "type": "function"
    },
    {
      "constant": true,
      "inputs": [],
      "name": "state",
      "outputs": [
        {
          "internalType": "enum ShuffleAndRoundRobin.State",
          "name": "",
          "type": "uint8"
        }
      ],
      "payable": false,
      "stateMutability": "view",
      "type": "function"
    },
    {
      "constant": true,
      "inputs": [
        {
          "internalType": "address",
          "name": "",
          "type": "address"
        },
        {
          "internalType": "address",
          "name": "",
          "type": "address"
        }
      ],
      "name": "votes",
      "outputs": [
        {
          "internalType": "string",
          "name": "",
          "type": "string"
        }
      ],
      "payable": false,
      "stateMutability": "view",
      "type": "function"
    },
    {
      "constant": true,
      "inputs": [
        {
          "internalType": "uint256",
          "name": "",
          "type": "uint256"
        }
      ],
      "name": "votingOptions",
      "outputs": [
        {
          "internalType": "uint256",
          "name": "",
          "type": "uint256"
        }
      ],
      "payable": false,
      "stateMutability": "view",
      "type": "function"
    },
    {
      "constant": false,
      "inputs": [
        {
          "internalType": "bytes32",
          "name": "myid",
          "type": "bytes32"
        },
        {
          "internalType": "string",
          "name": "result",
          "type": "string"
        }
      ],
      "name": "__callback",
      "outputs": [],
      "payable": false,
      "stateMutability": "nonpayable",
      "type": "function"
    },
    {
      "constant": false,
      "inputs": [
        {
          "internalType": "bytes32",
          "name": "_myid",
          "type": "bytes32"
        },
        {
          "internalType": "string",
          "name": "_result",
          "type": "string"
        },
        {
          "internalType": "bytes",
          "name": "_proof",
          "type": "bytes"
        }
      ],
      "name": "__callback",
      "outputs": [],
      "payable": false,
      "stateMutability": "nonpayable",
      "type": "function"
    },
    {
      "constant": false,
      "inputs": [],
      "name": "getProvableRandomNumber",
      "outputs": [],
      "payable": true,
      "stateMutability": "payable",
      "type": "function"
    },
    {
      "constant": false,
      "inputs": [
        {
          "internalType": "uint256[]",
          "name": "_votingOptions",
          "type": "uint256[]"
        }
      ],
      "name": "setVotingOptions",
      "outputs": [],
      "payable": false,
      "stateMutability": "nonpayable",
      "type": "function"
    },
    {
      "constant": false,
      "inputs": [],
      "name": "register",
      "outputs": [],
      "payable": false,
      "stateMutability": "nonpayable",
      "type": "function"
    },
    {
      "constant": false,
      "inputs": [
        {
          "internalType": "bytes32",
          "name": "_seedCommit",
          "type": "bytes32"
        }
      ],
      "name": "startCommitPhase",
      "outputs": [],
      "payable": false,
      "stateMutability": "nonpayable",
      "type": "function"
    },
    {
      "constant": false,
      "inputs": [
        {
          "internalType": "string",
          "name": "_seedReveal",
          "type": "string"
        }
      ],
      "name": "startRevealPhase",
      "outputs": [],
      "payable": false,
      "stateMutability": "nonpayable",
      "type": "function"
    },
    {
      "constant": false,
      "inputs": [
        {
          "internalType": "bytes32",
          "name": "_hash",
          "type": "bytes32"
        }
      ],
      "name": "commit",
      "outputs": [],
      "payable": false,
      "stateMutability": "nonpayable",
      "type": "function"
    },
    {
      "constant": false,
      "inputs": [
        {
          "internalType": "string",
          "name": "_secret",
          "type": "string"
        }
      ],
      "name": "reveal",
      "outputs": [],
      "payable": false,
      "stateMutability": "nonpayable",
      "type": "function"
    },
    {
      "constant": false,
      "inputs": [
        {
          "internalType": "uint256",
          "name": "_groups",
          "type": "uint256"
        }
      ],
      "name": "distribute",
      "outputs": [],
      "payable": false,
      "stateMutability": "nonpayable",
      "type": "function"
    },
    {
      "constant": true,
      "inputs": [
        {
          "internalType": "address",
          "name": "_first",
          "type": "address"
        },
        {
          "internalType": "address",
          "name": "_second",
          "type": "address"
        }
      ],
      "name": "getEdgeKey",
      "outputs": [
        {
          "internalType": "bytes32",
          "name": "_edgeKey",
          "type": "bytes32"
        }
      ],
      "payable": false,
      "stateMutability": "pure",
      "type": "function"
    },
    {
      "constant": false,
      "inputs": [
        {
          "internalType": "address",
          "name": "_first",
          "type": "address"
        },
        {
          "internalType": "address",
          "name": "_second",
          "type": "address"
        }
      ],
      "name": "deploySmartDHX",
      "outputs": [],
      "payable": false,
      "stateMutability": "nonpayable",
      "type": "function"
    },
    {
      "constant": false,
      "inputs": [
        {
          "internalType": "string",
          "name": "_vote",
          "type": "string"
        },
        {
          "internalType": "address",
          "name": "_to",
          "type": "address"
        }
      ],
      "name": "sendVote",
      "outputs": [],
      "payable": false,
      "stateMutability": "nonpayable",
      "type": "function"
    },
    {
      "constant": false,
      "inputs": [
        {
          "internalType": "uint256[]",
          "name": "_groupTotals",
          "type": "uint256[]"
        }
      ],
      "name": "broadcastGroupTotalVotes",
      "outputs": [],
      "payable": false,
      "stateMutability": "nonpayable",
      "type": "function"
    },
    {
      "constant": false,
      "inputs": [],
      "name": "stop",
      "outputs": [],
      "payable": false,
      "stateMutability": "nonpayable",
      "type": "function"
    }
  ],
  "bytecode": "0x60806040526000600660006101000a81548160ff0219169083600481111561002357fe5b021790555033601160006101000a81548173ffffffffffffffffffffffffffffffffffffffff021916908373ffffffffffffffffffffffffffffffffffffffff16021790555034801561007557600080fd5b50736f485c8bf6fc43ea212e93bbf8ce046c7f1cb475600160006101000a81548173ffffffffffffffffffffffffffffffffffffffff021916908373ffffffffffffffffffffffffffffffffffffffff16021790555061548780620000db6000396000f3fe608060405260043610620001fa5760003560e01c80638f4a5e16116200010f578063c214b1f711620000a3578063dff67f6b116200006d578063dff67f6b1462000f2c578063e6cf13461462000f7f578063f14fcbc81462000ffe578063f2ea38cb146200103d57620001fa565b8063c214b1f71462000c83578063c3c5a5471462000d02578063cad1b9061462000d6f578063d8ea86ac1462000e6057620001fa565b8063b60baacb11620000e5578063b60baacb1462000b08578063bf9524961462000b47578063bff3e1ba1462000b75578063c19d93fb1462000c4657620001fa565b80638f4a5e161462000a4857806391c05b0b1462000abd5780639e7186db1462000afc57620001fa565b806338bbfa50116200019357806363d5e44d116200015d57806363d5e44d14620008575780636a7c557114620008c05780637b43a8e614620009565780638f36f02d14620009bf57620001fa565b806338bbfa50146200052357806348a9e4e014620006965780634c26124714620007155780635a2431ab14620007e457620001fa565b806323939c6711620001d557806323939c67146200032257806326cef7d7146200035057806327dc297e146200037e5780632f1eddae146200045757620001fa565b806307da68f514620001ff57806314e22df814620002195780631aa3a0081462000308575b600080fd5b3480156200020c57600080fd5b50620002176200110c565b005b3480156200022657600080fd5b5062000306600480360360408110156200023f57600080fd5b81019080803590602001906401000000008111156200025d57600080fd5b8201836020820111156200027057600080fd5b803590602001918460018302840111640100000000831117156200029357600080fd5b91908080601f016020809104026020016040519081016040528093929190818152602001838380828437600081840152601f19601f820116905080830192505050505050509192919290803573ffffffffffffffffffffffffffffffffffffffff16906020019092919050505062001180565b005b3480156200031557600080fd5b5062000320620013bb565b005b3480156200032f57600080fd5b506200033a620015da565b6040518082815260200191505060405180910390f35b3480156200035d57600080fd5b5062000368620015e0565b6040518082815260200191505060405180910390f35b3480156200038b57600080fd5b506200045560048036036040811015620003a457600080fd5b810190808035906020019092919080359060200190640100000000811115620003cc57600080fd5b820183602082011115620003df57600080fd5b803590602001918460018302840111640100000000831117156200040257600080fd5b91908080601f016020809104026020016040519081016040528093929190818152602001838380828437600081840152601f19601f820116905080830192505050505050509192919290505050620015e6565b005b3480156200046457600080fd5b5062000521600480360360208110156200047d57600080fd5b81019080803590602001906401000000008111156200049b57600080fd5b820183602082011115620004ae57600080fd5b80359060200191846020830284011164010000000083111715620004d157600080fd5b919080806020026020016040519081016040528093929190818152602001838360200280828437600081840152601f19601f820116905080830192505050505050509192919290505050620016dc565b005b3480156200053057600080fd5b5062000694600480360360608110156200054957600080fd5b8101908080359060200190929190803590602001906401000000008111156200057157600080fd5b8201836020820111156200058457600080fd5b80359060200191846001830284011164010000000083111715620005a757600080fd5b91908080601f016020809104026020016040519081016040528093929190818152602001838380828437600081840152601f19601f820116905080830192505050505050509192919290803590602001906401000000008111156200060b57600080fd5b8201836020820111156200061e57600080fd5b803590602001918460018302840111640100000000831117156200064157600080fd5b91908080601f016020809104026020016040519081016040528093929190818152602001838380828437600081840152601f19601f820116905080830192505050505050509192919290505050620018db565b005b348015620006a357600080fd5b50620006d360048036036020811015620006bc57600080fd5b8101908080359060200190929190505050620018fe565b604051808273ffffffffffffffffffffffffffffffffffffffff1673ffffffffffffffffffffffffffffffffffffffff16815260200191505060405180910390f35b3480156200072257600080fd5b50620007e2600480360360208110156200073b57600080fd5b81019080803590602001906401000000008111156200075957600080fd5b8201836020820111156200076c57600080fd5b803590602001918460018302840111640100000000831117156200078f57600080fd5b91908080601f016020809104026020016040519081016040528093929190818152602001838380828437600081840152601f19601f8201169050808301925050505050505091929192905050506200193b565b005b348015620007f157600080fd5b5062000841600480360360408110156200080a57600080fd5b81019080803573ffffffffffffffffffffffffffffffffffffffff1690602001909291908035906020019092919050505062001bb4565b6040518082815260200191505060405180910390f35b3480156200086457600080fd5b50620008aa600480360360208110156200087d57600080fd5b81019080803573ffffffffffffffffffffffffffffffffffffffff16906020019092919050505062001be3565b6040518082815260200191505060405180910390f35b348015620008cd57600080fd5b50620008d862001bfb565b6040518080602001828103825283818151815260200191508051906020019080838360005b838110156200091a578082015181840152602081019050620008fd565b50505050905090810190601f168015620009485780820380516001836020036101000a031916815260200191505b509250505060405180910390f35b3480156200096357600080fd5b50620009a9600480360360208110156200097c57600080fd5b81019080803573ffffffffffffffffffffffffffffffffffffffff16906020019092919050505062001c9d565b6040518082815260200191505060405180910390f35b348015620009cc57600080fd5b5062000a3260048036036040811015620009e557600080fd5b81019080803573ffffffffffffffffffffffffffffffffffffffff169060200190929190803573ffffffffffffffffffffffffffffffffffffffff16906020019092919050505062001cb5565b6040518082815260200191505060405180910390f35b34801562000a5557600080fd5b5062000abb6004803603604081101562000a6e57600080fd5b81019080803573ffffffffffffffffffffffffffffffffffffffff169060200190929190803573ffffffffffffffffffffffffffffffffffffffff16906020019092919050505062001d4c565b005b34801562000aca57600080fd5b5062000afa6004803603602081101562000ae357600080fd5b810190808035906020019092919050505062001f07565b005b62000b0662002386565b005b34801562000b1557600080fd5b5062000b456004803603602081101562000b2e57600080fd5b8101908080359060200190929190505050620024d7565b005b34801562000b5457600080fd5b5062000b5f620026c7565b6040518082815260200191505060405180910390f35b34801562000b8257600080fd5b5062000bc86004803603602081101562000b9b57600080fd5b81019080803573ffffffffffffffffffffffffffffffffffffffff169060200190929190505050620026cd565b6040518080602001828103825283818151815260200191508051906020019080838360005b8381101562000c0a57808201518184015260208101905062000bed565b50505050905090810190601f16801562000c385780820380516001836020036101000a031916815260200191505b509250505060405180910390f35b34801562000c5357600080fd5b5062000c5e62002781565b6040518082600481111562000c6f57fe5b60ff16815260200191505060405180910390f35b34801562000c9057600080fd5b5062000cc06004803603602081101562000ca957600080fd5b810190808035906020019092919050505062002794565b604051808273ffffffffffffffffffffffffffffffffffffffff1673ffffffffffffffffffffffffffffffffffffffff16815260200191505060405180910390f35b34801562000d0f57600080fd5b5062000d556004803603602081101562000d2857600080fd5b81019080803573ffffffffffffffffffffffffffffffffffffffff169060200190929190505050620027c7565b604051808215151515815260200191505060405180910390f35b34801562000d7c57600080fd5b5062000de26004803603604081101562000d9557600080fd5b81019080803573ffffffffffffffffffffffffffffffffffffffff169060200190929190803573ffffffffffffffffffffffffffffffffffffffff169060200190929190505050620027e7565b6040518080602001828103825283818151815260200191508051906020019080838360005b8381101562000e2457808201518184015260208101905062000e07565b50505050905090810190601f16801562000e525780820380516001836020036101000a031916815260200191505b509250505060405180910390f35b34801562000e6d57600080fd5b5062000f2a6004803603602081101562000e8657600080fd5b810190808035906020019064010000000081111562000ea457600080fd5b82018360208201111562000eb757600080fd5b8035906020019184602083028401116401000000008311171562000eda57600080fd5b919080806020026020016040519081016040528093929190818152602001838360200280828437600081840152601f19601f820116905080830192505050505050509192919290505050620028a8565b005b34801562000f3957600080fd5b5062000f696004803603602081101562000f5257600080fd5b8101908080359060200190929190505050620029fe565b6040518082815260200191505060405180910390f35b34801562000f8c57600080fd5b5062000fbc6004803603602081101562000fa557600080fd5b810190808035906020019092919050505062002a20565b604051808273ffffffffffffffffffffffffffffffffffffffff1673ffffffffffffffffffffffffffffffffffffffff16815260200191505060405180910390f35b3480156200100b57600080fd5b506200103b600480360360208110156200102457600080fd5b810190808035906020019092919050505062002a5d565b005b3480156200104a57600080fd5b506200110a600480360360208110156200106357600080fd5b81019080803590602001906401000000008111156200108157600080fd5b8201836020820111156200109457600080fd5b80359060200191846001830284011164010000000083111715620010b757600080fd5b91908080601f016020809104026020016040519081016040528093929190818152602001838380828437600081840152601f19601f82011690508083019250505050505050919291929050505062002c02565b005b601160009054906101000a900473ffffffffffffffffffffffffffffffffffffffff1673ffffffffffffffffffffffffffffffffffffffff163373ffffffffffffffffffffffffffffffffffffffff16146200116757600080fd5b3373ffffffffffffffffffffffffffffffffffffffff16ff5b6004808111156200118d57fe5b600660009054906101000a900460ff166004811115620011a957fe5b146200121d576040517f08c379a00000000000000000000000000000000000000000000000000000000081526004018080602001828103825260138152602001807f4e6f7420696e20766f74696e672073746174650000000000000000000000000081525060200191505060405180910390fd5b6000601360003373ffffffffffffffffffffffffffffffffffffffff1673ffffffffffffffffffffffffffffffffffffffff16815260200190815260200160002060008373ffffffffffffffffffffffffffffffffffffffff1673ffffffffffffffffffffffffffffffffffffffff1681526020019081526020016000208054600181600116156101000203166002900490501462001324576040517f08c379a00000000000000000000000000000000000000000000000000000000081526004018080602001828103825260158152602001807f566f74652077617320616c72656164792073656e74000000000000000000000081525060200191505060405180910390fd5b81601360003373ffffffffffffffffffffffffffffffffffffffff1673ffffffffffffffffffffffffffffffffffffffff16815260200190815260200160002060008373ffffffffffffffffffffffffffffffffffffffff1673ffffffffffffffffffffffffffffffffffffffff1681526020019081526020016000209080519060200190620013b6929190620042e7565b505050565b60016004811115620013c957fe5b600660009054906101000a900460ff166004811115620013e557fe5b1462001459576040517f08c379a00000000000000000000000000000000000000000000000000000000081526004018080602001828103825260158152602001807f4e6f7420696e207374617465205265676973746572000000000000000000000081525060200191505060405180910390fd5b600860003373ffffffffffffffffffffffffffffffffffffffff1673ffffffffffffffffffffffffffffffffffffffff16815260200190815260200160002060009054906101000a900460ff16156200151a576040517f08c379a00000000000000000000000000000000000000000000000000000000081526004018080602001828103825260128152602001807f416c72656164792072656769737465726564000000000000000000000000000081525060200191505060405180910390fd5b6001600860003373ffffffffffffffffffffffffffffffffffffffff1673ffffffffffffffffffffffffffffffffffffffff16815260200190815260200160002060006101000a81548160ff02191690831515021790555060073390806001815401808255809150509060018203906000526020600020016000909192909190916101000a81548173ffffffffffffffffffffffffffffffffffffffff021916908373ffffffffffffffffffffffffffffffffffffffff16021790555050565b600b5481565b60055481565b620015f062002df2565b73ffffffffffffffffffffffffffffffffffffffff163373ffffffffffffffffffffffffffffffffffffffff16146200162857600080fd5b7f067c40d9272b02fb8e9bfe6a064b465504d8f549abce9d58121baec5ffaecae1816040518080602001828103825283818151815260200191508051906020019080838360005b838110156200168c5780820151818401526020810190506200166f565b50505050905090810190601f168015620016ba5780820380516001836020036101000a031916815260200191505b509250505060405180910390a1620016d2816200311f565b6005819055505050565b601160009054906101000a900473ffffffffffffffffffffffffffffffffffffffff1673ffffffffffffffffffffffffffffffffffffffff163373ffffffffffffffffffffffffffffffffffffffff1614620017a0576040517f08c379a00000000000000000000000000000000000000000000000000000000081526004018080602001828103825260148152602001807f53656e646572206d757374206265206f776e657200000000000000000000000081525060200191505060405180910390fd5b6001815111620017fc576040517f08c379a0000000000000000000000000000000000000000000000000000000008152600401808060200182810382526029815260200180620053d66029913960400191505060405180910390fd5b600060048111156200180a57fe5b600660009054906101000a900460ff1660048111156200182657fe5b146200189a576040517f08c379a00000000000000000000000000000000000000000000000000000000081526004018080602001828103825260128152602001807f5374617465206d75737420626520496e6974000000000000000000000000000081525060200191505060405180910390fd5b6001600660006101000a81548160ff02191690836004811115620018ba57fe5b02179055508060129080519060200190620018d79291906200436e565b5050565b6000801b600360008060001b815260200190815260200160002081905550505050565b600f81815481106200190c57fe5b906000526020600020016000915054906101000a900473ffffffffffffffffffffffffffffffffffffffff1681565b600860003373ffffffffffffffffffffffffffffffffffffffff1673ffffffffffffffffffffffffffffffffffffffff16815260200190815260200160002060009054906101000a900460ff16620019fb576040517f08c379a00000000000000000000000000000000000000000000000000000000081526004018080602001828103825260148152602001807f566f746572206e6f74207265676973746572656400000000000000000000000081525060200191505060405180910390fd5b6003600481111562001a0957fe5b600660009054906101000a900460ff16600481111562001a2557fe5b1462001a99576040517f08c379a00000000000000000000000000000000000000000000000000000000081526004018080602001828103825260178152602001807f4d75737420626520696e2072657665616c20706861736500000000000000000081525060200191505060405180910390fd5b600081805190602001209050600960003373ffffffffffffffffffffffffffffffffffffffff1673ffffffffffffffffffffffffffffffffffffffff16815260200190815260200160002054811462001b5a576040517f08c379a000000000000000000000000000000000000000000000000000000000815260040180806020018281038252601c8152602001807f72657665616c20646f6573206e6f74206d6174636820636f6d6d69740000000081525060200191505060405180910390fd5b81600a60003373ffffffffffffffffffffffffffffffffffffffff1673ffffffffffffffffffffffffffffffffffffffff168152602001908152602001600020908051906020019062001baf929190620042e7565b505050565b6014602052816000526040600020818154811062001bce57fe5b90600052602060002001600091509150505481565b600d6020528060005260406000206000915090505481565b600c8054600181600116156101000203166002900480601f01602080910402602001604051908101604052809291908181526020018280546001816001161561010002031660029004801562001c955780601f1062001c695761010080835404028352916020019162001c95565b820191906000526020600020905b81548152906001019060200180831162001c7757829003601f168201915b505050505081565b60096020528060005260406000206000915090505481565b60008282604051602001808373ffffffffffffffffffffffffffffffffffffffff1673ffffffffffffffffffffffffffffffffffffffff1660601b81526014018273ffffffffffffffffffffffffffffffffffffffff1673ffffffffffffffffffffffffffffffffffffffff1660601b81526014019250505060405160208183030381529060405280519060200120905092915050565b601160009054906101000a900473ffffffffffffffffffffffffffffffffffffffff1673ffffffffffffffffffffffffffffffffffffffff163373ffffffffffffffffffffffffffffffffffffffff161462001da757600080fd5b60048081111562001db457fe5b600660009054906101000a900460ff16600481111562001dd057fe5b1462001ddb57600080fd5b600060405162001deb90620043c0565b604051809103906000f08015801562001e08573d6000803e3d6000fd5b509050600060405162001e1b90620043c0565b604051809103906000f08015801562001e38573d6000803e3d6000fd5b509050600062001e49858562001cb5565b9050600062001e59858762001cb5565b9050836015600084815260200190815260200160002060006101000a81548173ffffffffffffffffffffffffffffffffffffffff021916908373ffffffffffffffffffffffffffffffffffffffff160217905550826015600083815260200190815260200160002060006101000a81548173ffffffffffffffffffffffffffffffffffffffff021916908373ffffffffffffffffffffffffffffffffffffffff160217905550505050505050565b601160009054906101000a900473ffffffffffffffffffffffffffffffffffffffff1673ffffffffffffffffffffffffffffffffffffffff163373ffffffffffffffffffffffffffffffffffffffff161462001f6257600080fd5b60006005541162001fbf576040517f08c379a00000000000000000000000000000000000000000000000000000000081526004018080602001828103825260268152602001806200528c6026913960400191505060405180910390fd5b6003600481111562001fcd57fe5b600660009054906101000a900460ff16600481111562001fe957fe5b146200205d576040517f08c379a00000000000000000000000000000000000000000000000000000000081526004018080602001828103825260178152602001807f4d75737420626520696e2072657665616c20706861736500000000000000000081525060200191505060405180910390fd5b60018111620020d4576040517f08c379a000000000000000000000000000000000000000000000000000000000815260040180806020018281038252601f8152602001807f5468657265206d757374206265206d6f7265207468616e20312067726f75700081525060200191505060405180910390fd5b6000600c8054600181600116156101000203166002900490501162002161576040517f08c379a00000000000000000000000000000000000000000000000000000000081526004018080602001828103825260188152602001807f4e6f20736565642066726f6d206f776e657220666f756e64000000000000000081525060200191505060405180910390fd5b600060078054905011620021dd576040517f08c379a000000000000000000000000000000000000000000000000000000000815260040180806020018281038252601e8152602001807f546865726520617265206e6f207265676973746572656420766f74657273000081525060200191505060405180910390fd5b62002269600c6040516020018082805460018160011615610100020316600290048015620022455780601f106200222257610100808354040283529182019162002245565b820191906000526020600020905b81548152906001019060200180831162002230575b50509150506040516020818303038152906040528051906020012060001c62003135565b620022748162003574565b6004600660006101000a81548160ff021916908360048111156200229457fe5b021790555060008090505b6007805490508110156200238257600060078281548110620022bd57fe5b9060005260206000200160009054906101000a900473ffffffffffffffffffffffffffffffffffffffff1690506000600d60008373ffffffffffffffffffffffffffffffffffffffff1673ffffffffffffffffffffffffffffffffffffffff168152602001908152602001600020549050808273ffffffffffffffffffffffffffffffffffffffff167f774c33ab58e0ee92b864f81d9310d1b9b002c5941b4f5275a0a95255856f546e60405160405180910390a3505080806001019150506200229f565b5050565b601160009054906101000a900473ffffffffffffffffffffffffffffffffffffffff1673ffffffffffffffffffffffffffffffffffffffff163373ffffffffffffffffffffffffffffffffffffffff16146200242e576040517f08c379a0000000000000000000000000000000000000000000000000000000008152600401808060200182810382526034815260200180620052b26034913960400191505060405180910390fd5b7fc4dc360d0a9c0677a3379ae0a3d81e887f761e65fdf3d7e00859d1bcd3c473896040518080602001828103825260368152602001806200536d6036913960400191505060405180910390a1620024d46040518060400160405280600381526020017f55524c00000000000000000000000000000000000000000000000000000000008152506040518060800160405280605e81526020016200530f605e9139620036a7565b50565b60016004811115620024e557fe5b600660009054906101000a900460ff1660048111156200250157fe5b1462002575576040517f08c379a000000000000000000000000000000000000000000000000000000000815260040180806020018281038252601d8152602001807f4d75737420626520696e20726567697374726174696f6e20706861736500000081525060200191505060405180910390fd5b601160009054906101000a900473ffffffffffffffffffffffffffffffffffffffff1673ffffffffffffffffffffffffffffffffffffffff163373ffffffffffffffffffffffffffffffffffffffff16146200261d576040517f08c379a0000000000000000000000000000000000000000000000000000000008152600401808060200182810382526029815260200180620052636029913960400191505060405180910390fd5b6000602060ff161162002698576040517f08c379a000000000000000000000000000000000000000000000000000000000815260040180806020018281038252601b8152602001807f5468652073656564206973206e6f7420676f6f6420656e6f756768000000000081525060200191505060405180910390fd5b6002600660006101000a81548160ff02191690836004811115620026b857fe5b021790555080600b8190555050565b600e5481565b600a6020528060005260406000206000915090508054600181600116156101000203166002900480601f016020809104026020016040519081016040528092919081815260200182805460018160011615610100020316600290048015620027795780601f106200274d5761010080835404028352916020019162002779565b820191906000526020600020905b8154815290600101906020018083116200275b57829003601f168201915b505050505081565b600660009054906101000a900460ff1681565b60156020528060005260406000206000915054906101000a900473ffffffffffffffffffffffffffffffffffffffff1681565b60086020528060005260406000206000915054906101000a900460ff1681565b6013602052816000526040600020602052806000526040600020600091509150508054600181600116156101000203166002900480601f016020809104026020016040519081016040528092919081815260200182805460018160011615610100020316600290048015620028a05780601f106200287457610100808354040283529160200191620028a0565b820191906000526020600020905b8154815290600101906020018083116200288257829003601f168201915b505050505081565b60128054905081511462002908576040517f08c379a0000000000000000000000000000000000000000000000000000000008152600401808060200182810382526033815260200180620053a36033913960400191505060405180910390fd5b6000601460003373ffffffffffffffffffffffffffffffffffffffff1673ffffffffffffffffffffffffffffffffffffffff1681526020019081526020016000208054905014620029a5576040517f08c379a000000000000000000000000000000000000000000000000000000000815260040180806020018281038252602b815260200180620053ff602b913960400191505060405180910390fd5b80601460003373ffffffffffffffffffffffffffffffffffffffff1673ffffffffffffffffffffffffffffffffffffffff1681526020019081526020016000209080519060200190620029fa9291906200436e565b5050565b6012818154811062002a0c57fe5b906000526020600020016000915090505481565b6007818154811062002a2e57fe5b906000526020600020016000915054906101000a900473ffffffffffffffffffffffffffffffffffffffff1681565b600860003373ffffffffffffffffffffffffffffffffffffffff1673ffffffffffffffffffffffffffffffffffffffff16815260200190815260200160002060009054906101000a900460ff1662002b1d576040517f08c379a00000000000000000000000000000000000000000000000000000000081526004018080602001828103825260148152602001807f566f746572206e6f74207265676973746572656400000000000000000000000081525060200191505060405180910390fd5b6002600481111562002b2b57fe5b600660009054906101000a900460ff16600481111562002b4757fe5b1462002bbb576040517f08c379a00000000000000000000000000000000000000000000000000000000081526004018080602001828103825260178152602001807f4d75737420626520696e20636f6d6d697420706861736500000000000000000081525060200191505060405180910390fd5b80600960003373ffffffffffffffffffffffffffffffffffffffff1673ffffffffffffffffffffffffffffffffffffffff1681526020019081526020016000208190555050565b6002600481111562002c1057fe5b600660009054906101000a900460ff16600481111562002c2c57fe5b1462002ca0576040517f08c379a00000000000000000000000000000000000000000000000000000000081526004018080602001828103825260178152602001807f4d75737420626520696e20636f6d6d697420706861736500000000000000000081525060200191505060405180910390fd5b601160009054906101000a900473ffffffffffffffffffffffffffffffffffffffff1673ffffffffffffffffffffffffffffffffffffffff163373ffffffffffffffffffffffffffffffffffffffff161462002d48576040517f08c379a00000000000000000000000000000000000000000000000000000000081526004018080602001828103825260298152602001806200542a6029913960400191505060405180910390fd5b6003600660006101000a81548160ff0219169083600481111562002d6857fe5b0217905550600081805190602001209050600b54811462002dd5576040517f08c379a0000000000000000000000000000000000000000000000000000000008152600401808060200182810382526029815260200180620052e66029913960400191505060405180910390fd5b81600c908051906020019062002ded929190620042e7565b505050565b60008073ffffffffffffffffffffffffffffffffffffffff16600160009054906101000a900473ffffffffffffffffffffffffffffffffffffffff1673ffffffffffffffffffffffffffffffffffffffff16148062002e7d5750600062002e7b600160009054906101000a900473ffffffffffffffffffffffffffffffffffffffff1662003c0b565b145b1562002e915762002e8f600062003c16565b505b600160009054906101000a900473ffffffffffffffffffffffffffffffffffffffff1673ffffffffffffffffffffffffffffffffffffffff166338cc48316040518163ffffffff1660e01b8152600401602060405180830381600087803b15801562002efc57600080fd5b505af115801562002f11573d6000803e3d6000fd5b505050506040513d602081101562002f2857600080fd5b810190808051906020019092919050505073ffffffffffffffffffffffffffffffffffffffff166000809054906101000a900473ffffffffffffffffffffffffffffffffffffffff1673ffffffffffffffffffffffffffffffffffffffff16146200307557600160009054906101000a900473ffffffffffffffffffffffffffffffffffffffff1673ffffffffffffffffffffffffffffffffffffffff166338cc48316040518163ffffffff1660e01b8152600401602060405180830381600087803b15801562002ff857600080fd5b505af11580156200300d573d6000803e3d6000fd5b505050506040513d60208110156200302457600080fd5b81019080805190602001909291905050506000806101000a81548173ffffffffffffffffffffffffffffffffffffffff021916908373ffffffffffffffffffffffffffffffffffffffff1602179055505b6000809054906101000a900473ffffffffffffffffffffffffffffffffffffffff1673ffffffffffffffffffffffffffffffffffffffff1663c281d19e6040518163ffffffff1660e01b815260040160206040518083038186803b158015620030dd57600080fd5b505afa158015620030f2573d6000803e3d6000fd5b505050506040513d60208110156200310957600080fd5b8101908080519060200190929190505050905090565b60006200312e82600062003c29565b9050919050565b601160009054906101000a900473ffffffffffffffffffffffffffffffffffffffff1673ffffffffffffffffffffffffffffffffffffffff163373ffffffffffffffffffffffffffffffffffffffff16146200319057600080fd5b6000600143034060001c9050600080600090505b6007805490508110156200328357600a60003373ffffffffffffffffffffffffffffffffffffffff1673ffffffffffffffffffffffffffffffffffffffff1681526020019081526020016000206040516020018082805460018160011615610100020316600290048015620032535780601f106200323057610100808354040283529182019162003253565b820191906000526020600020905b8154815290600101906020018083116200323e575b50509150506040516020818303038152906040528051906020012060001c820191508080600101915050620031a4565b5060006001905060008090505b6007805490508110156200356d576000805b6601000000000000600b6405deece66d86020181620032bd57fe5b0691508193508582019050868101905084810190504281019050600554810190506007805490508181620032ed57fe5b06905060106000600783815481106200330257fe5b9060005260206000200160009054906101000a900473ffffffffffffffffffffffffffffffffffffffff1673ffffffffffffffffffffffffffffffffffffffff1673ffffffffffffffffffffffffffffffffffffffff16815260200190815260200160002060009054906101000a900460ff16151515817fd84b79b64ded9cb22be639e98c3de1f1c48160ad04b001bad25640c137342e4060405160405180910390a36010600060078381548110620033b757fe5b9060005260206000200160009054906101000a900473ffffffffffffffffffffffffffffffffffffffff1673ffffffffffffffffffffffffffffffffffffffff1673ffffffffffffffffffffffffffffffffffffffff16815260200190815260200160002060009054906101000a900460ff16620032a257600160106000600784815481106200344357fe5b9060005260206000200160009054906101000a900473ffffffffffffffffffffffffffffffffffffffff1673ffffffffffffffffffffffffffffffffffffffff1673ffffffffffffffffffffffffffffffffffffffff16815260200190815260200160002060006101000a81548160ff021916908315150217905550600f60078281548110620034cf57fe5b9060005260206000200160009054906101000a900473ffffffffffffffffffffffffffffffffffffffff1690806001815401808255809150509060018203906000526020600020016000909192909190916101000a81548173ffffffffffffffffffffffffffffffffffffffff021916908373ffffffffffffffffffffffffffffffffffffffff160217905550505050808060010191505062003290565b5050505050565b601160009054906101000a900473ffffffffffffffffffffffffffffffffffffffff1673ffffffffffffffffffffffffffffffffffffffff163373ffffffffffffffffffffffffffffffffffffffff1614620035cf57600080fd5b60008090505b600f805490508110156200367757818181620035ed57fe5b06600d6000600784815481106200360057fe5b9060005260206000200160009054906101000a900473ffffffffffffffffffffffffffffffffffffffff1673ffffffffffffffffffffffffffffffffffffffff1673ffffffffffffffffffffffffffffffffffffffff168152602001908152602001600020819055508080600101915050620035d5565b5080600e819055506004600660006101000a81548160ff021916908360048111156200369f57fe5b021790555050565b60008073ffffffffffffffffffffffffffffffffffffffff16600160009054906101000a900473ffffffffffffffffffffffffffffffffffffffff1673ffffffffffffffffffffffffffffffffffffffff161480620037325750600062003730600160009054906101000a900473ffffffffffffffffffffffffffffffffffffffff1662003c0b565b145b15620037465762003744600062003c16565b505b600160009054906101000a900473ffffffffffffffffffffffffffffffffffffffff1673ffffffffffffffffffffffffffffffffffffffff166338cc48316040518163ffffffff1660e01b8152600401602060405180830381600087803b158015620037b157600080fd5b505af1158015620037c6573d6000803e3d6000fd5b505050506040513d6020811015620037dd57600080fd5b810190808051906020019092919050505073ffffffffffffffffffffffffffffffffffffffff166000809054906101000a900473ffffffffffffffffffffffffffffffffffffffff1673ffffffffffffffffffffffffffffffffffffffff16146200392a57600160009054906101000a900473ffffffffffffffffffffffffffffffffffffffff1673ffffffffffffffffffffffffffffffffffffffff166338cc48316040518163ffffffff1660e01b8152600401602060405180830381600087803b158015620038ad57600080fd5b505af1158015620038c2573d6000803e3d6000fd5b505050506040513d6020811015620038d957600080fd5b81019080805190602001909291905050506000806101000a81548173ffffffffffffffffffffffffffffffffffffffff021916908373ffffffffffffffffffffffffffffffffffffffff1602179055505b60008060009054906101000a900473ffffffffffffffffffffffffffffffffffffffff1673ffffffffffffffffffffffffffffffffffffffff1663524f3889856040518263ffffffff1660e01b81526004018080602001828103825283818151815260200191508051906020019080838360005b83811015620039bb5780820151818401526020810190506200399e565b50505050905090810190601f168015620039e95780820380516001836020036101000a031916815260200191505b5092505050602060405180830381600087803b15801562003a0957600080fd5b505af115801562003a1e573d6000803e3d6000fd5b505050506040513d602081101562003a3557600080fd5b8101908080519060200190929190505050905062030d403a02670de0b6b3a76400000181111562003a6d576000801b91505062003c05565b6000809054906101000a900473ffffffffffffffffffffffffffffffffffffffff1673ffffffffffffffffffffffffffffffffffffffff1663adf59f9982600087876040518563ffffffff1660e01b8152600401808481526020018060200180602001838103835285818151815260200191508051906020019080838360005b8381101562003b0a57808201518184015260208101905062003aed565b50505050905090810190601f16801562003b385780820380516001836020036101000a031916815260200191505b50838103825284818151815260200191508051906020019080838360005b8381101562003b7357808201518184015260208101905062003b56565b50505050905090810190601f16801562003ba15780820380516001836020036101000a031916815260200191505b50955050505050506020604051808303818588803b15801562003bc357600080fd5b505af115801562003bd8573d6000803e3d6000fd5b50505050506040513d602081101562003bf057600080fd5b81019080805190602001909291905050509150505b92915050565b6000813b9050919050565b600062003c2262003d4a565b9050919050565b600060608390506000809050600080905060008090505b835181101562003d2a57603084828151811062003c5957fe5b602001015160f81c60f81b60f81c60ff161015801562003c975750603984828151811062003c8357fe5b602001015160f81c60f81b60f81c60ff1611155b1562003cef57811562003cbe57600086141562003cb45762003d2a565b8580600190039650505b600a83029250603084828151811062003cd357fe5b602001015160f81c60f81b60f81c60ff16038301925062003d1c565b602e84828151811062003cfe57fe5b602001015160f81c60f81b60f81c60ff16141562003d1b57600191505b5b808060010191505062003c40565b50600085111562003d3e5784600a0a820291505b81935050505092915050565b60008062003d6c731d3b2638a7cc9f2cb3d298a3da7a90b67e5506ed62003c0b565b111562003e1257731d3b2638a7cc9f2cb3d298a3da7a90b67e5506ed600160006101000a81548173ffffffffffffffffffffffffffffffffffffffff021916908373ffffffffffffffffffffffffffffffffffffffff16021790555062003e086040518060400160405280600b81526020017f6574685f6d61696e6e6574000000000000000000000000000000000000000000815250620042cb565b60019050620042c8565b600062003e3373c03a2615d5efaf5f49f60b7bb6583eaec212fdf162003c0b565b111562003ed95773c03a2615d5efaf5f49f60b7bb6583eaec212fdf1600160006101000a81548173ffffffffffffffffffffffffffffffffffffffff021916908373ffffffffffffffffffffffffffffffffffffffff16021790555062003ecf6040518060400160405280600c81526020017f6574685f726f707374656e330000000000000000000000000000000000000000815250620042cb565b60019050620042c8565b600062003efa73b7a07bcf2ba2f2703b24c0691b5278999c59ac7e62003c0b565b111562003fa05773b7a07bcf2ba2f2703b24c0691b5278999c59ac7e600160006101000a81548173ffffffffffffffffffffffffffffffffffffffff021916908373ffffffffffffffffffffffffffffffffffffffff16021790555062003f966040518060400160405280600981526020017f6574685f6b6f76616e0000000000000000000000000000000000000000000000815250620042cb565b60019050620042c8565b600062003fc173146500cfd35b22e4a392fe0adc06de1a1368ed4862003c0b565b1115620040675773146500cfd35b22e4a392fe0adc06de1a1368ed48600160006101000a81548173ffffffffffffffffffffffffffffffffffffffff021916908373ffffffffffffffffffffffffffffffffffffffff1602179055506200405d6040518060400160405280600b81526020017f6574685f72696e6b656279000000000000000000000000000000000000000000815250620042cb565b60019050620042c8565b60006200408873a2998efd205fb9d4b4963afb70778d6354ad3a4162003c0b565b11156200412e5773a2998efd205fb9d4b4963afb70778d6354ad3a41600160006101000a81548173ffffffffffffffffffffffffffffffffffffffff021916908373ffffffffffffffffffffffffffffffffffffffff160217905550620041246040518060400160405280600a81526020017f6574685f676f65726c6900000000000000000000000000000000000000000000815250620042cb565b60019050620042c8565b60006200414f736f485c8bf6fc43ea212e93bbf8ce046c7f1cb47562003c0b565b1115620041b557736f485c8bf6fc43ea212e93bbf8ce046c7f1cb475600160006101000a81548173ffffffffffffffffffffffffffffffffffffffff021916908373ffffffffffffffffffffffffffffffffffffffff16021790555060019050620042c8565b6000620041d67320e12a1f859b3feae5fb2a0a32c18f5a65555bbf62003c0b565b11156200423c577320e12a1f859b3feae5fb2a0a32c18f5a65555bbf600160006101000a81548173ffffffffffffffffffffffffffffffffffffffff021916908373ffffffffffffffffffffffffffffffffffffffff16021790555060019050620042c8565b60006200425d7351efaf4c8b3c9afbd5ab9f4bbc82784ab6ef8faa62003c0b565b1115620042c3577351efaf4c8b3c9afbd5ab9f4bbc82784ab6ef8faa600160006101000a81548173ffffffffffffffffffffffffffffffffffffffff021916908373ffffffffffffffffffffffffffffffffffffffff16021790555060019050620042c8565b600090505b90565b8060029080519060200190620042e3929190620042e7565b5050565b828054600181600116156101000203166002900490600052602060002090601f016020900481019282601f106200432a57805160ff19168380011785556200435b565b828001600101855582156200435b579182015b828111156200435a5782518255916020019190600101906200433d565b5b5090506200436a9190620043ce565b5090565b828054828255906000526020600020908101928215620043ad579160200282015b82811115620043ac5782518255916020019190600101906200438f565b5b509050620043bc9190620043ce565b5090565b610e6c80620043f783390190565b620043f391905b80821115620043ef576000816000905550600101620043d5565b5090565b9056fe60806040527ff3ec75cc015a7f458c242e37c292eef96c40cfb670ed8cff3bba27ee3301205b60005560026001556040518060e0016040528060bc8152602001610d7f60bc91396004908051906020019061005b92919061009d565b50604051806060016040528060318152602001610e3b603191396005908051906020019061008a92919061009d565b5034801561009757600080fd5b50610142565b828054600181600116156101000203166002900490600052602060002090601f016020900481019282601f106100de57805160ff191683800117855561010c565b8280016001018555821561010c579182015b8281111561010b5782518255916020019190600101906100f0565b5b509050610119919061011d565b5090565b61013f91905b8082111561013b576000816000905550600101610123565b5090565b90565b610c2e806101516000396000f3fe608060405234801561001057600080fd5b50600436106100a95760003560e01c806352fef9bb1161007157806352fef9bb146101c95780635fca164b146102175780636fecb6231461029a5780638482e01c146102b85780638b8fbd921461038b578063a34f8c9d146103a9576100a9565b806307da68f5146100ae57806309cdcf9b146100b85780632e7e3643146100e657806332e7c5bf146101285780633f74a95e14610146575b600080fd5b6100b66103f5565b005b6100e4600480360360208110156100ce57600080fd5b810190808035906020019092919050505061040e565b005b610112600480360360208110156100fc57600080fd5b8101908080359060200190929190505050610459565b6040518082815260200191505060405180910390f35b61013061057e565b6040518082815260200191505060405180910390f35b61014e610584565b6040518080602001828103825283818151815260200191508051906020019080838360005b8381101561018e578082015181840152602081019050610173565b50505050905090810190601f1680156101bb5780820380516001836020036101000a031916815260200191505b509250505060405180910390f35b610215600480360360408110156101df57600080fd5b81019080803573ffffffffffffffffffffffffffffffffffffffff16906020019092919080359060200190929190505050610622565b005b61021f610905565b6040518080602001828103825283818151815260200191508051906020019080838360005b8381101561025f578082015181840152602081019050610244565b50505050905090810190601f16801561028c5780820380516001836020036101000a031916815260200191505b509250505060405180910390f35b6102a26109a3565b6040518082815260200191505060405180910390f35b61036e600480360360208110156102ce57600080fd5b81019080803590602001906401000000008111156102eb57600080fd5b8201836020820111156102fd57600080fd5b8035906020019184602083028401116401000000008311171561031f57600080fd5b919080806020026020016040519081016040528093929190818152602001838360200280828437600081840152601f19601f8201169050808301925050505050505091929192905050506109a9565b604051808381526020018281526020019250505060405180910390f35b610393610a3e565b6040518082815260200191505060405180910390f35b6103df600480360360408110156103bf57600080fd5b810190808035906020019092919080359060200190929190505050610a44565b6040518082815260200191505060405180910390f35b3373ffffffffffffffffffffffffffffffffffffffff16ff5b33600360006101000a81548173ffffffffffffffffffffffffffffffffffffffff021916908373ffffffffffffffffffffffffffffffffffffffff1602179055508060028190555050565b60008073ffffffffffffffffffffffffffffffffffffffff16600360009054906101000a900473ffffffffffffffffffffffffffffffffffffffff1673ffffffffffffffffffffffffffffffffffffffff161415610502576040517f08c379a000000000000000000000000000000000000000000000000000000000815260040180806020018281038252602d815260200180610b96602d913960400191505060405180910390fd5b6000600254141561055e576040517f08c379a0000000000000000000000000000000000000000000000000000000008152600401808060200182810382526037815260200180610bc36037913960400191505060405180910390fd5b61057782600054600254610a659092919063ffffffff16565b9050919050565b60025481565b60058054600181600116156101000203166002900480601f01602080910402602001604051908101604052809291908181526020018280546001816001161561010002031660029004801561061a5780601f106105ef5761010080835404028352916020019161061a565b820191906000526020600020905b8154815290600101906020018083116105fd57829003601f168201915b505050505081565b600073ffffffffffffffffffffffffffffffffffffffff168273ffffffffffffffffffffffffffffffffffffffff1614156106a8576040517f08c379a000000000000000000000000000000000000000000000000000000000815260040180806020018281038252602d815260200180610b96602d913960400191505060405180910390fd5b8173ffffffffffffffffffffffffffffffffffffffff16638b8fbd926040518163ffffffff1660e01b815260040160206040518083038186803b1580156106ee57600080fd5b505afa158015610702573d6000803e3d6000fd5b505050506040513d602081101561071857600080fd5b81019080805190602001909291905050506000541461079f576040517f08c379a00000000000000000000000000000000000000000000000000000000081526004018080602001828103825260138152602001807f5072696d6520697320646966666572656e742e0000000000000000000000000081525060200191505060405180910390fd5b8173ffffffffffffffffffffffffffffffffffffffff16636fecb6236040518163ffffffff1660e01b815260040160206040518083038186803b1580156107e557600080fd5b505afa1580156107f9573d6000803e3d6000fd5b505050506040513d602081101561080f57600080fd5b810190808051906020019092919050505060015414610896576040517f08c379a00000000000000000000000000000000000000000000000000000000081526004018080602001828103825260128152602001807f526f6f7420697320646966666572656e742e000000000000000000000000000081525060200191505060405180910390fd5b8173ffffffffffffffffffffffffffffffffffffffff166309cdcf9b826040518263ffffffff1660e01b815260040180828152602001915050600060405180830381600087803b1580156108e957600080fd5b505af11580156108fd573d6000803e3d6000fd5b505050505050565b60048054600181600116156101000203166002900480601f01602080910402602001604051908101604052809291908181526020018280546001816001161561010002031660029004801561099b5780601f106109705761010080835404028352916020019161099b565b820191906000526020600020905b81548152906001019060200180831161097e57829003601f168201915b505050505081565b60015481565b6000806000805414156109b857fe5b600060015414156109c557fe5b8260405160200180828051906020019060200280838360005b838110156109f95780820151818401526020810190506109de565b505050509050019150506040516020818303038152906040528051906020012060001c9150610a3782600054600154610a659092919063ffffffff16565b9050915091565b60005481565b6000610a5d8360005484610a659092919063ffffffff16565b905092915050565b600080610a70610b51565b610a78610b73565b602081600060068110610a8757fe5b602002018181525050602081600160068110610a9f57fe5b602002018181525050602081600260068110610ab757fe5b6020020181815250508681600360068110610ace57fe5b6020020181815250508581600460068110610ae557fe5b6020020181815250508481600560068110610afc57fe5b60200201818152505060208260c08360056107d05a03fa92508260008114610b2357610b28565b600080fd5b5082610b3357600080fd5b81600060018110610b4057fe5b602002015193505050509392505050565b6040518060200160405280600190602082028038833980820191505090505090565b6040518060c0016040528060069060208202803883398082019150509050509056fe4f7468657220536d61727444696666696548656c6c6d616e20636f6e747261637420756e61737369676e65642e4220686173206e6f74206265656e207472616e736d6974746564206279206f7468657220536d61727444696666696548656c6c6d616e2ea265627a7a7231582037cf3961392957f6c5575a862b04f304362eebecd84aef867aabdd19065c0d5d64736f6c634300051000326c65742072616e646f6d203d205b2e2e2e4172726179283332295d2e6d6170282829203d3e207061727365496e74284d6174682e72616e646f6d2829202a2032353529293b206c65742067656e4161203d206177616974206468496e7374312e67656e6572617465412e63616c6c2872616e646f6d293b206177616974206468496e7374312e7472616e736d697441286468496e7374322e616464726573732c2067656e41615b225f41225d293b2072657475726e2067656e41613b72657475726e206177616974206468496e73742e67656e657261746541422e63616c6c2867656e41615b225f61225d293b4f6e6c7920746865206f776e65722063616e2073746172742074686520636f6d6d697420706861736552616e646f6d206e756d6265722066726f6d2070726f7661626c65206d7573742065786973744f6e6c7920746865206f776e65722063616e2067657420612072616e646f6d206e756d6265722066726f6d2070726f7661626c65536565642066726f6d206f776e657220646f6573206e6f74206d617463682074686520636f6d6d697468747470733a2f2f7777772e72616e646f6d2e6f72672f696e7465676572732f3f6e756d3d31266d696e3d31266d61783d3130303030303030303026636f6c3d3126626173653d313026666f726d61743d706c61696e26726e643d6e657750726f7661626c65207175657279207761732073656e742c207374616e64696e6720627920666f722074686520616e737765722e2e2e47726f757020746f74616c73206d757374206861766520746f74616c20666f72206561636820766f74696e67206f7074696f6e5468657265206d757374206265206174206c656173742074776f20766f74696e67206f7074696f6e7353656e64657220616c72656164792062726f6164636173746564207468652067726f757020746f74616c734f6e6c7920746865206f776e65722063616e207374617274207468652072657665616c207068617365a265627a7a7231582033ee6d85eb75a0dded9eb63bb51b0219a0c3b1404890818fa7f45f370bb60e3c64736f6c63430005100032",
  "source": "pragma solidity >=0.5.0 <0.7.0;\n\nimport \"./provableAPI.sol\";\nimport \"./SmartDiffieHellman.sol\";\n\ncontract ShuffleAndRoundRobin is usingProvable {\n\n    // provableAPI\n    uint public provableRandomNumber;\n\n    // 0. Contract state\n    enum State { Init, Register, Commit, Reveal, Vote }\n    State public state = State.Init;\n\n    // 1. Register all accounts\n    address[] public registered;\n    mapping(address => bool) public isRegistered; // only allow registration once\n\n    // 2. Commit Reveal\n    mapping(address => bytes32) public commits;\n    mapping(address => string) public reveals;\n\n    // seed from owner\n    bytes32 public seedCommit;\n    string public seedReveal;\n\n    // 3. distribute accounts in round robin\n    mapping(address => uint256) public groups;\n    uint256 public numberOfGroups;\n\n    // 4. shuffle the accounts\n    address[] public shuffled;\n    mapping(address => bool) isShuffled;\n\n    // only the contract owner can start distribution and selfdestruct the contract\n    address payable owner = msg.sender;\n\n    // voting\n    uint256[] public votingOptions;\n    mapping(address => mapping(address => string)) public votes;\n\n    mapping(address => uint256[]) public groupTotals;\n\n    // debugging events\n    event randomNr(uint256 indexed _rand, bool indexed _accepted);\n    event distributed(address indexed _address, uint256 indexed _group);\n    event LogNewRandomNumber(string randomNumber);\n    event LogNewProvableQuery(string description);\n\n    constructor() public {\n        OAR = OracleAddrResolverI(0x6f485C8BF6fc43eA212E93BBF8ce046C7f1cb475);\n    }\n\n    function __callback(bytes32 myid, string memory result) public\n    {\n        require(msg.sender == provable_cbAddress());\n        emit LogNewRandomNumber(result);\n        provableRandomNumber = parseInt(result);\n    }\n\n    function getProvableRandomNumber() public payable\n    {\n        require(msg.sender == owner, 'Only the owner can get a random number from provable');\n        emit LogNewProvableQuery(\"Provable query was sent, standing by for the answer...\");\n        provable_query(\"URL\", \"https://www.random.org/integers/?num=1&min=1&max=1000000000&col=1&base=10&format=plain&rnd=new\");\n    }\n\n    // set voting options\n    function setVotingOptions(uint256[] memory _votingOptions) public {\n        require(msg.sender == owner, 'Sender must be owner');\n        require(_votingOptions.length > 1, 'There must be at least two voting options');\n        require(state == State.Init, 'State must be Init');\n\n        state = State.Register;\n\n        votingOptions = _votingOptions;\n    }\n\n    // ======= 1. =======\n    function register() public {\n        require(state == State.Register, 'Not in state Register');\n        require(!isRegistered[msg.sender], 'Already registered');\n\n        isRegistered[msg.sender] = true;\n        registered.push(msg.sender);\n    }\n\n    // ======= 2.1 =======\n    function startCommitPhase(bytes32 _seedCommit) public {\n        require(state == State.Register, 'Must be in registration phase');\n        require(msg.sender == owner, 'Only the owner can start the commit phase');\n        require(_seedCommit.length > 0, 'The seed is not good enough');\n\n        state = State.Commit;\n\n        seedCommit = _seedCommit;\n    }\n\n    // ======= 2.2 =======\n    function startRevealPhase(string memory _seedReveal) public {\n        require(state == State.Commit, 'Must be in commit phase');\n        require(msg.sender == owner, 'Only the owner can start the reveal phase');\n\n        state = State.Reveal;\n\n        bytes32 hash = keccak256(bytes(_seedReveal));\n\n        require(hash == seedCommit, 'Seed from owner does not match the commit');\n\n        seedReveal = _seedReveal;\n    }\n\n    // ======= 2.3 =======\n    function commit(bytes32 _hash) public {\n        require(isRegistered[msg.sender], 'Voter not registered');\n        require(state == State.Commit, 'Must be in commit phase');\n\n        commits[msg.sender] = _hash;\n    }\n\n    // ======= 2.4 =======\n    function reveal(string memory _secret) public {\n        require(isRegistered[msg.sender], 'Voter not registered');\n        require(state == State.Reveal, 'Must be in reveal phase');\n\n        bytes32 hash = keccak256(bytes(_secret));\n\n        require(hash == commits[msg.sender], 'reveal does not match commit');\n\n        reveals[msg.sender] = _secret;\n    }\n\n    // ======= 3. =======\n    function distribute(uint256 _groups) public {\n        require(msg.sender == owner);\n        require(provableRandomNumber > 0, 'Random number from provable must exist');\n        require(state == State.Reveal, 'Must be in reveal phase');\n        require(_groups > 1, 'There must be more than 1 group');\n        require(bytes(seedReveal).length > 0, 'No seed from owner found');\n        require(registered.length > 0, 'There are no registered voters');\n\n        shuffle(uint256(keccak256(abi.encodePacked(seedReveal))));\n        roundRobin(_groups);\n\n        state = State.Vote;\n\n        for(uint256 i = 0; i < registered.length; i++) {\n            address addr = registered[i];\n            uint256 group = groups[addr];\n\n            emit distributed(addr, group);\n        }\n    }\n\n    // ======= 4. =======\n    function shuffle(uint256 _seed) private {\n        require(msg.sender == owner);\n\n        // prevBlockHash\n        uint256 prevBlockHash = uint256(blockhash(block.number - 1));\n\n        uint256 allReveals;\n        // reveals\n        for(uint256 i = 0; i < registered.length; i++) {\n            allReveals += uint256(keccak256(abi.encodePacked(reveals[msg.sender])));\n        }\n\n        uint256 prevRand = 1;\n\n        for(uint256 i = 0; i < registered.length; i++) {\n            uint256 rand;\n            uint256 randPosition;\n\n            // search for a registered address which has not been shuffled\n            do {\n                // values from Java's java.util.Random, POSIX [ln]rand48, glibc [ln]rand48[_r],\n                // see https://en.wikipedia.org/wiki/Linear_congruential_generator#Parameters_in_common_use\n                rand = (prevRand * 25214903917 + 11) % (2 ** 48);\n                prevRand = rand;\n\n                // last block hash\n                randPosition = rand + prevBlockHash;\n                // seed from owner\n                randPosition += _seed;\n                // reveals from voters\n                randPosition += allReveals;\n                // timestamp of current block\n                randPosition += now;\n                // random number from provable\n                randPosition += provableRandomNumber;\n\n                // find a position in the mapping\n                randPosition = randPosition % registered.length;\n\n                emit randomNr(randPosition, !isShuffled[registered[randPosition]]);\n            } while(isShuffled[registered[randPosition]]);\n\n            isShuffled[registered[randPosition]] = true;\n\n            shuffled.push(registered[randPosition]);\n        }\n    }\n\n    function roundRobin(uint256 _groups) private {\n        require(msg.sender == owner);\n\n        for(uint256 i = 0; i < shuffled.length; i++) {\n            groups[registered[i]] = i % _groups;\n        }\n\n        numberOfGroups = _groups;\n        state = State.Vote;\n    }\n\n    // ========== smartDHX ===========\n    mapping(bytes32 => SmartDiffieHellman) public smartDHXs;\n\n    function getEdgeKey(address _first, address _second) public pure returns (bytes32 _edgeKey) {\n        return keccak256(abi.encodePacked(_first, _second));\n    }\n\n    function deploySmartDHX(address _first, address _second) public {\n        require(msg.sender == owner);\n        require(state == State.Vote);\n\n        SmartDiffieHellman firstSmartDHX = new SmartDiffieHellman();\n        SmartDiffieHellman secondSmartDHX = new SmartDiffieHellman();\n\n        bytes32 firstEdgeKey = getEdgeKey(_first, _second);\n        bytes32 secondEdgeKey = getEdgeKey(_second, _first);\n\n        smartDHXs[firstEdgeKey] = firstSmartDHX;\n        smartDHXs[secondEdgeKey] = secondSmartDHX;\n    }\n\n    function sendVote(string memory _vote, address _to) public {\n        require(state == State.Vote, 'Not in voting state');\n        require(bytes(votes[msg.sender][_to]).length == 0, 'Vote was already sent');\n\n        votes[msg.sender][_to] = _vote;\n    }\n\n    function broadcastGroupTotalVotes(uint256[] memory _groupTotals) public {\n        require(_groupTotals.length == votingOptions.length, 'Group totals must have total for each voting option');\n        require(groupTotals[msg.sender].length == 0, 'Sender already broadcasted the group totals');\n\n        groupTotals[msg.sender] = _groupTotals;\n    }\n\n    function stop() public {\n        require(msg.sender == owner);\n        selfdestruct(msg.sender);\n    }\n}",
  "sourcePath": "/Users/florens/Documents/Master/Master Thesis/grouping/contracts/ShuffleAndRoundRobin.sol",
  "compiler": {
    "name": "solc",
    "version": "0.5.16+commit.9c3226ce.Emscripten.clang"
  },
  "schemaVersion": "3.0.23",
  "updatedAt": "2020-06-07T18:02:53.474Z",
  "networkType": "ethereum",
  "devdoc": {
    "methods": {}
  },
  "userdoc": {
    "methods": {}
  }
}