{
  "contractName": "ShuffleAndRoundRobin",
  "abi": [
    {
      "constant": true,
      "inputs": [],
      "name": "seedCommit",
      "outputs": [
        {
          "name": "",
          "type": "bytes32"
        }
      ],
      "payable": false,
      "stateMutability": "view",
      "type": "function"
    },
    {
      "constant": true,
      "inputs": [],
      "name": "provableRandomNumber",
      "outputs": [
        {
          "name": "",
          "type": "uint256"
        }
      ],
      "payable": false,
      "stateMutability": "view",
      "type": "function"
    },
    {
      "constant": true,
      "inputs": [
        {
          "name": "",
          "type": "uint256"
        }
      ],
      "name": "shuffled",
      "outputs": [
        {
          "name": "",
          "type": "address"
        }
      ],
      "payable": false,
      "stateMutability": "view",
      "type": "function"
    },
    {
      "constant": true,
      "inputs": [
        {
          "name": "",
          "type": "address"
        }
      ],
      "name": "groups",
      "outputs": [
        {
          "name": "",
          "type": "uint256"
        }
      ],
      "payable": false,
      "stateMutability": "view",
      "type": "function"
    },
    {
      "constant": true,
      "inputs": [],
      "name": "seedReveal",
      "outputs": [
        {
          "name": "",
          "type": "string"
        }
      ],
      "payable": false,
      "stateMutability": "view",
      "type": "function"
    },
    {
      "constant": true,
      "inputs": [
        {
          "name": "",
          "type": "address"
        }
      ],
      "name": "commits",
      "outputs": [
        {
          "name": "",
          "type": "bytes32"
        }
      ],
      "payable": false,
      "stateMutability": "view",
      "type": "function"
    },
    {
      "constant": true,
      "inputs": [
        {
          "name": "",
          "type": "uint256"
        }
      ],
      "name": "smartDHXs",
      "outputs": [
        {
          "name": "",
          "type": "address"
        }
      ],
      "payable": false,
      "stateMutability": "view",
      "type": "function"
    },
    {
      "constant": true,
      "inputs": [],
      "name": "numberOfGroups",
      "outputs": [
        {
          "name": "",
          "type": "uint256"
        }
      ],
      "payable": false,
      "stateMutability": "view",
      "type": "function"
    },
    {
      "constant": true,
      "inputs": [
        {
          "name": "",
          "type": "address"
        }
      ],
      "name": "reveals",
      "outputs": [
        {
          "name": "",
          "type": "string"
        }
      ],
      "payable": false,
      "stateMutability": "view",
      "type": "function"
    },
    {
      "constant": true,
      "inputs": [],
      "name": "state",
      "outputs": [
        {
          "name": "",
          "type": "uint8"
        }
      ],
      "payable": false,
      "stateMutability": "view",
      "type": "function"
    },
    {
      "constant": true,
      "inputs": [
        {
          "name": "",
          "type": "address"
        }
      ],
      "name": "isRegistered",
      "outputs": [
        {
          "name": "",
          "type": "bool"
        }
      ],
      "payable": false,
      "stateMutability": "view",
      "type": "function"
    },
    {
      "constant": true,
      "inputs": [
        {
          "name": "",
          "type": "uint256"
        }
      ],
      "name": "registered",
      "outputs": [
        {
          "name": "",
          "type": "address"
        }
      ],
      "payable": false,
      "stateMutability": "view",
      "type": "function"
    },
    {
      "inputs": [],
      "payable": false,
      "stateMutability": "nonpayable",
      "type": "constructor"
    },
    {
      "anonymous": false,
      "inputs": [
        {
          "indexed": true,
          "name": "_rand",
          "type": "uint256"
        },
        {
          "indexed": true,
          "name": "_accepted",
          "type": "bool"
        }
      ],
      "name": "randomNr",
      "type": "event"
    },
    {
      "anonymous": false,
      "inputs": [
        {
          "indexed": true,
          "name": "_address",
          "type": "address"
        },
        {
          "indexed": true,
          "name": "_group",
          "type": "uint256"
        }
      ],
      "name": "distributed",
      "type": "event"
    },
    {
      "anonymous": false,
      "inputs": [
        {
          "indexed": false,
          "name": "randomNumber",
          "type": "string"
        }
      ],
      "name": "LogNewRandomNumber",
      "type": "event"
    },
    {
      "anonymous": false,
      "inputs": [
        {
          "indexed": false,
          "name": "description",
          "type": "string"
        }
      ],
      "name": "LogNewProvableQuery",
      "type": "event"
    },
    {
      "constant": false,
      "inputs": [
        {
          "name": "myid",
          "type": "bytes32"
        },
        {
          "name": "result",
          "type": "string"
        }
      ],
      "name": "__callback",
      "outputs": [],
      "payable": false,
      "stateMutability": "nonpayable",
      "type": "function"
    },
    {
      "constant": false,
      "inputs": [
        {
          "name": "_myid",
          "type": "bytes32"
        },
        {
          "name": "_result",
          "type": "string"
        },
        {
          "name": "_proof",
          "type": "bytes"
        }
      ],
      "name": "__callback",
      "outputs": [],
      "payable": false,
      "stateMutability": "nonpayable",
      "type": "function"
    },
    {
      "constant": false,
      "inputs": [],
      "name": "getProvableRandomNumber",
      "outputs": [],
      "payable": true,
      "stateMutability": "payable",
      "type": "function"
    },
    {
      "constant": false,
      "inputs": [],
      "name": "register",
      "outputs": [],
      "payable": false,
      "stateMutability": "nonpayable",
      "type": "function"
    },
    {
      "constant": false,
      "inputs": [
        {
          "name": "_seedCommit",
          "type": "bytes32"
        }
      ],
      "name": "startCommitPhase",
      "outputs": [],
      "payable": false,
      "stateMutability": "nonpayable",
      "type": "function"
    },
    {
      "constant": false,
      "inputs": [
        {
          "name": "_seedReveal",
          "type": "string"
        }
      ],
      "name": "startRevealPhase",
      "outputs": [],
      "payable": false,
      "stateMutability": "nonpayable",
      "type": "function"
    },
    {
      "constant": false,
      "inputs": [
        {
          "name": "_hash",
          "type": "bytes32"
        }
      ],
      "name": "commit",
      "outputs": [],
      "payable": false,
      "stateMutability": "nonpayable",
      "type": "function"
    },
    {
      "constant": false,
      "inputs": [
        {
          "name": "_secret",
          "type": "string"
        }
      ],
      "name": "reveal",
      "outputs": [],
      "payable": false,
      "stateMutability": "nonpayable",
      "type": "function"
    },
    {
      "constant": false,
      "inputs": [
        {
          "name": "_groups",
          "type": "uint256"
        }
      ],
      "name": "distribute",
      "outputs": [],
      "payable": false,
      "stateMutability": "nonpayable",
      "type": "function"
    },
    {
      "constant": false,
      "inputs": [],
      "name": "deploySmartDHX",
      "outputs": [],
      "payable": false,
      "stateMutability": "nonpayable",
      "type": "function"
    },
    {
      "constant": false,
      "inputs": [],
      "name": "stop",
      "outputs": [],
      "payable": false,
      "stateMutability": "nonpayable",
      "type": "function"
    }
  ],
  "bytecode": "0x60806040526000600660006101000a81548160ff0219169083600381111561002357fe5b021790555033601160006101000a81548173ffffffffffffffffffffffffffffffffffffffff021916908373ffffffffffffffffffffffffffffffffffffffff16021790555034801561007557600080fd5b5073864b12a155db678f6033a963bc2e1c35b8cebfda600160006101000a81548173ffffffffffffffffffffffffffffffffffffffff021916908373ffffffffffffffffffffffffffffffffffffffff160217905550614ad4806100da6000396000f3fe6080604052600436106200014b576000357c0100000000000000000000000000000000000000000000000000000000900463ffffffff16806307da68f514620001505780631aa3a008146200016a57806323939c67146200018457806326cef7d714620001b257806327dc297e14620001e05780633174c42314620002b957806338bbfa5014620002d357806348a9e4e014620004465780634c26124714620004c557806363d5e44d14620005945780636a7c557114620005fd5780637b43a8e6146200069357806391c05b0b14620006fc5780639bf9c482146200073b5780639e7186db14620007ba578063b60baacb14620007c6578063bf9524961462000805578063bff3e1ba1462000833578063c19d93fb1462000904578063c3c5a5471462000941578063e6cf134614620009ae578063f14fcbc81462000a2d578063f2ea38cb1462000a6c575b600080fd5b3480156200015d57600080fd5b506200016862000b3b565b005b3480156200017757600080fd5b506200018262000bb1565b005b3480156200019157600080fd5b506200019c62000d02565b6040518082815260200191505060405180910390f35b348015620001bf57600080fd5b50620001ca62000d08565b6040518082815260200191505060405180910390f35b348015620001ed57600080fd5b50620002b7600480360360408110156200020657600080fd5b8101908080359060200190929190803590602001906401000000008111156200022e57600080fd5b8201836020820111156200024157600080fd5b803590602001918460018302840111640100000000831117156200026457600080fd5b91908080601f016020809104026020016040519081016040528093929190818152602001838380828437600081840152601f19601f82011690508083019250505050505050919291929050505062000d0e565b005b348015620002c657600080fd5b50620002d162000e06565b005b348015620002e057600080fd5b506200044460048036036060811015620002f957600080fd5b8101908080359060200190929190803590602001906401000000008111156200032157600080fd5b8201836020820111156200033457600080fd5b803590602001918460018302840111640100000000831117156200035757600080fd5b91908080601f016020809104026020016040519081016040528093929190818152602001838380828437600081840152601f19601f82011690508083019250505050505050919291929080359060200190640100000000811115620003bb57600080fd5b820183602082011115620003ce57600080fd5b80359060200191846001830284011164010000000083111715620003f157600080fd5b91908080601f016020809104026020016040519081016040528093929190818152602001838380828437600081840152601f19601f82011690508083019250505050505050919291929050505062000fe0565b005b3480156200045357600080fd5b5062000483600480360360208110156200046c57600080fd5b810190808035906020019092919050505062001004565b604051808273ffffffffffffffffffffffffffffffffffffffff1673ffffffffffffffffffffffffffffffffffffffff16815260200191505060405180910390f35b348015620004d257600080fd5b506200059260048036036020811015620004eb57600080fd5b81019080803590602001906401000000008111156200050957600080fd5b8201836020820111156200051c57600080fd5b803590602001918460018302840111640100000000831117156200053f57600080fd5b91908080601f016020809104026020016040519081016040528093929190818152602001838380828437600081840152601f19601f82011690508083019250505050505050919291929050505062001043565b005b348015620005a157600080fd5b50620005e760048036036020811015620005ba57600080fd5b81019080803573ffffffffffffffffffffffffffffffffffffffff169060200190929190505050620012c2565b6040518082815260200191505060405180910390f35b3480156200060a57600080fd5b5062000615620012da565b6040518080602001828103825283818151815260200191508051906020019080838360005b83811015620006575780820151818401526020810190506200063a565b50505050905090810190601f168015620006855780820380516001836020036101000a031916815260200191505b509250505060405180910390f35b348015620006a057600080fd5b50620006e660048036036020811015620006b957600080fd5b81019080803573ffffffffffffffffffffffffffffffffffffffff1690602001909291905050506200137c565b6040518082815260200191505060405180910390f35b3480156200070957600080fd5b5062000739600480360360208110156200072257600080fd5b810190808035906020019092919050505062001394565b005b3480156200074857600080fd5b5062000778600480360360208110156200076157600080fd5b810190808035906020019092919050505062001864565b604051808273ffffffffffffffffffffffffffffffffffffffff1673ffffffffffffffffffffffffffffffffffffffff16815260200191505060405180910390f35b620007c4620018a3565b005b348015620007d357600080fd5b506200080360048036036020811015620007ec57600080fd5b810190808035906020019092919050505062001ae3565b005b3480156200081257600080fd5b506200081d62001d1b565b6040518082815260200191505060405180910390f35b3480156200084057600080fd5b5062000886600480360360208110156200085957600080fd5b81019080803573ffffffffffffffffffffffffffffffffffffffff16906020019092919050505062001d21565b6040518080602001828103825283818151815260200191508051906020019080838360005b83811015620008c8578082015181840152602081019050620008ab565b50505050905090810190601f168015620008f65780820380516001836020036101000a031916815260200191505b509250505060405180910390f35b3480156200091157600080fd5b506200091c62001dd5565b604051808260038111156200092d57fe5b60ff16815260200191505060405180910390f35b3480156200094e57600080fd5b5062000994600480360360208110156200096757600080fd5b81019080803573ffffffffffffffffffffffffffffffffffffffff16906020019092919050505062001de8565b604051808215151515815260200191505060405180910390f35b348015620009bb57600080fd5b50620009eb60048036036020811015620009d457600080fd5b810190808035906020019092919050505062001e08565b604051808273ffffffffffffffffffffffffffffffffffffffff1673ffffffffffffffffffffffffffffffffffffffff16815260200191505060405180910390f35b34801562000a3a57600080fd5b5062000a6a6004803603602081101562000a5357600080fd5b810190808035906020019092919050505062001e47565b005b34801562000a7957600080fd5b5062000b396004803603602081101562000a9257600080fd5b810190808035906020019064010000000081111562000ab057600080fd5b82018360208201111562000ac357600080fd5b8035906020019184600183028401116401000000008311171562000ae657600080fd5b91908080601f016020809104026020016040519081016040528093929190818152602001838380828437600081840152601f19601f82011690508083019250505050505050919291929050505062001ff0565b005b601160009054906101000a900473ffffffffffffffffffffffffffffffffffffffff1673ffffffffffffffffffffffffffffffffffffffff163373ffffffffffffffffffffffffffffffffffffffff1614151562000b9857600080fd5b3373ffffffffffffffffffffffffffffffffffffffff16ff5b6000600381111562000bbf57fe5b600660009054906101000a900460ff16600381111562000bdb57fe5b14151562000be857600080fd5b600860003373ffffffffffffffffffffffffffffffffffffffff1673ffffffffffffffffffffffffffffffffffffffff16815260200190815260200160002060009054906101000a900460ff1615151562000c4257600080fd5b6001600860003373ffffffffffffffffffffffffffffffffffffffff1673ffffffffffffffffffffffffffffffffffffffff16815260200190815260200160002060006101000a81548160ff02191690831515021790555060073390806001815401808255809150509060018203906000526020600020016000909192909190916101000a81548173ffffffffffffffffffffffffffffffffffffffff021916908373ffffffffffffffffffffffffffffffffffffffff16021790555050565b600b5481565b60055481565b62000d186200226a565b73ffffffffffffffffffffffffffffffffffffffff163373ffffffffffffffffffffffffffffffffffffffff1614151562000d5257600080fd5b7f067c40d9272b02fb8e9bfe6a064b465504d8f549abce9d58121baec5ffaecae1816040518080602001828103825283818151815260200191508051906020019080838360005b8381101562000db657808201518184015260208101905062000d99565b50505050905090810190601f16801562000de45780820380516001836020036101000a031916815260200191505b509250505060405180910390a162000dfc81620025ed565b6005819055505050565b601160009054906101000a900473ffffffffffffffffffffffffffffffffffffffff1673ffffffffffffffffffffffffffffffffffffffff163373ffffffffffffffffffffffffffffffffffffffff1614151562000e6357600080fd5b60038081111562000e7057fe5b600660009054906101000a900460ff16600381111562000e8c57fe5b14151562000e9957600080fd5b600062000ea562002603565b90508060128054905010151562000f4a576040517f08c379a00000000000000000000000000000000000000000000000000000000081526004018080602001828103825260298152602001807f416c6c20736d617274444858732068617665206265656e206465706c6f79656481526020017f20616c72656164792e000000000000000000000000000000000000000000000081525060400191505060405180910390fd5b600062000f5662003a02565b604051809103906000f08015801562000f73573d6000803e3d6000fd5b50905060128190806001815401808255809150509060018203906000526020600020016000909192909190916101000a81548173ffffffffffffffffffffffffffffffffffffffff021916908373ffffffffffffffffffffffffffffffffffffffff160217905550505050565b60006001026003600080600102815260200190815260200160002081905550505050565b600f818154811015156200101457fe5b906000526020600020016000915054906101000a900473ffffffffffffffffffffffffffffffffffffffff1681565b600860003373ffffffffffffffffffffffffffffffffffffffff1673ffffffffffffffffffffffffffffffffffffffff16815260200190815260200160002060009054906101000a900460ff16151562001105576040517f08c379a00000000000000000000000000000000000000000000000000000000081526004018080602001828103825260148152602001807f566f746572206e6f74207265676973746572656400000000000000000000000081525060200191505060405180910390fd5b600260038111156200111357fe5b600660009054906101000a900460ff1660038111156200112f57fe5b141515620011a5576040517f08c379a00000000000000000000000000000000000000000000000000000000081526004018080602001828103825260178152602001807f4d75737420626520696e2072657665616c20706861736500000000000000000081525060200191505060405180910390fd5b600081805190602001209050600960003373ffffffffffffffffffffffffffffffffffffffff1673ffffffffffffffffffffffffffffffffffffffff168152602001908152602001600020548114151562001268576040517f08c379a000000000000000000000000000000000000000000000000000000000815260040180806020018281038252601c8152602001807f72657665616c20646f6573206e6f74206d6174636820636f6d6d69740000000081525060200191505060405180910390fd5b81600a60003373ffffffffffffffffffffffffffffffffffffffff1673ffffffffffffffffffffffffffffffffffffffff1681526020019081526020016000209080519060200190620012bd92919062003a13565b505050565b600d6020528060005260406000206000915090505481565b600c8054600181600116156101000203166002900480601f016020809104026020016040519081016040528092919081815260200182805460018160011615610100020316600290048015620013745780601f10620013485761010080835404028352916020019162001374565b820191906000526020600020905b8154815290600101906020018083116200135657829003601f168201915b505050505081565b60096020528060005260406000206000915090505481565b601160009054906101000a900473ffffffffffffffffffffffffffffffffffffffff1673ffffffffffffffffffffffffffffffffffffffff163373ffffffffffffffffffffffffffffffffffffffff16141515620013f157600080fd5b600060055411151562001492576040517f08c379a00000000000000000000000000000000000000000000000000000000081526004018080602001828103825260268152602001807f52616e646f6d206e756d6265722066726f6d2070726f7661626c65206d75737481526020017f206578697374000000000000000000000000000000000000000000000000000081525060400191505060405180910390fd5b60026003811115620014a057fe5b600660009054906101000a900460ff166003811115620014bc57fe5b14151562001532576040517f08c379a00000000000000000000000000000000000000000000000000000000081526004018080602001828103825260178152602001807f4d75737420626520696e2072657665616c20706861736500000000000000000081525060200191505060405180910390fd5b600181111515620015ab576040517f08c379a000000000000000000000000000000000000000000000000000000000815260040180806020018281038252601f8152602001807f5468657265206d757374206265206d6f7265207468616e20312067726f75700081525060200191505060405180910390fd5b6000600c8054600181600116156101000203166002900490501115156200163a576040517f08c379a00000000000000000000000000000000000000000000000000000000081526004018080602001828103825260188152602001807f4e6f20736565642066726f6d206f776e657220666f756e64000000000000000081525060200191505060405180910390fd5b6000600780549050111515620016b8576040517f08c379a000000000000000000000000000000000000000000000000000000000815260040180806020018281038252601e8152602001807f546865726520617265206e6f207265676973746572656420766f74657273000081525060200191505060405180910390fd5b62001745600c6040516020018082805460018160011615610100020316600290048015620017205780601f10620016fd57610100808354040283529182019162001720565b820191906000526020600020905b8154815290600101906020018083116200170b575b505091505060405160208183030381529060405280519060200120600190046200263d565b620017508162002a8e565b6003600660006101000a81548160ff021916908360038111156200177057fe5b021790555060008090505b600780549050811015620018605760006007828154811015156200179b57fe5b9060005260206000200160009054906101000a900473ffffffffffffffffffffffffffffffffffffffff1690506000600d60008373ffffffffffffffffffffffffffffffffffffffff1673ffffffffffffffffffffffffffffffffffffffff168152602001908152602001600020549050808273ffffffffffffffffffffffffffffffffffffffff167f774c33ab58e0ee92b864f81d9310d1b9b002c5941b4f5275a0a95255856f546e60405160405180910390a3505080806001019150506200177b565b5050565b6012818154811015156200187457fe5b906000526020600020016000915054906101000a900473ffffffffffffffffffffffffffffffffffffffff1681565b601160009054906101000a900473ffffffffffffffffffffffffffffffffffffffff1673ffffffffffffffffffffffffffffffffffffffff163373ffffffffffffffffffffffffffffffffffffffff161415156200198f576040517f08c379a00000000000000000000000000000000000000000000000000000000081526004018080602001828103825260348152602001807f4f6e6c7920746865206f776e65722063616e2067657420612072616e646f6d2081526020017f6e756d6265722066726f6d2070726f7661626c6500000000000000000000000081525060400191505060405180910390fd5b7fc4dc360d0a9c0677a3379ae0a3d81e887f761e65fdf3d7e00859d1bcd3c473896040518080602001828103825260368152602001807f50726f7661626c65207175657279207761732073656e742c207374616e64696e81526020017f6720627920666f722074686520616e737765722e2e2e0000000000000000000081525060400191505060405180910390a162001ae06040805190810160405280600381526020017f55524c0000000000000000000000000000000000000000000000000000000000815250608060405190810160405280605e81526020017f68747470733a2f2f7777772e72616e646f6d2e6f72672f696e7465676572732f81526020017f3f6e756d3d31266d696e3d31266d61783d3130303030303030303026636f6c3d81526020017f3126626173653d313026666f726d61743d706c61696e26726e643d6e6577000081525062002bc7565b50565b6000600381111562001af157fe5b600660009054906101000a900460ff16600381111562001b0d57fe5b14151562001b83576040517f08c379a000000000000000000000000000000000000000000000000000000000815260040180806020018281038252601d8152602001807f4d75737420626520696e20726567697374726174696f6e20706861736500000081525060200191505060405180910390fd5b601160009054906101000a900473ffffffffffffffffffffffffffffffffffffffff1673ffffffffffffffffffffffffffffffffffffffff163373ffffffffffffffffffffffffffffffffffffffff1614151562001c6f576040517f08c379a00000000000000000000000000000000000000000000000000000000081526004018080602001828103825260298152602001807f4f6e6c7920746865206f776e65722063616e2073746172742074686520636f6d81526020017f6d6974207068617365000000000000000000000000000000000000000000000081525060400191505060405180910390fd5b6000602060ff1611151562001cec576040517f08c379a000000000000000000000000000000000000000000000000000000000815260040180806020018281038252601b8152602001807f5468652073656564206973206e6f7420676f6f6420656e6f756768000000000081525060200191505060405180910390fd5b6001600660006101000a81548160ff0219169083600381111562001d0c57fe5b021790555080600b8190555050565b600e5481565b600a6020528060005260406000206000915090508054600181600116156101000203166002900480601f01602080910402602001604051908101604052809291908181526020018280546001816001161561010002031660029004801562001dcd5780601f1062001da15761010080835404028352916020019162001dcd565b820191906000526020600020905b81548152906001019060200180831162001daf57829003601f168201915b505050505081565b600660009054906101000a900460ff1681565b60086020528060005260406000206000915054906101000a900460ff1681565b60078181548110151562001e1857fe5b906000526020600020016000915054906101000a900473ffffffffffffffffffffffffffffffffffffffff1681565b600860003373ffffffffffffffffffffffffffffffffffffffff1673ffffffffffffffffffffffffffffffffffffffff16815260200190815260200160002060009054906101000a900460ff16151562001f09576040517f08c379a00000000000000000000000000000000000000000000000000000000081526004018080602001828103825260148152602001807f566f746572206e6f74207265676973746572656400000000000000000000000081525060200191505060405180910390fd5b6001600381111562001f1757fe5b600660009054906101000a900460ff16600381111562001f3357fe5b14151562001fa9576040517f08c379a00000000000000000000000000000000000000000000000000000000081526004018080602001828103825260178152602001807f4d75737420626520696e20636f6d6d697420706861736500000000000000000081525060200191505060405180910390fd5b80600960003373ffffffffffffffffffffffffffffffffffffffff1673ffffffffffffffffffffffffffffffffffffffff1681526020019081526020016000208190555050565b6001600381111562001ffe57fe5b600660009054906101000a900460ff1660038111156200201a57fe5b14151562002090576040517f08c379a00000000000000000000000000000000000000000000000000000000081526004018080602001828103825260178152602001807f4d75737420626520696e20636f6d6d697420706861736500000000000000000081525060200191505060405180910390fd5b601160009054906101000a900473ffffffffffffffffffffffffffffffffffffffff1673ffffffffffffffffffffffffffffffffffffffff163373ffffffffffffffffffffffffffffffffffffffff161415156200217c576040517f08c379a00000000000000000000000000000000000000000000000000000000081526004018080602001828103825260298152602001807f4f6e6c7920746865206f776e65722063616e207374617274207468652072657681526020017f65616c207068617365000000000000000000000000000000000000000000000081525060400191505060405180910390fd5b6002600660006101000a81548160ff021916908360038111156200219c57fe5b0217905550600081805190602001209050600b54811415156200224d576040517f08c379a00000000000000000000000000000000000000000000000000000000081526004018080602001828103825260298152602001807f536565642066726f6d206f776e657220646f6573206e6f74206d61746368207481526020017f686520636f6d6d6974000000000000000000000000000000000000000000000081525060400191505060405180910390fd5b81600c90805190602001906200226592919062003a13565b505050565b60008073ffffffffffffffffffffffffffffffffffffffff16600160009054906101000a900473ffffffffffffffffffffffffffffffffffffffff1673ffffffffffffffffffffffffffffffffffffffff161480620022f557506000620022f3600160009054906101000a900473ffffffffffffffffffffffffffffffffffffffff166200319e565b145b156200230957620023076000620031a9565b505b600160009054906101000a900473ffffffffffffffffffffffffffffffffffffffff1673ffffffffffffffffffffffffffffffffffffffff166338cc48316040518163ffffffff167c0100000000000000000000000000000000000000000000000000000000028152600401602060405180830381600087803b1580156200239057600080fd5b505af1158015620023a5573d6000803e3d6000fd5b505050506040513d6020811015620023bc57600080fd5b810190808051906020019092919050505073ffffffffffffffffffffffffffffffffffffffff166000809054906101000a900473ffffffffffffffffffffffffffffffffffffffff1673ffffffffffffffffffffffffffffffffffffffff161415156200252757600160009054906101000a900473ffffffffffffffffffffffffffffffffffffffff1673ffffffffffffffffffffffffffffffffffffffff166338cc48316040518163ffffffff167c0100000000000000000000000000000000000000000000000000000000028152600401602060405180830381600087803b158015620024aa57600080fd5b505af1158015620024bf573d6000803e3d6000fd5b505050506040513d6020811015620024d657600080fd5b81019080805190602001909291905050506000806101000a81548173ffffffffffffffffffffffffffffffffffffffff021916908373ffffffffffffffffffffffffffffffffffffffff1602179055505b6000809054906101000a900473ffffffffffffffffffffffffffffffffffffffff1673ffffffffffffffffffffffffffffffffffffffff1663c281d19e6040518163ffffffff167c010000000000000000000000000000000000000000000000000000000002815260040160206040518083038186803b158015620025ab57600080fd5b505afa158015620025c0573d6000803e3d6000fd5b505050506040513d6020811015620025d757600080fd5b8101908080519060200190929190505050905090565b6000620025fc826000620031bc565b9050919050565b600080600e546007805490508115156200261957fe5b0490506000600182036002838115156200262f57fe5b040290508181029250505090565b601160009054906101000a900473ffffffffffffffffffffffffffffffffffffffff1673ffffffffffffffffffffffffffffffffffffffff163373ffffffffffffffffffffffffffffffffffffffff161415156200269a57600080fd5b60006001430340600190049050600080600090505b6007805490508110156200278f57600a60003373ffffffffffffffffffffffffffffffffffffffff1673ffffffffffffffffffffffffffffffffffffffff16815260200190815260200160002060405160200180828054600181600116156101000203166002900480156200275e5780601f106200273b5761010080835404028352918201916200275e565b820191906000526020600020905b81548152906001019060200180831162002749575b50509150506040516020818303038152906040528051906020012060019004820191508080600101915050620026af565b5060006001905060008090505b60078054905081101562002a87576000805b6601000000000000600b6405deece66d860201811515620027cb57fe5b06915081935085820190508681019050848101905042810190506005548101905060078054905081811515620027fd57fe5b069050601060006007838154811015156200281457fe5b9060005260206000200160009054906101000a900473ffffffffffffffffffffffffffffffffffffffff1673ffffffffffffffffffffffffffffffffffffffff1673ffffffffffffffffffffffffffffffffffffffff16815260200190815260200160002060009054906101000a900460ff16151515817fd84b79b64ded9cb22be639e98c3de1f1c48160ad04b001bad25640c137342e4060405160405180910390a360106000600783815481101515620028cb57fe5b9060005260206000200160009054906101000a900473ffffffffffffffffffffffffffffffffffffffff1673ffffffffffffffffffffffffffffffffffffffff1673ffffffffffffffffffffffffffffffffffffffff16815260200190815260200160002060009054906101000a900460ff161515620027ae576001601060006007848154811015156200295b57fe5b9060005260206000200160009054906101000a900473ffffffffffffffffffffffffffffffffffffffff1673ffffffffffffffffffffffffffffffffffffffff1673ffffffffffffffffffffffffffffffffffffffff16815260200190815260200160002060006101000a81548160ff021916908315150217905550600f600782815481101515620029e957fe5b9060005260206000200160009054906101000a900473ffffffffffffffffffffffffffffffffffffffff1690806001815401808255809150509060018203906000526020600020016000909192909190916101000a81548173ffffffffffffffffffffffffffffffffffffffff021916908373ffffffffffffffffffffffffffffffffffffffff16021790555050505080806001019150506200279c565b5050505050565b601160009054906101000a900473ffffffffffffffffffffffffffffffffffffffff1673ffffffffffffffffffffffffffffffffffffffff163373ffffffffffffffffffffffffffffffffffffffff1614151562002aeb57600080fd5b60008090505b600f8054905081101562002b9757818181151562002b0b57fe5b06600d600060078481548110151562002b2057fe5b9060005260206000200160009054906101000a900473ffffffffffffffffffffffffffffffffffffffff1673ffffffffffffffffffffffffffffffffffffffff1673ffffffffffffffffffffffffffffffffffffffff16815260200190815260200160002081905550808060010191505062002af1565b5080600e819055506003600660006101000a81548160ff0219169083600381111562002bbf57fe5b021790555050565b60008073ffffffffffffffffffffffffffffffffffffffff16600160009054906101000a900473ffffffffffffffffffffffffffffffffffffffff1673ffffffffffffffffffffffffffffffffffffffff16148062002c525750600062002c50600160009054906101000a900473ffffffffffffffffffffffffffffffffffffffff166200319e565b145b1562002c665762002c646000620031a9565b505b600160009054906101000a900473ffffffffffffffffffffffffffffffffffffffff1673ffffffffffffffffffffffffffffffffffffffff166338cc48316040518163ffffffff167c0100000000000000000000000000000000000000000000000000000000028152600401602060405180830381600087803b15801562002ced57600080fd5b505af115801562002d02573d6000803e3d6000fd5b505050506040513d602081101562002d1957600080fd5b810190808051906020019092919050505073ffffffffffffffffffffffffffffffffffffffff166000809054906101000a900473ffffffffffffffffffffffffffffffffffffffff1673ffffffffffffffffffffffffffffffffffffffff1614151562002e8457600160009054906101000a900473ffffffffffffffffffffffffffffffffffffffff1673ffffffffffffffffffffffffffffffffffffffff166338cc48316040518163ffffffff167c0100000000000000000000000000000000000000000000000000000000028152600401602060405180830381600087803b15801562002e0757600080fd5b505af115801562002e1c573d6000803e3d6000fd5b505050506040513d602081101562002e3357600080fd5b81019080805190602001909291905050506000806101000a81548173ffffffffffffffffffffffffffffffffffffffff021916908373ffffffffffffffffffffffffffffffffffffffff1602179055505b60008060009054906101000a900473ffffffffffffffffffffffffffffffffffffffff1673ffffffffffffffffffffffffffffffffffffffff1663524f3889856040518263ffffffff167c01000000000000000000000000000000000000000000000000000000000281526004018080602001828103825283818151815260200191508051906020019080838360005b8381101562002f3157808201518184015260208101905062002f14565b50505050905090810190601f16801562002f5f5780820380516001836020036101000a031916815260200191505b5092505050602060405180830381600087803b15801562002f7f57600080fd5b505af115801562002f94573d6000803e3d6000fd5b505050506040513d602081101562002fab57600080fd5b8101908080519060200190929190505050905062030d403a02670de0b6b3a76400000181111562002fe457600060010291505062003198565b6000809054906101000a900473ffffffffffffffffffffffffffffffffffffffff1673ffffffffffffffffffffffffffffffffffffffff1663adf59f9982600087876040518563ffffffff167c0100000000000000000000000000000000000000000000000000000000028152600401808481526020018060200180602001838103835285818151815260200191508051906020019080838360005b838110156200309d57808201518184015260208101905062003080565b50505050905090810190601f168015620030cb5780820380516001836020036101000a031916815260200191505b50838103825284818151815260200191508051906020019080838360005b8381101562003106578082015181840152602081019050620030e9565b50505050905090810190601f168015620031345780820380516001836020036101000a031916815260200191505b50955050505050506020604051808303818588803b1580156200315657600080fd5b505af11580156200316b573d6000803e3d6000fd5b50505050506040513d60208110156200318357600080fd5b81019080805190602001909291905050509150505b92915050565b6000813b9050919050565b6000620031b562003465565b9050919050565b600060608390506000809050600080905060008090505b8351811015620034455760308482815181101515620031ee57fe5b9060200101517f010000000000000000000000000000000000000000000000000000000000000090047f0100000000000000000000000000000000000000000000000000000000000000027f0100000000000000000000000000000000000000000000000000000000000000900460ff1610158015620032ee5750603984828151811015156200327a57fe5b9060200101517f010000000000000000000000000000000000000000000000000000000000000090047f0100000000000000000000000000000000000000000000000000000000000000027f0100000000000000000000000000000000000000000000000000000000000000900460ff1611155b15620033a8578115620033155760008614156200330b5762003445565b8580600190039650505b600a83029250603084828151811015156200332c57fe5b9060200101517f010000000000000000000000000000000000000000000000000000000000000090047f0100000000000000000000000000000000000000000000000000000000000000027f0100000000000000000000000000000000000000000000000000000000000000900460ff16038301925062003437565b602e8482815181101515620033b957fe5b9060200101517f010000000000000000000000000000000000000000000000000000000000000090047f0100000000000000000000000000000000000000000000000000000000000000027f0100000000000000000000000000000000000000000000000000000000000000900460ff1614156200343657600191505b5b8080600101915050620031d3565b506000851115620034595784600a0a820291505b81935050505092915050565b60008062003487731d3b2638a7cc9f2cb3d298a3da7a90b67e5506ed6200319e565b11156200352d57731d3b2638a7cc9f2cb3d298a3da7a90b67e5506ed600160006101000a81548173ffffffffffffffffffffffffffffffffffffffff021916908373ffffffffffffffffffffffffffffffffffffffff160217905550620035236040805190810160405280600b81526020017f6574685f6d61696e6e6574000000000000000000000000000000000000000000815250620039e6565b60019050620039e3565b60006200354e73c03a2615d5efaf5f49f60b7bb6583eaec212fdf16200319e565b1115620035f45773c03a2615d5efaf5f49f60b7bb6583eaec212fdf1600160006101000a81548173ffffffffffffffffffffffffffffffffffffffff021916908373ffffffffffffffffffffffffffffffffffffffff160217905550620035ea6040805190810160405280600c81526020017f6574685f726f707374656e330000000000000000000000000000000000000000815250620039e6565b60019050620039e3565b60006200361573b7a07bcf2ba2f2703b24c0691b5278999c59ac7e6200319e565b1115620036bb5773b7a07bcf2ba2f2703b24c0691b5278999c59ac7e600160006101000a81548173ffffffffffffffffffffffffffffffffffffffff021916908373ffffffffffffffffffffffffffffffffffffffff160217905550620036b16040805190810160405280600981526020017f6574685f6b6f76616e0000000000000000000000000000000000000000000000815250620039e6565b60019050620039e3565b6000620036dc73146500cfd35b22e4a392fe0adc06de1a1368ed486200319e565b1115620037825773146500cfd35b22e4a392fe0adc06de1a1368ed48600160006101000a81548173ffffffffffffffffffffffffffffffffffffffff021916908373ffffffffffffffffffffffffffffffffffffffff160217905550620037786040805190810160405280600b81526020017f6574685f72696e6b656279000000000000000000000000000000000000000000815250620039e6565b60019050620039e3565b6000620037a373a2998efd205fb9d4b4963afb70778d6354ad3a416200319e565b1115620038495773a2998efd205fb9d4b4963afb70778d6354ad3a41600160006101000a81548173ffffffffffffffffffffffffffffffffffffffff021916908373ffffffffffffffffffffffffffffffffffffffff1602179055506200383f6040805190810160405280600a81526020017f6574685f676f65726c6900000000000000000000000000000000000000000000815250620039e6565b60019050620039e3565b60006200386a736f485c8bf6fc43ea212e93bbf8ce046c7f1cb4756200319e565b1115620038d057736f485c8bf6fc43ea212e93bbf8ce046c7f1cb475600160006101000a81548173ffffffffffffffffffffffffffffffffffffffff021916908373ffffffffffffffffffffffffffffffffffffffff16021790555060019050620039e3565b6000620038f17320e12a1f859b3feae5fb2a0a32c18f5a65555bbf6200319e565b111562003957577320e12a1f859b3feae5fb2a0a32c18f5a65555bbf600160006101000a81548173ffffffffffffffffffffffffffffffffffffffff021916908373ffffffffffffffffffffffffffffffffffffffff16021790555060019050620039e3565b6000620039787351efaf4c8b3c9afbd5ab9f4bbc82784ab6ef8faa6200319e565b1115620039de577351efaf4c8b3c9afbd5ab9f4bbc82784ab6ef8faa600160006101000a81548173ffffffffffffffffffffffffffffffffffffffff021916908373ffffffffffffffffffffffffffffffffffffffff16021790555060019050620039e3565b600090505b90565b8060029080519060200190620039fe92919062003a13565b5050565b604051610fe68062003ac383390190565b828054600181600116156101000203166002900490600052602060002090601f016020900481019282601f1062003a5657805160ff191683800117855562003a87565b8280016001018555821562003a87579182015b8281111562003a8657825182559160200191906001019062003a69565b5b50905062003a96919062003a9a565b5090565b62003abf91905b8082111562003abb57600081600090555060010162003aa1565b5090565b9056fe60806040527ff3ec75cc015a7f458c242e37c292eef96c40cfb670ed8cff3bba27ee3301205b600055600260015560e06040519081016040528060bc8152602001610f2a60bc91396004908051906020019061005c9291906100e2565b50606060405190810160405280603181526020017f72657475726e206177616974206468496e73742e67656e657261746541422e6381526020017f616c6c2867656e41615b225f61225d293b000000000000000000000000000000815250600590805190602001906100cf9291906100e2565b503480156100dc57600080fd5b50610187565b828054600181600116156101000203166002900490600052602060002090601f016020900481019282601f1061012357805160ff1916838001178555610151565b82800160010185558215610151579182015b82811115610150578251825591602001919060010190610135565b5b50905061015e9190610162565b5090565b61018491905b80821115610180576000816000905550600101610168565b5090565b90565b610d94806101966000396000f3fe6080604052600436106100af576000357c0100000000000000000000000000000000000000000000000000000000900463ffffffff16806307da68f5146100b457806309cdcf9b146100cb5780632e7e36431461010657806332e7c5bf146101555780633f74a95e1461018057806352fef9bb146102105780635fca164b1461026b5780636fecb623146102fb5780638482e01c146103265780638b8fbd9214610406578063a34f8c9d14610431575b600080fd5b3480156100c057600080fd5b506100c961048a565b005b3480156100d757600080fd5b50610104600480360360208110156100ee57600080fd5b81019080803590602001909291905050506104a3565b005b34801561011257600080fd5b5061013f6004803603602081101561012957600080fd5b81019080803590602001909291905050506104ee565b6040518082815260200191505060405180910390f35b34801561016157600080fd5b5061016a61069d565b6040518082815260200191505060405180910390f35b34801561018c57600080fd5b506101956106a3565b6040518080602001828103825283818151815260200191508051906020019080838360005b838110156101d55780820151818401526020810190506101ba565b50505050905090810190601f1680156102025780820380516001836020036101000a031916815260200191505b509250505060405180910390f35b34801561021c57600080fd5b506102696004803603604081101561023357600080fd5b81019080803573ffffffffffffffffffffffffffffffffffffffff16906020019092919080359060200190929190505050610741565b005b34801561027757600080fd5b50610280610ac1565b6040518080602001828103825283818151815260200191508051906020019080838360005b838110156102c05780820151818401526020810190506102a5565b50505050905090810190601f1680156102ed5780820380516001836020036101000a031916815260200191505b509250505060405180910390f35b34801561030757600080fd5b50610310610b5f565b6040518082815260200191505060405180910390f35b34801561033257600080fd5b506103e96004803603602081101561034957600080fd5b810190808035906020019064010000000081111561036657600080fd5b82018360208201111561037857600080fd5b8035906020019184602083028401116401000000008311171561039a57600080fd5b919080806020026020016040519081016040528093929190818152602001838360200280828437600081840152601f19601f820116905080830192505050505050509192919290505050610b65565b604051808381526020018281526020019250505060405180910390f35b34801561041257600080fd5b5061041b610bff565b6040518082815260200191505060405180910390f35b34801561043d57600080fd5b506104746004803603604081101561045457600080fd5b810190808035906020019092919080359060200190929190505050610c05565b6040518082815260200191505060405180910390f35b3373ffffffffffffffffffffffffffffffffffffffff16ff5b33600360006101000a81548173ffffffffffffffffffffffffffffffffffffffff021916908373ffffffffffffffffffffffffffffffffffffffff1602179055508060028190555050565b60008073ffffffffffffffffffffffffffffffffffffffff16600360009054906101000a900473ffffffffffffffffffffffffffffffffffffffff1673ffffffffffffffffffffffffffffffffffffffff16141515156105dc576040517f08c379a000000000000000000000000000000000000000000000000000000000815260040180806020018281038252602d8152602001807f4f7468657220536d61727444696666696548656c6c6d616e20636f6e7472616381526020017f7420756e61737369676e65642e0000000000000000000000000000000000000081525060400191505060405180910390fd5b60006002541415151561067d576040517f08c379a00000000000000000000000000000000000000000000000000000000081526004018080602001828103825260378152602001807f4220686173206e6f74206265656e207472616e736d6974746564206279206f7481526020017f68657220536d61727444696666696548656c6c6d616e2e00000000000000000081525060400191505060405180910390fd5b61069682600054600254610c269092919063ffffffff16565b9050919050565b60025481565b60058054600181600116156101000203166002900480601f0160208091040260200160405190810160405280929190818152602001828054600181600116156101000203166002900480156107395780601f1061070e57610100808354040283529160200191610739565b820191906000526020600020905b81548152906001019060200180831161071c57829003601f168201915b505050505081565b600073ffffffffffffffffffffffffffffffffffffffff168273ffffffffffffffffffffffffffffffffffffffff161415151561080c576040517f08c379a000000000000000000000000000000000000000000000000000000000815260040180806020018281038252602d8152602001807f4f7468657220536d61727444696666696548656c6c6d616e20636f6e7472616381526020017f7420756e61737369676e65642e0000000000000000000000000000000000000081525060400191505060405180910390fd5b8173ffffffffffffffffffffffffffffffffffffffff16638b8fbd926040518163ffffffff167c010000000000000000000000000000000000000000000000000000000002815260040160206040518083038186803b15801561086e57600080fd5b505afa158015610882573d6000803e3d6000fd5b505050506040513d602081101561089857600080fd5b8101908080519060200190929190505050600054141515610921576040517f08c379a00000000000000000000000000000000000000000000000000000000081526004018080602001828103825260138152602001807f5072696d6520697320646966666572656e742e0000000000000000000000000081525060200191505060405180910390fd5b8173ffffffffffffffffffffffffffffffffffffffff16636fecb6236040518163ffffffff167c010000000000000000000000000000000000000000000000000000000002815260040160206040518083038186803b15801561098357600080fd5b505afa158015610997573d6000803e3d6000fd5b505050506040513d60208110156109ad57600080fd5b8101908080519060200190929190505050600154141515610a36576040517f08c379a00000000000000000000000000000000000000000000000000000000081526004018080602001828103825260128152602001807f526f6f7420697320646966666572656e742e000000000000000000000000000081525060200191505060405180910390fd5b8173ffffffffffffffffffffffffffffffffffffffff166309cdcf9b826040518263ffffffff167c010000000000000000000000000000000000000000000000000000000002815260040180828152602001915050600060405180830381600087803b158015610aa557600080fd5b505af1158015610ab9573d6000803e3d6000fd5b505050505050565b60048054600181600116156101000203166002900480601f016020809104026020016040519081016040528092919081815260200182805460018160011615610100020316600290048015610b575780601f10610b2c57610100808354040283529160200191610b57565b820191906000526020600020905b815481529060010190602001808311610b3a57829003601f168201915b505050505081565b60015481565b6000806000805414151515610b7657fe5b600060015414151515610b8557fe5b8260405160200180828051906020019060200280838360005b83811015610bb9578082015181840152602081019050610b9e565b5050505090500191505060405160208183030381529060405280519060200120600190049150610bf882600054600154610c269092919063ffffffff16565b9050915091565b60005481565b6000610c1e8360005484610c269092919063ffffffff16565b905092915050565b600080610c31610d22565b610c39610d45565b6020816000600681101515610c4a57fe5b6020020181815250506020816001600681101515610c6457fe5b6020020181815250506020816002600681101515610c7e57fe5b60200201818152505086816003600681101515610c9757fe5b60200201818152505085816004600681101515610cb057fe5b60200201818152505084816005600681101515610cc957fe5b60200201818152505060208260c08360056107d05a03fa92508260008114610cf057610cf5565b600080fd5b50821515610d0257600080fd5b816000600181101515610d1157fe5b602002015193505050509392505050565b602060405190810160405280600190602082028038833980820191505090505090565b60c06040519081016040528060069060208202803883398082019150509050509056fea165627a7a72305820cef41fa7a93ebb9f158998de3437ac31acb48e4c707ecb3d2fdaef73bdcb7b8800296c65742072616e646f6d203d205b2e2e2e4172726179283332295d2e6d6170282829203d3e207061727365496e74284d6174682e72616e646f6d2829202a2032353529293b206c65742067656e4161203d206177616974206468496e7374312e67656e6572617465412e63616c6c2872616e646f6d293b206177616974206468496e7374312e7472616e736d697441286468496e7374322e616464726573732c2067656e41615b225f41225d293b2072657475726e2067656e41613ba165627a7a72305820ed7b78232b6a7bc51206c65a279dbcc1b38d96e2526dd1c98a1ae3dbdf4275a60029",
  "source": "pragma solidity >=0.5.0 <0.7.0;\n\nimport \"./provableAPI.sol\";\nimport \"./SmartDiffieHellman.sol\";\n\ncontract ShuffleAndRoundRobin is usingProvable {\n\n    // provableAPI\n    uint public provableRandomNumber;\n\n    // 0. Contract state\n    enum State { Register, Commit, Reveal, Vote }\n    State public state = State.Register;\n\n    // 1. Register all accounts\n    address[] public registered;\n    mapping(address => bool) public isRegistered; // only allow registration once\n\n    // 2. Commit Reveal\n    mapping(address => bytes32) public commits;\n    mapping(address => string) public reveals;\n\n    // seed from owner\n    bytes32 public seedCommit;\n    string public seedReveal;\n\n    // 3. distribute accounts in round robin\n    mapping(address => uint256) public groups;\n    uint256 public numberOfGroups;\n\n    // 4. shuffle the accounts\n    address[] public shuffled;\n    mapping(address => bool) isShuffled;\n\n    // only the contract owner can start distribution and selfdestruct the contract\n    address payable owner = msg.sender;\n\n    // debugging events\n    event randomNr(uint256 indexed _rand, bool indexed _accepted);\n    event distributed(address indexed _address, uint256 indexed _group);\n    event LogNewRandomNumber(string randomNumber);\n    event LogNewProvableQuery(string description);\n\n    constructor() public {\n        OAR = OracleAddrResolverI(0x864b12a155Db678F6033A963bC2e1c35B8cEbFda);\n    }\n\n    function __callback(bytes32 myid, string memory result) public\n    {\n        require(msg.sender == provable_cbAddress());\n        emit LogNewRandomNumber(result);\n        provableRandomNumber = parseInt(result);\n    }\n\n    function getProvableRandomNumber() public payable\n    {\n        require(msg.sender == owner, 'Only the owner can get a random number from provable');\n        emit LogNewProvableQuery(\"Provable query was sent, standing by for the answer...\");\n        provable_query(\"URL\", \"https://www.random.org/integers/?num=1&min=1&max=1000000000&col=1&base=10&format=plain&rnd=new\");\n    }\n\n    // ======= 1. =======\n    function register() public {\n        require(state == State.Register);\n        require(!isRegistered[msg.sender]);\n\n        isRegistered[msg.sender] = true;\n        registered.push(msg.sender);\n    }\n\n    // ======= 2.1 =======\n    function startCommitPhase(bytes32 _seedCommit) public {\n        require(state == State.Register, 'Must be in registration phase');\n        require(msg.sender == owner, 'Only the owner can start the commit phase');\n        require(_seedCommit.length > 0, 'The seed is not good enough');\n\n        state = State.Commit;\n\n        seedCommit = _seedCommit;\n    }\n\n    // ======= 2.2 =======\n    function startRevealPhase(string memory _seedReveal) public {\n        require(state == State.Commit, 'Must be in commit phase');\n        require(msg.sender == owner, 'Only the owner can start the reveal phase');\n\n        state = State.Reveal;\n\n        bytes32 hash = keccak256(bytes(_seedReveal));\n\n        require(hash == seedCommit, 'Seed from owner does not match the commit');\n\n        seedReveal = _seedReveal;\n    }\n\n    // ======= 2.3 =======\n    function commit(bytes32 _hash) public {\n        require(isRegistered[msg.sender], 'Voter not registered');\n        require(state == State.Commit, 'Must be in commit phase');\n\n        commits[msg.sender] = _hash;\n    }\n\n    // ======= 2.4 =======\n    function reveal(string memory _secret) public {\n        require(isRegistered[msg.sender], 'Voter not registered');\n        require(state == State.Reveal, 'Must be in reveal phase');\n\n        bytes32 hash = keccak256(bytes(_secret));\n\n        require(hash == commits[msg.sender], 'reveal does not match commit');\n\n        reveals[msg.sender] = _secret;\n    }\n\n    // ======= 3. =======\n    function distribute(uint256 _groups) public {\n        require(msg.sender == owner);\n        require(provableRandomNumber > 0, 'Random number from provable must exist');\n        require(state == State.Reveal, 'Must be in reveal phase');\n        require(_groups > 1, 'There must be more than 1 group');\n        require(bytes(seedReveal).length > 0, 'No seed from owner found');\n        require(registered.length > 0, 'There are no registered voters');\n\n        shuffle(uint256(keccak256(abi.encodePacked(seedReveal))));\n        roundRobin(_groups);\n\n        state = State.Vote;\n\n        for(uint256 i = 0; i < registered.length; i++) {\n            address addr = registered[i];\n            uint256 group = groups[addr];\n\n            emit distributed(addr, group);\n        }\n    }\n\n    // ======= 4. =======\n    function shuffle(uint256 _seed) private {\n        require(msg.sender == owner);\n\n        // prevBlockHash\n        uint256 prevBlockHash = uint256(blockhash(block.number - 1));\n\n        uint256 allReveals;\n        // reveals\n        for(uint256 i = 0; i < registered.length; i++) {\n            allReveals += uint256(keccak256(abi.encodePacked(reveals[msg.sender])));\n        }\n\n        uint256 prevRand = 1;\n\n        for(uint256 i = 0; i < registered.length; i++) {\n            uint256 rand;\n            uint256 randPosition;\n\n            // search for a registered address which has not been shuffled\n            do {\n                // values from Java's java.util.Random, POSIX [ln]rand48, glibc [ln]rand48[_r],\n                // see https://en.wikipedia.org/wiki/Linear_congruential_generator#Parameters_in_common_use\n                rand = (prevRand * 25214903917 + 11) % (2 ** 48);\n                prevRand = rand;\n\n                // last block hash\n                randPosition = rand + prevBlockHash;\n                // seed from owner\n                randPosition += _seed;\n                // reveals from voters\n                randPosition += allReveals;\n                // timestamp of current block\n                randPosition += now;\n                // random number from provable\n                randPosition += provableRandomNumber;\n\n                // find a position in the mapping\n                randPosition = randPosition % registered.length;\n\n                emit randomNr(randPosition, !isShuffled[registered[randPosition]]);\n            } while(isShuffled[registered[randPosition]]);\n\n            isShuffled[registered[randPosition]] = true;\n\n            shuffled.push(registered[randPosition]);\n        }\n    }\n\n    function roundRobin(uint256 _groups) private {\n        require(msg.sender == owner);\n\n        for(uint256 i = 0; i < shuffled.length; i++) {\n            groups[registered[i]] = i % _groups;\n        }\n\n        numberOfGroups = _groups;\n        state = State.Vote;\n    }\n\n    // ========== smartDHX ===========\n    SmartDiffieHellman[] public smartDHXs;\n\n    function numberOfNeededSmartDHXs() private view returns (uint256 _count) {\n        uint256 groupSize = registered.length / numberOfGroups;\n        uint256 smartDHXCountPerGroup = (groupSize / 2) * (groupSize - 1);\n        _count = smartDHXCountPerGroup * groupSize;\n    }\n\n    function deploySmartDHX() public {\n        require(msg.sender == owner);\n        require(state == State.Vote);\n\n        uint256 smartDHXCountTotal = numberOfNeededSmartDHXs();\n\n        require(smartDHXs.length < smartDHXCountTotal, 'All smartDHXs have been deployed already.');\n\n        SmartDiffieHellman smartDHX = new SmartDiffieHellman();\n        smartDHXs.push(smartDHX);\n    }\n\n    function stop() public {\n        require(msg.sender == owner);\n        selfdestruct(msg.sender);\n    }\n}",
  "sourcePath": "/Users/florens/Documents/Master/Master Thesis/grouping/contracts/ShuffleAndRoundRobin.sol",
  "compiler": {
    "name": "solc",
    "version": "0.5.0+commit.1d4f565a.Emscripten.clang"
  },
  "schemaVersion": "3.0.9",
  "updatedAt": "2020-05-21T11:05:47.165Z",
  "devdoc": {
    "methods": {}
  },
  "userdoc": {
    "methods": {}
  }
}