{
  "contractName": "ShuffleAndRoundRobin",
  "abi": [
    {
      "constant": true,
      "inputs": [],
      "name": "seedCommit",
      "outputs": [
        {
          "name": "",
          "type": "bytes32"
        }
      ],
      "payable": false,
      "stateMutability": "view",
      "type": "function"
    },
    {
      "constant": true,
      "inputs": [],
      "name": "provableRandomNumber",
      "outputs": [
        {
          "name": "",
          "type": "uint256"
        }
      ],
      "payable": false,
      "stateMutability": "view",
      "type": "function"
    },
    {
      "constant": true,
      "inputs": [
        {
          "name": "",
          "type": "uint256"
        }
      ],
      "name": "shuffled",
      "outputs": [
        {
          "name": "",
          "type": "address"
        }
      ],
      "payable": false,
      "stateMutability": "view",
      "type": "function"
    },
    {
      "constant": true,
      "inputs": [
        {
          "name": "",
          "type": "address"
        },
        {
          "name": "",
          "type": "uint256"
        }
      ],
      "name": "groupTotals",
      "outputs": [
        {
          "name": "",
          "type": "uint256"
        }
      ],
      "payable": false,
      "stateMutability": "view",
      "type": "function"
    },
    {
      "constant": true,
      "inputs": [
        {
          "name": "",
          "type": "uint256"
        }
      ],
      "name": "totalCounts",
      "outputs": [
        {
          "name": "",
          "type": "uint256"
        }
      ],
      "payable": false,
      "stateMutability": "view",
      "type": "function"
    },
    {
      "constant": true,
      "inputs": [
        {
          "name": "",
          "type": "address"
        }
      ],
      "name": "groups",
      "outputs": [
        {
          "name": "",
          "type": "uint256"
        }
      ],
      "payable": false,
      "stateMutability": "view",
      "type": "function"
    },
    {
      "constant": true,
      "inputs": [],
      "name": "seedReveal",
      "outputs": [
        {
          "name": "",
          "type": "string"
        }
      ],
      "payable": false,
      "stateMutability": "view",
      "type": "function"
    },
    {
      "constant": true,
      "inputs": [
        {
          "name": "",
          "type": "address"
        }
      ],
      "name": "commits",
      "outputs": [
        {
          "name": "",
          "type": "bytes32"
        }
      ],
      "payable": false,
      "stateMutability": "view",
      "type": "function"
    },
    {
      "constant": true,
      "inputs": [],
      "name": "numberOfGroups",
      "outputs": [
        {
          "name": "",
          "type": "uint256"
        }
      ],
      "payable": false,
      "stateMutability": "view",
      "type": "function"
    },
    {
      "constant": true,
      "inputs": [
        {
          "name": "",
          "type": "address"
        }
      ],
      "name": "reveals",
      "outputs": [
        {
          "name": "",
          "type": "string"
        }
      ],
      "payable": false,
      "stateMutability": "view",
      "type": "function"
    },
    {
      "constant": true,
      "inputs": [],
      "name": "state",
      "outputs": [
        {
          "name": "",
          "type": "uint8"
        }
      ],
      "payable": false,
      "stateMutability": "view",
      "type": "function"
    },
    {
      "constant": true,
      "inputs": [
        {
          "name": "",
          "type": "bytes32"
        }
      ],
      "name": "smartDHXs",
      "outputs": [
        {
          "name": "",
          "type": "address"
        }
      ],
      "payable": false,
      "stateMutability": "view",
      "type": "function"
    },
    {
      "constant": true,
      "inputs": [
        {
          "name": "",
          "type": "address"
        }
      ],
      "name": "isRegistered",
      "outputs": [
        {
          "name": "",
          "type": "bool"
        }
      ],
      "payable": false,
      "stateMutability": "view",
      "type": "function"
    },
    {
      "constant": true,
      "inputs": [
        {
          "name": "",
          "type": "address"
        },
        {
          "name": "",
          "type": "address"
        }
      ],
      "name": "votes",
      "outputs": [
        {
          "name": "",
          "type": "string"
        }
      ],
      "payable": false,
      "stateMutability": "view",
      "type": "function"
    },
    {
      "constant": true,
      "inputs": [
        {
          "name": "",
          "type": "uint256"
        }
      ],
      "name": "votingOptions",
      "outputs": [
        {
          "name": "",
          "type": "uint256"
        }
      ],
      "payable": false,
      "stateMutability": "view",
      "type": "function"
    },
    {
      "constant": true,
      "inputs": [
        {
          "name": "",
          "type": "uint256"
        }
      ],
      "name": "registered",
      "outputs": [
        {
          "name": "",
          "type": "address"
        }
      ],
      "payable": false,
      "stateMutability": "view",
      "type": "function"
    },
    {
      "inputs": [],
      "payable": false,
      "stateMutability": "nonpayable",
      "type": "constructor"
    },
    {
      "anonymous": false,
      "inputs": [
        {
          "indexed": true,
          "name": "_rand",
          "type": "uint256"
        },
        {
          "indexed": true,
          "name": "_accepted",
          "type": "bool"
        }
      ],
      "name": "randomNr",
      "type": "event"
    },
    {
      "anonymous": false,
      "inputs": [
        {
          "indexed": true,
          "name": "_address",
          "type": "address"
        },
        {
          "indexed": true,
          "name": "_group",
          "type": "uint256"
        }
      ],
      "name": "distributed",
      "type": "event"
    },
    {
      "anonymous": false,
      "inputs": [
        {
          "indexed": false,
          "name": "randomNumber",
          "type": "string"
        }
      ],
      "name": "LogNewRandomNumber",
      "type": "event"
    },
    {
      "anonymous": false,
      "inputs": [
        {
          "indexed": false,
          "name": "description",
          "type": "string"
        }
      ],
      "name": "LogNewProvableQuery",
      "type": "event"
    },
    {
      "constant": false,
      "inputs": [
        {
          "name": "myid",
          "type": "bytes32"
        },
        {
          "name": "result",
          "type": "string"
        }
      ],
      "name": "__callback",
      "outputs": [],
      "payable": false,
      "stateMutability": "nonpayable",
      "type": "function"
    },
    {
      "constant": false,
      "inputs": [
        {
          "name": "_myid",
          "type": "bytes32"
        },
        {
          "name": "_result",
          "type": "string"
        },
        {
          "name": "_proof",
          "type": "bytes"
        }
      ],
      "name": "__callback",
      "outputs": [],
      "payable": false,
      "stateMutability": "nonpayable",
      "type": "function"
    },
    {
      "constant": false,
      "inputs": [],
      "name": "getProvableRandomNumber",
      "outputs": [],
      "payable": true,
      "stateMutability": "payable",
      "type": "function"
    },
    {
      "constant": false,
      "inputs": [
        {
          "name": "_votingOptions",
          "type": "uint256[]"
        }
      ],
      "name": "setVotingOptions",
      "outputs": [],
      "payable": false,
      "stateMutability": "nonpayable",
      "type": "function"
    },
    {
      "constant": false,
      "inputs": [],
      "name": "register",
      "outputs": [],
      "payable": false,
      "stateMutability": "nonpayable",
      "type": "function"
    },
    {
      "constant": false,
      "inputs": [
        {
          "name": "_seedCommit",
          "type": "bytes32"
        }
      ],
      "name": "startCommitPhase",
      "outputs": [],
      "payable": false,
      "stateMutability": "nonpayable",
      "type": "function"
    },
    {
      "constant": false,
      "inputs": [
        {
          "name": "_seedReveal",
          "type": "string"
        }
      ],
      "name": "startRevealPhase",
      "outputs": [],
      "payable": false,
      "stateMutability": "nonpayable",
      "type": "function"
    },
    {
      "constant": false,
      "inputs": [
        {
          "name": "_hash",
          "type": "bytes32"
        }
      ],
      "name": "commit",
      "outputs": [],
      "payable": false,
      "stateMutability": "nonpayable",
      "type": "function"
    },
    {
      "constant": false,
      "inputs": [
        {
          "name": "_secret",
          "type": "string"
        }
      ],
      "name": "reveal",
      "outputs": [],
      "payable": false,
      "stateMutability": "nonpayable",
      "type": "function"
    },
    {
      "constant": false,
      "inputs": [
        {
          "name": "_groups",
          "type": "uint256"
        }
      ],
      "name": "distribute",
      "outputs": [],
      "payable": false,
      "stateMutability": "nonpayable",
      "type": "function"
    },
    {
      "constant": true,
      "inputs": [
        {
          "name": "_first",
          "type": "address"
        },
        {
          "name": "_second",
          "type": "address"
        }
      ],
      "name": "getEdgeKey",
      "outputs": [
        {
          "name": "_edgeKey",
          "type": "bytes32"
        }
      ],
      "payable": false,
      "stateMutability": "pure",
      "type": "function"
    },
    {
      "constant": false,
      "inputs": [
        {
          "name": "_first",
          "type": "address"
        },
        {
          "name": "_second",
          "type": "address"
        }
      ],
      "name": "deploySmartDHX",
      "outputs": [],
      "payable": false,
      "stateMutability": "nonpayable",
      "type": "function"
    },
    {
      "constant": false,
      "inputs": [
        {
          "name": "_vote",
          "type": "string"
        },
        {
          "name": "_to",
          "type": "address"
        }
      ],
      "name": "sendVote",
      "outputs": [],
      "payable": false,
      "stateMutability": "nonpayable",
      "type": "function"
    },
    {
      "constant": false,
      "inputs": [
        {
          "name": "_groupTotals",
          "type": "uint256[]"
        }
      ],
      "name": "broadcastGroupTotalVotes",
      "outputs": [],
      "payable": false,
      "stateMutability": "nonpayable",
      "type": "function"
    },
    {
      "constant": false,
      "inputs": [],
      "name": "calculateTotals",
      "outputs": [],
      "payable": false,
      "stateMutability": "nonpayable",
      "type": "function"
    },
    {
      "constant": false,
      "inputs": [],
      "name": "stop",
      "outputs": [],
      "payable": false,
      "stateMutability": "nonpayable",
      "type": "function"
    }
  ],
  "bytecode": "0x60806040526000600660006101000a81548160ff0219169083600481111561002357fe5b021790555033601160006101000a81548173ffffffffffffffffffffffffffffffffffffffff021916908373ffffffffffffffffffffffffffffffffffffffff16021790555034801561007557600080fd5b50738d0be561aa14bc084174cdcae822f4724ae51ab8600160006101000a81548173ffffffffffffffffffffffffffffffffffffffff021916908373ffffffffffffffffffffffffffffffffffffffff160217905550615c7a80620000db6000396000f3fe608060405260043610620001b7576000357c0100000000000000000000000000000000000000000000000000000000900463ffffffff16806307da68f514620001bc57806314e22df814620001d65780631aa3a00814620002c557806323939c6714620002df57806326cef7d7146200030d57806327dc297e146200033b5780632f1eddae146200041457806338bbfa5014620004e05780633be675d3146200065357806348a9e4e0146200066d5780634c26124714620006ec5780635a2431ab14620007bb57806361f7b12e146200082e57806363d5e44d14620008815780636a7c557114620008ea5780637b43a8e614620009805780638f36f02d14620009e95780638f4a5e161462000a7257806391c05b0b1462000ae75780639e7186db1462000b26578063b60baacb1462000b32578063bf9524961462000b71578063bff3e1ba1462000b9f578063c19d93fb1462000c70578063c214b1f71462000cad578063c3c5a5471462000d2c578063cad1b9061462000d99578063d8ea86ac1462000e8a578063dff67f6b1462000f56578063e6cf13461462000fa9578063f14fcbc81462001028578063f2ea38cb1462001067575b600080fd5b348015620001c957600080fd5b50620001d462001136565b005b348015620001e357600080fd5b50620002c360048036036040811015620001fc57600080fd5b81019080803590602001906401000000008111156200021a57600080fd5b8201836020820111156200022d57600080fd5b803590602001918460018302840111640100000000831117156200025057600080fd5b91908080601f016020809104026020016040519081016040528093929190818152602001838380828437600081840152601f19601f820116905080830192505050505050509192919290803573ffffffffffffffffffffffffffffffffffffffff169060200190929190505050620011ac565b005b348015620002d257600080fd5b50620002dd620013eb565b005b348015620002ec57600080fd5b50620002f76200160e565b6040518082815260200191505060405180910390f35b3480156200031a57600080fd5b506200032562001614565b6040518082815260200191505060405180910390f35b3480156200034857600080fd5b5062000412600480360360408110156200036157600080fd5b8101908080359060200190929190803590602001906401000000008111156200038957600080fd5b8201836020820111156200039c57600080fd5b80359060200191846001830284011164010000000083111715620003bf57600080fd5b91908080601f016020809104026020016040519081016040528093929190818152602001838380828437600081840152601f19601f8201169050808301925050505050505091929192905050506200161a565b005b3480156200042157600080fd5b50620004de600480360360208110156200043a57600080fd5b81019080803590602001906401000000008111156200045857600080fd5b8201836020820111156200046b57600080fd5b803590602001918460208302840111640100000000831117156200048e57600080fd5b919080806020026020016040519081016040528093929190818152602001838360200280828437600081840152601f19601f82011690508083019250505050505050919291929050505062001712565b005b348015620004ed57600080fd5b5062000651600480360360608110156200050657600080fd5b8101908080359060200190929190803590602001906401000000008111156200052e57600080fd5b8201836020820111156200054157600080fd5b803590602001918460018302840111640100000000831117156200056457600080fd5b91908080601f016020809104026020016040519081016040528093929190818152602001838380828437600081840152601f19601f82011690508083019250505050505050919291929080359060200190640100000000811115620005c857600080fd5b820183602082011115620005db57600080fd5b80359060200191846001830284011164010000000083111715620005fe57600080fd5b91908080601f016020809104026020016040519081016040528093929190818152602001838380828437600081840152601f19601f82011690508083019250505050505050919291929050505062001959565b005b3480156200066057600080fd5b506200066b6200197d565b005b3480156200067a57600080fd5b50620006aa600480360360208110156200069357600080fd5b810190808035906020019092919050505062001c20565b604051808273ffffffffffffffffffffffffffffffffffffffff1673ffffffffffffffffffffffffffffffffffffffff16815260200191505060405180910390f35b348015620006f957600080fd5b50620007b9600480360360208110156200071257600080fd5b81019080803590602001906401000000008111156200073057600080fd5b8201836020820111156200074357600080fd5b803590602001918460018302840111640100000000831117156200076657600080fd5b91908080601f016020809104026020016040519081016040528093929190818152602001838380828437600081840152601f19601f82011690508083019250505050505050919291929050505062001c5f565b005b348015620007c857600080fd5b506200081860048036036040811015620007e157600080fd5b81019080803573ffffffffffffffffffffffffffffffffffffffff1690602001909291908035906020019092919050505062001ede565b6040518082815260200191505060405180910390f35b3480156200083b57600080fd5b506200086b600480360360208110156200085457600080fd5b810190808035906020019092919050505062001f0f565b6040518082815260200191505060405180910390f35b3480156200088e57600080fd5b50620008d460048036036020811015620008a757600080fd5b81019080803573ffffffffffffffffffffffffffffffffffffffff16906020019092919050505062001f33565b6040518082815260200191505060405180910390f35b348015620008f757600080fd5b506200090262001f4b565b6040518080602001828103825283818151815260200191508051906020019080838360005b838110156200094457808201518184015260208101905062000927565b50505050905090810190601f168015620009725780820380516001836020036101000a031916815260200191505b509250505060405180910390f35b3480156200098d57600080fd5b50620009d360048036036020811015620009a657600080fd5b81019080803573ffffffffffffffffffffffffffffffffffffffff16906020019092919050505062001fed565b6040518082815260200191505060405180910390f35b348015620009f657600080fd5b5062000a5c6004803603604081101562000a0f57600080fd5b81019080803573ffffffffffffffffffffffffffffffffffffffff169060200190929190803573ffffffffffffffffffffffffffffffffffffffff16906020019092919050505062002005565b6040518082815260200191505060405180910390f35b34801562000a7f57600080fd5b5062000ae56004803603604081101562000a9857600080fd5b81019080803573ffffffffffffffffffffffffffffffffffffffff169060200190929190803573ffffffffffffffffffffffffffffffffffffffff169060200190929190505050620020b4565b005b34801562000af457600080fd5b5062000b246004803603602081101562000b0d57600080fd5b81019080803590602001909291905050506200226b565b005b62000b306200273b565b005b34801562000b3f57600080fd5b5062000b6f6004803603602081101562000b5857600080fd5b81019080803590602001909291905050506200297b565b005b34801562000b7e57600080fd5b5062000b8962002bb3565b6040518082815260200191505060405180910390f35b34801562000bac57600080fd5b5062000bf26004803603602081101562000bc557600080fd5b81019080803573ffffffffffffffffffffffffffffffffffffffff16906020019092919050505062002bb9565b6040518080602001828103825283818151815260200191508051906020019080838360005b8381101562000c3457808201518184015260208101905062000c17565b50505050905090810190601f16801562000c625780820380516001836020036101000a031916815260200191505b509250505060405180910390f35b34801562000c7d57600080fd5b5062000c8862002c6d565b6040518082600481111562000c9957fe5b60ff16815260200191505060405180910390f35b34801562000cba57600080fd5b5062000cea6004803603602081101562000cd357600080fd5b810190808035906020019092919050505062002c80565b604051808273ffffffffffffffffffffffffffffffffffffffff1673ffffffffffffffffffffffffffffffffffffffff16815260200191505060405180910390f35b34801562000d3957600080fd5b5062000d7f6004803603602081101562000d5257600080fd5b81019080803573ffffffffffffffffffffffffffffffffffffffff16906020019092919050505062002cb3565b604051808215151515815260200191505060405180910390f35b34801562000da657600080fd5b5062000e0c6004803603604081101562000dbf57600080fd5b81019080803573ffffffffffffffffffffffffffffffffffffffff169060200190929190803573ffffffffffffffffffffffffffffffffffffffff16906020019092919050505062002cd3565b6040518080602001828103825283818151815260200191508051906020019080838360005b8381101562000e4e57808201518184015260208101905062000e31565b50505050905090810190601f16801562000e7c5780820380516001836020036101000a031916815260200191505b509250505060405180910390f35b34801562000e9757600080fd5b5062000f546004803603602081101562000eb057600080fd5b810190808035906020019064010000000081111562000ece57600080fd5b82018360208201111562000ee157600080fd5b8035906020019184602083028401116401000000008311171562000f0457600080fd5b919080806020026020016040519081016040528093929190818152602001838360200280828437600081840152601f19601f82011690508083019250505050505050919291929050505062002d94565b005b34801562000f6357600080fd5b5062000f936004803603602081101562000f7c57600080fd5b810190808035906020019092919050505062002f72565b6040518082815260200191505060405180910390f35b34801562000fb657600080fd5b5062000fe66004803603602081101562000fcf57600080fd5b810190808035906020019092919050505062002f96565b604051808273ffffffffffffffffffffffffffffffffffffffff1673ffffffffffffffffffffffffffffffffffffffff16815260200191505060405180910390f35b3480156200103557600080fd5b5062001065600480360360208110156200104e57600080fd5b810190808035906020019092919050505062002fd5565b005b3480156200107457600080fd5b5062001134600480360360208110156200108d57600080fd5b8101908080359060200190640100000000811115620010ab57600080fd5b820183602082011115620010be57600080fd5b80359060200191846001830284011164010000000083111715620010e157600080fd5b91908080601f016020809104026020016040519081016040528093929190818152602001838380828437600081840152601f19601f8201169050808301925050505050505091929192905050506200317e565b005b601160009054906101000a900473ffffffffffffffffffffffffffffffffffffffff1673ffffffffffffffffffffffffffffffffffffffff163373ffffffffffffffffffffffffffffffffffffffff161415156200119357600080fd5b3373ffffffffffffffffffffffffffffffffffffffff16ff5b600480811115620011b957fe5b600660009054906101000a900460ff166004811115620011d557fe5b1415156200124b576040517f08c379a00000000000000000000000000000000000000000000000000000000081526004018080602001828103825260138152602001807f4e6f7420696e20766f74696e672073746174650000000000000000000000000081525060200191505060405180910390fd5b6000601360003373ffffffffffffffffffffffffffffffffffffffff1673ffffffffffffffffffffffffffffffffffffffff16815260200190815260200160002060008373ffffffffffffffffffffffffffffffffffffffff1673ffffffffffffffffffffffffffffffffffffffff16815260200190815260200160002080546001816001161561010002031660029004905014151562001354576040517f08c379a00000000000000000000000000000000000000000000000000000000081526004018080602001828103825260158152602001807f566f74652077617320616c72656164792073656e74000000000000000000000081525060200191505060405180910390fd5b81601360003373ffffffffffffffffffffffffffffffffffffffff1673ffffffffffffffffffffffffffffffffffffffff16815260200190815260200160002060008373ffffffffffffffffffffffffffffffffffffffff1673ffffffffffffffffffffffffffffffffffffffff1681526020019081526020016000209080519060200190620013e692919062004b56565b505050565b60016004811115620013f957fe5b600660009054906101000a900460ff1660048111156200141557fe5b1415156200148b576040517f08c379a00000000000000000000000000000000000000000000000000000000081526004018080602001828103825260158152602001807f4e6f7420696e207374617465205265676973746572000000000000000000000081525060200191505060405180910390fd5b600860003373ffffffffffffffffffffffffffffffffffffffff1673ffffffffffffffffffffffffffffffffffffffff16815260200190815260200160002060009054906101000a900460ff161515156200154e576040517f08c379a00000000000000000000000000000000000000000000000000000000081526004018080602001828103825260128152602001807f416c72656164792072656769737465726564000000000000000000000000000081525060200191505060405180910390fd5b6001600860003373ffffffffffffffffffffffffffffffffffffffff1673ffffffffffffffffffffffffffffffffffffffff16815260200190815260200160002060006101000a81548160ff02191690831515021790555060073390806001815401808255809150509060018203906000526020600020016000909192909190916101000a81548173ffffffffffffffffffffffffffffffffffffffff021916908373ffffffffffffffffffffffffffffffffffffffff16021790555050565b600b5481565b60055481565b62001624620033f8565b73ffffffffffffffffffffffffffffffffffffffff163373ffffffffffffffffffffffffffffffffffffffff161415156200165e57600080fd5b7f067c40d9272b02fb8e9bfe6a064b465504d8f549abce9d58121baec5ffaecae1816040518080602001828103825283818151815260200191508051906020019080838360005b83811015620016c2578082015181840152602081019050620016a5565b50505050905090810190601f168015620016f05780820380516001836020036101000a031916815260200191505b509250505060405180910390a162001708816200377b565b6005819055505050565b601160009054906101000a900473ffffffffffffffffffffffffffffffffffffffff1673ffffffffffffffffffffffffffffffffffffffff163373ffffffffffffffffffffffffffffffffffffffff16141515620017d8576040517f08c379a00000000000000000000000000000000000000000000000000000000081526004018080602001828103825260148152602001807f53656e646572206d757374206265206f776e657200000000000000000000000081525060200191505060405180910390fd5b6001815111151562001878576040517f08c379a00000000000000000000000000000000000000000000000000000000081526004018080602001828103825260298152602001807f5468657265206d757374206265206174206c656173742074776f20766f74696e81526020017f67206f7074696f6e73000000000000000000000000000000000000000000000081525060400191505060405180910390fd5b600060048111156200188657fe5b600660009054906101000a900460ff166004811115620018a257fe5b14151562001918576040517f08c379a00000000000000000000000000000000000000000000000000000000081526004018080602001828103825260128152602001807f5374617465206d75737420626520496e6974000000000000000000000000000081525060200191505060405180910390fd5b6001600660006101000a81548160ff021916908360048111156200193857fe5b021790555080601290805190602001906200195592919062004bdd565b5050565b60006001026003600080600102815260200190815260200160002081905550505050565b601160009054906101000a900473ffffffffffffffffffffffffffffffffffffffff1673ffffffffffffffffffffffffffffffffffffffff163373ffffffffffffffffffffffffffffffffffffffff16141515620019da57600080fd5b600060158054905014151562001a58576040517f08c379a000000000000000000000000000000000000000000000000000000000815260040180806020018281038252601d8152602001807f416c72656164792063616c63756c617465642074686520746f74616c7300000081525060200191505060405180910390fd5b60008090505b60128054905081101562001aa757601560009080600181540180825580915050906001820390600052602060002001600090919290919091505550808060010191505062001a5e565b5060008090505b60078054905081101562001c1d5760008090505b6014600060078481548110151562001ad657fe5b9060005260206000200160009054906101000a900473ffffffffffffffffffffffffffffffffffffffff1673ffffffffffffffffffffffffffffffffffffffff1673ffffffffffffffffffffffffffffffffffffffff1681526020019081526020016000208054905081101562001c0e576014600060078481548110151562001b5b57fe5b9060005260206000200160009054906101000a900473ffffffffffffffffffffffffffffffffffffffff1673ffffffffffffffffffffffffffffffffffffffff1673ffffffffffffffffffffffffffffffffffffffff1681526020019081526020016000208181548110151562001bce57fe5b906000526020600020015460158281548110151562001be957fe5b9060005260206000200160008282540192505081905550808060010191505062001ac2565b50808060010191505062001aae565b50565b600f8181548110151562001c3057fe5b906000526020600020016000915054906101000a900473ffffffffffffffffffffffffffffffffffffffff1681565b600860003373ffffffffffffffffffffffffffffffffffffffff1673ffffffffffffffffffffffffffffffffffffffff16815260200190815260200160002060009054906101000a900460ff16151562001d21576040517f08c379a00000000000000000000000000000000000000000000000000000000081526004018080602001828103825260148152602001807f566f746572206e6f74207265676973746572656400000000000000000000000081525060200191505060405180910390fd5b6003600481111562001d2f57fe5b600660009054906101000a900460ff16600481111562001d4b57fe5b14151562001dc1576040517f08c379a00000000000000000000000000000000000000000000000000000000081526004018080602001828103825260178152602001807f4d75737420626520696e2072657665616c20706861736500000000000000000081525060200191505060405180910390fd5b600081805190602001209050600960003373ffffffffffffffffffffffffffffffffffffffff1673ffffffffffffffffffffffffffffffffffffffff168152602001908152602001600020548114151562001e84576040517f08c379a000000000000000000000000000000000000000000000000000000000815260040180806020018281038252601c8152602001807f72657665616c20646f6573206e6f74206d6174636820636f6d6d69740000000081525060200191505060405180910390fd5b81600a60003373ffffffffffffffffffffffffffffffffffffffff1673ffffffffffffffffffffffffffffffffffffffff168152602001908152602001600020908051906020019062001ed992919062004b56565b505050565b60146020528160005260406000208181548110151562001efa57fe5b90600052602060002001600091509150505481565b60158181548110151562001f1f57fe5b906000526020600020016000915090505481565b600d6020528060005260406000206000915090505481565b600c8054600181600116156101000203166002900480601f01602080910402602001604051908101604052809291908181526020018280546001816001161561010002031660029004801562001fe55780601f1062001fb95761010080835404028352916020019162001fe5565b820191906000526020600020905b81548152906001019060200180831162001fc757829003601f168201915b505050505081565b60096020528060005260406000206000915090505481565b60008282604051602001808373ffffffffffffffffffffffffffffffffffffffff1673ffffffffffffffffffffffffffffffffffffffff166c010000000000000000000000000281526014018273ffffffffffffffffffffffffffffffffffffffff1673ffffffffffffffffffffffffffffffffffffffff166c010000000000000000000000000281526014019250505060405160208183030381529060405280519060200120905092915050565b601160009054906101000a900473ffffffffffffffffffffffffffffffffffffffff1673ffffffffffffffffffffffffffffffffffffffff163373ffffffffffffffffffffffffffffffffffffffff161415156200211157600080fd5b6004808111156200211e57fe5b600660009054906101000a900460ff1660048111156200213a57fe5b1415156200214757600080fd5b60006200215362004c2f565b604051809103906000f08015801562002170573d6000803e3d6000fd5b50905060006200217f62004c2f565b604051809103906000f0801580156200219c573d6000803e3d6000fd5b5090506000620021ad858562002005565b90506000620021bd858762002005565b9050836016600084815260200190815260200160002060006101000a81548173ffffffffffffffffffffffffffffffffffffffff021916908373ffffffffffffffffffffffffffffffffffffffff160217905550826016600083815260200190815260200160002060006101000a81548173ffffffffffffffffffffffffffffffffffffffff021916908373ffffffffffffffffffffffffffffffffffffffff160217905550505050505050565b601160009054906101000a900473ffffffffffffffffffffffffffffffffffffffff1673ffffffffffffffffffffffffffffffffffffffff163373ffffffffffffffffffffffffffffffffffffffff16141515620022c857600080fd5b600060055411151562002369576040517f08c379a00000000000000000000000000000000000000000000000000000000081526004018080602001828103825260268152602001807f52616e646f6d206e756d6265722066726f6d2070726f7661626c65206d75737481526020017f206578697374000000000000000000000000000000000000000000000000000081525060400191505060405180910390fd5b600360048111156200237757fe5b600660009054906101000a900460ff1660048111156200239357fe5b14151562002409576040517f08c379a00000000000000000000000000000000000000000000000000000000081526004018080602001828103825260178152602001807f4d75737420626520696e2072657665616c20706861736500000000000000000081525060200191505060405180910390fd5b60018111151562002482576040517f08c379a000000000000000000000000000000000000000000000000000000000815260040180806020018281038252601f8152602001807f5468657265206d757374206265206d6f7265207468616e20312067726f75700081525060200191505060405180910390fd5b6000600c80546001816001161561010002031660029004905011151562002511576040517f08c379a00000000000000000000000000000000000000000000000000000000081526004018080602001828103825260188152602001807f4e6f20736565642066726f6d206f776e657220666f756e64000000000000000081525060200191505060405180910390fd5b60006007805490501115156200258f576040517f08c379a000000000000000000000000000000000000000000000000000000000815260040180806020018281038252601e8152602001807f546865726520617265206e6f207265676973746572656420766f74657273000081525060200191505060405180910390fd5b6200261c600c6040516020018082805460018160011615610100020316600290048015620025f75780601f10620025d4576101008083540402835291820191620025f7565b820191906000526020600020905b815481529060010190602001808311620025e2575b5050915050604051602081830303815290604052805190602001206001900462003791565b620026278162003be2565b6004600660006101000a81548160ff021916908360048111156200264757fe5b021790555060008090505b600780549050811015620027375760006007828154811015156200267257fe5b9060005260206000200160009054906101000a900473ffffffffffffffffffffffffffffffffffffffff1690506000600d60008373ffffffffffffffffffffffffffffffffffffffff1673ffffffffffffffffffffffffffffffffffffffff168152602001908152602001600020549050808273ffffffffffffffffffffffffffffffffffffffff167f774c33ab58e0ee92b864f81d9310d1b9b002c5941b4f5275a0a95255856f546e60405160405180910390a35050808060010191505062002652565b5050565b601160009054906101000a900473ffffffffffffffffffffffffffffffffffffffff1673ffffffffffffffffffffffffffffffffffffffff163373ffffffffffffffffffffffffffffffffffffffff1614151562002827576040517f08c379a00000000000000000000000000000000000000000000000000000000081526004018080602001828103825260348152602001807f4f6e6c7920746865206f776e65722063616e2067657420612072616e646f6d2081526020017f6e756d6265722066726f6d2070726f7661626c6500000000000000000000000081525060400191505060405180910390fd5b7fc4dc360d0a9c0677a3379ae0a3d81e887f761e65fdf3d7e00859d1bcd3c473896040518080602001828103825260368152602001807f50726f7661626c65207175657279207761732073656e742c207374616e64696e81526020017f6720627920666f722074686520616e737765722e2e2e0000000000000000000081525060400191505060405180910390a1620029786040805190810160405280600381526020017f55524c0000000000000000000000000000000000000000000000000000000000815250608060405190810160405280605e81526020017f68747470733a2f2f7777772e72616e646f6d2e6f72672f696e7465676572732f81526020017f3f6e756d3d31266d696e3d31266d61783d3130303030303030303026636f6c3d81526020017f3126626173653d313026666f726d61743d706c61696e26726e643d6e6577000081525062003d1b565b50565b600160048111156200298957fe5b600660009054906101000a900460ff166004811115620029a557fe5b14151562002a1b576040517f08c379a000000000000000000000000000000000000000000000000000000000815260040180806020018281038252601d8152602001807f4d75737420626520696e20726567697374726174696f6e20706861736500000081525060200191505060405180910390fd5b601160009054906101000a900473ffffffffffffffffffffffffffffffffffffffff1673ffffffffffffffffffffffffffffffffffffffff163373ffffffffffffffffffffffffffffffffffffffff1614151562002b07576040517f08c379a00000000000000000000000000000000000000000000000000000000081526004018080602001828103825260298152602001807f4f6e6c7920746865206f776e65722063616e2073746172742074686520636f6d81526020017f6d6974207068617365000000000000000000000000000000000000000000000081525060400191505060405180910390fd5b6000602060ff1611151562002b84576040517f08c379a000000000000000000000000000000000000000000000000000000000815260040180806020018281038252601b8152602001807f5468652073656564206973206e6f7420676f6f6420656e6f756768000000000081525060200191505060405180910390fd5b6002600660006101000a81548160ff0219169083600481111562002ba457fe5b021790555080600b8190555050565b600e5481565b600a6020528060005260406000206000915090508054600181600116156101000203166002900480601f01602080910402602001604051908101604052809291908181526020018280546001816001161561010002031660029004801562002c655780601f1062002c395761010080835404028352916020019162002c65565b820191906000526020600020905b81548152906001019060200180831162002c4757829003601f168201915b505050505081565b600660009054906101000a900460ff1681565b60166020528060005260406000206000915054906101000a900473ffffffffffffffffffffffffffffffffffffffff1681565b60086020528060005260406000206000915054906101000a900460ff1681565b6013602052816000526040600020602052806000526040600020600091509150508054600181600116156101000203166002900480601f01602080910402602001604051908101604052809291908181526020018280546001816001161561010002031660029004801562002d8c5780601f1062002d605761010080835404028352916020019162002d8c565b820191906000526020600020905b81548152906001019060200180831162002d6e57829003601f168201915b505050505081565b601280549050815114151562002e38576040517f08c379a00000000000000000000000000000000000000000000000000000000081526004018080602001828103825260338152602001807f47726f757020746f74616c73206d757374206861766520746f74616c20666f7281526020017f206561636820766f74696e67206f7074696f6e0000000000000000000000000081525060400191505060405180910390fd5b6000601460003373ffffffffffffffffffffffffffffffffffffffff1673ffffffffffffffffffffffffffffffffffffffff1681526020019081526020016000208054905014151562002f19576040517f08c379a000000000000000000000000000000000000000000000000000000000815260040180806020018281038252602b8152602001807f53656e64657220616c72656164792062726f616463617374656420746865206781526020017f726f757020746f74616c7300000000000000000000000000000000000000000081525060400191505060405180910390fd5b80601460003373ffffffffffffffffffffffffffffffffffffffff1673ffffffffffffffffffffffffffffffffffffffff168152602001908152602001600020908051906020019062002f6e92919062004bdd565b5050565b60128181548110151562002f8257fe5b906000526020600020016000915090505481565b60078181548110151562002fa657fe5b906000526020600020016000915054906101000a900473ffffffffffffffffffffffffffffffffffffffff1681565b600860003373ffffffffffffffffffffffffffffffffffffffff1673ffffffffffffffffffffffffffffffffffffffff16815260200190815260200160002060009054906101000a900460ff16151562003097576040517f08c379a00000000000000000000000000000000000000000000000000000000081526004018080602001828103825260148152602001807f566f746572206e6f74207265676973746572656400000000000000000000000081525060200191505060405180910390fd5b60026004811115620030a557fe5b600660009054906101000a900460ff166004811115620030c157fe5b14151562003137576040517f08c379a00000000000000000000000000000000000000000000000000000000081526004018080602001828103825260178152602001807f4d75737420626520696e20636f6d6d697420706861736500000000000000000081525060200191505060405180910390fd5b80600960003373ffffffffffffffffffffffffffffffffffffffff1673ffffffffffffffffffffffffffffffffffffffff1681526020019081526020016000208190555050565b600260048111156200318c57fe5b600660009054906101000a900460ff166004811115620031a857fe5b1415156200321e576040517f08c379a00000000000000000000000000000000000000000000000000000000081526004018080602001828103825260178152602001807f4d75737420626520696e20636f6d6d697420706861736500000000000000000081525060200191505060405180910390fd5b601160009054906101000a900473ffffffffffffffffffffffffffffffffffffffff1673ffffffffffffffffffffffffffffffffffffffff163373ffffffffffffffffffffffffffffffffffffffff161415156200330a576040517f08c379a00000000000000000000000000000000000000000000000000000000081526004018080602001828103825260298152602001807f4f6e6c7920746865206f776e65722063616e207374617274207468652072657681526020017f65616c207068617365000000000000000000000000000000000000000000000081525060400191505060405180910390fd5b6003600660006101000a81548160ff021916908360048111156200332a57fe5b0217905550600081805190602001209050600b5481141515620033db576040517f08c379a00000000000000000000000000000000000000000000000000000000081526004018080602001828103825260298152602001807f536565642066726f6d206f776e657220646f6573206e6f74206d61746368207481526020017f686520636f6d6d6974000000000000000000000000000000000000000000000081525060400191505060405180910390fd5b81600c9080519060200190620033f392919062004b56565b505050565b60008073ffffffffffffffffffffffffffffffffffffffff16600160009054906101000a900473ffffffffffffffffffffffffffffffffffffffff1673ffffffffffffffffffffffffffffffffffffffff161480620034835750600062003481600160009054906101000a900473ffffffffffffffffffffffffffffffffffffffff16620042f2565b145b156200349757620034956000620042fd565b505b600160009054906101000a900473ffffffffffffffffffffffffffffffffffffffff1673ffffffffffffffffffffffffffffffffffffffff166338cc48316040518163ffffffff167c0100000000000000000000000000000000000000000000000000000000028152600401602060405180830381600087803b1580156200351e57600080fd5b505af115801562003533573d6000803e3d6000fd5b505050506040513d60208110156200354a57600080fd5b810190808051906020019092919050505073ffffffffffffffffffffffffffffffffffffffff166000809054906101000a900473ffffffffffffffffffffffffffffffffffffffff1673ffffffffffffffffffffffffffffffffffffffff16141515620036b557600160009054906101000a900473ffffffffffffffffffffffffffffffffffffffff1673ffffffffffffffffffffffffffffffffffffffff166338cc48316040518163ffffffff167c0100000000000000000000000000000000000000000000000000000000028152600401602060405180830381600087803b1580156200363857600080fd5b505af11580156200364d573d6000803e3d6000fd5b505050506040513d60208110156200366457600080fd5b81019080805190602001909291905050506000806101000a81548173ffffffffffffffffffffffffffffffffffffffff021916908373ffffffffffffffffffffffffffffffffffffffff1602179055505b6000809054906101000a900473ffffffffffffffffffffffffffffffffffffffff1673ffffffffffffffffffffffffffffffffffffffff1663c281d19e6040518163ffffffff167c010000000000000000000000000000000000000000000000000000000002815260040160206040518083038186803b1580156200373957600080fd5b505afa1580156200374e573d6000803e3d6000fd5b505050506040513d60208110156200376557600080fd5b8101908080519060200190929190505050905090565b60006200378a82600062004310565b9050919050565b601160009054906101000a900473ffffffffffffffffffffffffffffffffffffffff1673ffffffffffffffffffffffffffffffffffffffff163373ffffffffffffffffffffffffffffffffffffffff16141515620037ee57600080fd5b60006001430340600190049050600080600090505b600780549050811015620038e357600a60003373ffffffffffffffffffffffffffffffffffffffff1673ffffffffffffffffffffffffffffffffffffffff1681526020019081526020016000206040516020018082805460018160011615610100020316600290048015620038b25780601f106200388f576101008083540402835291820191620038b2565b820191906000526020600020905b8154815290600101906020018083116200389d575b5050915050604051602081830303815290604052805190602001206001900482019150808060010191505062003803565b5060006001905060008090505b60078054905081101562003bdb576000805b6601000000000000600b6405deece66d8602018115156200391f57fe5b069150819350858201905086810190508481019050428101905060055481019050600780549050818115156200395157fe5b069050601060006007838154811015156200396857fe5b9060005260206000200160009054906101000a900473ffffffffffffffffffffffffffffffffffffffff1673ffffffffffffffffffffffffffffffffffffffff1673ffffffffffffffffffffffffffffffffffffffff16815260200190815260200160002060009054906101000a900460ff16151515817fd84b79b64ded9cb22be639e98c3de1f1c48160ad04b001bad25640c137342e4060405160405180910390a36010600060078381548110151562003a1f57fe5b9060005260206000200160009054906101000a900473ffffffffffffffffffffffffffffffffffffffff1673ffffffffffffffffffffffffffffffffffffffff1673ffffffffffffffffffffffffffffffffffffffff16815260200190815260200160002060009054906101000a900460ff161515620039025760016010600060078481548110151562003aaf57fe5b9060005260206000200160009054906101000a900473ffffffffffffffffffffffffffffffffffffffff1673ffffffffffffffffffffffffffffffffffffffff1673ffffffffffffffffffffffffffffffffffffffff16815260200190815260200160002060006101000a81548160ff021916908315150217905550600f60078281548110151562003b3d57fe5b9060005260206000200160009054906101000a900473ffffffffffffffffffffffffffffffffffffffff1690806001815401808255809150509060018203906000526020600020016000909192909190916101000a81548173ffffffffffffffffffffffffffffffffffffffff021916908373ffffffffffffffffffffffffffffffffffffffff1602179055505050508080600101915050620038f0565b5050505050565b601160009054906101000a900473ffffffffffffffffffffffffffffffffffffffff1673ffffffffffffffffffffffffffffffffffffffff163373ffffffffffffffffffffffffffffffffffffffff1614151562003c3f57600080fd5b60008090505b600f8054905081101562003ceb57818181151562003c5f57fe5b06600d600060078481548110151562003c7457fe5b9060005260206000200160009054906101000a900473ffffffffffffffffffffffffffffffffffffffff1673ffffffffffffffffffffffffffffffffffffffff1673ffffffffffffffffffffffffffffffffffffffff16815260200190815260200160002081905550808060010191505062003c45565b5080600e819055506004600660006101000a81548160ff0219169083600481111562003d1357fe5b021790555050565b60008073ffffffffffffffffffffffffffffffffffffffff16600160009054906101000a900473ffffffffffffffffffffffffffffffffffffffff1673ffffffffffffffffffffffffffffffffffffffff16148062003da65750600062003da4600160009054906101000a900473ffffffffffffffffffffffffffffffffffffffff16620042f2565b145b1562003dba5762003db86000620042fd565b505b600160009054906101000a900473ffffffffffffffffffffffffffffffffffffffff1673ffffffffffffffffffffffffffffffffffffffff166338cc48316040518163ffffffff167c0100000000000000000000000000000000000000000000000000000000028152600401602060405180830381600087803b15801562003e4157600080fd5b505af115801562003e56573d6000803e3d6000fd5b505050506040513d602081101562003e6d57600080fd5b810190808051906020019092919050505073ffffffffffffffffffffffffffffffffffffffff166000809054906101000a900473ffffffffffffffffffffffffffffffffffffffff1673ffffffffffffffffffffffffffffffffffffffff1614151562003fd857600160009054906101000a900473ffffffffffffffffffffffffffffffffffffffff1673ffffffffffffffffffffffffffffffffffffffff166338cc48316040518163ffffffff167c0100000000000000000000000000000000000000000000000000000000028152600401602060405180830381600087803b15801562003f5b57600080fd5b505af115801562003f70573d6000803e3d6000fd5b505050506040513d602081101562003f8757600080fd5b81019080805190602001909291905050506000806101000a81548173ffffffffffffffffffffffffffffffffffffffff021916908373ffffffffffffffffffffffffffffffffffffffff1602179055505b60008060009054906101000a900473ffffffffffffffffffffffffffffffffffffffff1673ffffffffffffffffffffffffffffffffffffffff1663524f3889856040518263ffffffff167c01000000000000000000000000000000000000000000000000000000000281526004018080602001828103825283818151815260200191508051906020019080838360005b838110156200408557808201518184015260208101905062004068565b50505050905090810190601f168015620040b35780820380516001836020036101000a031916815260200191505b5092505050602060405180830381600087803b158015620040d357600080fd5b505af1158015620040e8573d6000803e3d6000fd5b505050506040513d6020811015620040ff57600080fd5b8101908080519060200190929190505050905062030d403a02670de0b6b3a76400000181111562004138576000600102915050620042ec565b6000809054906101000a900473ffffffffffffffffffffffffffffffffffffffff1673ffffffffffffffffffffffffffffffffffffffff1663adf59f9982600087876040518563ffffffff167c0100000000000000000000000000000000000000000000000000000000028152600401808481526020018060200180602001838103835285818151815260200191508051906020019080838360005b83811015620041f1578082015181840152602081019050620041d4565b50505050905090810190601f1680156200421f5780820380516001836020036101000a031916815260200191505b50838103825284818151815260200191508051906020019080838360005b838110156200425a5780820151818401526020810190506200423d565b50505050905090810190601f168015620042885780820380516001836020036101000a031916815260200191505b50955050505050506020604051808303818588803b158015620042aa57600080fd5b505af1158015620042bf573d6000803e3d6000fd5b50505050506040513d6020811015620042d757600080fd5b81019080805190602001909291905050509150505b92915050565b6000813b9050919050565b600062004309620045b9565b9050919050565b600060608390506000809050600080905060008090505b83518110156200459957603084828151811015156200434257fe5b9060200101517f010000000000000000000000000000000000000000000000000000000000000090047f0100000000000000000000000000000000000000000000000000000000000000027f0100000000000000000000000000000000000000000000000000000000000000900460ff161015801562004442575060398482815181101515620043ce57fe5b9060200101517f010000000000000000000000000000000000000000000000000000000000000090047f0100000000000000000000000000000000000000000000000000000000000000027f0100000000000000000000000000000000000000000000000000000000000000900460ff1611155b15620044fc578115620044695760008614156200445f5762004599565b8580600190039650505b600a83029250603084828151811015156200448057fe5b9060200101517f010000000000000000000000000000000000000000000000000000000000000090047f0100000000000000000000000000000000000000000000000000000000000000027f0100000000000000000000000000000000000000000000000000000000000000900460ff1603830192506200458b565b602e84828151811015156200450d57fe5b9060200101517f010000000000000000000000000000000000000000000000000000000000000090047f0100000000000000000000000000000000000000000000000000000000000000027f0100000000000000000000000000000000000000000000000000000000000000900460ff1614156200458a57600191505b5b808060010191505062004327565b506000851115620045ad5784600a0a820291505b81935050505092915050565b600080620045db731d3b2638a7cc9f2cb3d298a3da7a90b67e5506ed620042f2565b11156200468157731d3b2638a7cc9f2cb3d298a3da7a90b67e5506ed600160006101000a81548173ffffffffffffffffffffffffffffffffffffffff021916908373ffffffffffffffffffffffffffffffffffffffff160217905550620046776040805190810160405280600b81526020017f6574685f6d61696e6e657400000000000000000000000000000000000000000081525062004b3a565b6001905062004b37565b6000620046a273c03a2615d5efaf5f49f60b7bb6583eaec212fdf1620042f2565b1115620047485773c03a2615d5efaf5f49f60b7bb6583eaec212fdf1600160006101000a81548173ffffffffffffffffffffffffffffffffffffffff021916908373ffffffffffffffffffffffffffffffffffffffff1602179055506200473e6040805190810160405280600c81526020017f6574685f726f707374656e33000000000000000000000000000000000000000081525062004b3a565b6001905062004b37565b60006200476973b7a07bcf2ba2f2703b24c0691b5278999c59ac7e620042f2565b11156200480f5773b7a07bcf2ba2f2703b24c0691b5278999c59ac7e600160006101000a81548173ffffffffffffffffffffffffffffffffffffffff021916908373ffffffffffffffffffffffffffffffffffffffff160217905550620048056040805190810160405280600981526020017f6574685f6b6f76616e000000000000000000000000000000000000000000000081525062004b3a565b6001905062004b37565b60006200483073146500cfd35b22e4a392fe0adc06de1a1368ed48620042f2565b1115620048d65773146500cfd35b22e4a392fe0adc06de1a1368ed48600160006101000a81548173ffffffffffffffffffffffffffffffffffffffff021916908373ffffffffffffffffffffffffffffffffffffffff160217905550620048cc6040805190810160405280600b81526020017f6574685f72696e6b65627900000000000000000000000000000000000000000081525062004b3a565b6001905062004b37565b6000620048f773a2998efd205fb9d4b4963afb70778d6354ad3a41620042f2565b11156200499d5773a2998efd205fb9d4b4963afb70778d6354ad3a41600160006101000a81548173ffffffffffffffffffffffffffffffffffffffff021916908373ffffffffffffffffffffffffffffffffffffffff160217905550620049936040805190810160405280600a81526020017f6574685f676f65726c690000000000000000000000000000000000000000000081525062004b3a565b6001905062004b37565b6000620049be736f485c8bf6fc43ea212e93bbf8ce046c7f1cb475620042f2565b111562004a2457736f485c8bf6fc43ea212e93bbf8ce046c7f1cb475600160006101000a81548173ffffffffffffffffffffffffffffffffffffffff021916908373ffffffffffffffffffffffffffffffffffffffff1602179055506001905062004b37565b600062004a457320e12a1f859b3feae5fb2a0a32c18f5a65555bbf620042f2565b111562004aab577320e12a1f859b3feae5fb2a0a32c18f5a65555bbf600160006101000a81548173ffffffffffffffffffffffffffffffffffffffff021916908373ffffffffffffffffffffffffffffffffffffffff1602179055506001905062004b37565b600062004acc7351efaf4c8b3c9afbd5ab9f4bbc82784ab6ef8faa620042f2565b111562004b32577351efaf4c8b3c9afbd5ab9f4bbc82784ab6ef8faa600160006101000a81548173ffffffffffffffffffffffffffffffffffffffff021916908373ffffffffffffffffffffffffffffffffffffffff1602179055506001905062004b37565b600090505b90565b806002908051906020019062004b5292919062004b56565b5050565b828054600181600116156101000203166002900490600052602060002090601f016020900481019282601f1062004b9957805160ff191683800117855562004bca565b8280016001018555821562004bca579182015b8281111562004bc957825182559160200191906001019062004bac565b5b50905062004bd9919062004c40565b5090565b82805482825590600052602060002090810192821562004c1c579160200282015b8281111562004c1b57825182559160200191906001019062004bfe565b5b50905062004c2b919062004c40565b5090565b604051610fe68062004c6983390190565b62004c6591905b8082111562004c6157600081600090555060010162004c47565b5090565b9056fe60806040527ff3ec75cc015a7f458c242e37c292eef96c40cfb670ed8cff3bba27ee3301205b600055600260015560e06040519081016040528060bc8152602001610f2a60bc91396004908051906020019061005c9291906100e2565b50606060405190810160405280603181526020017f72657475726e206177616974206468496e73742e67656e657261746541422e6381526020017f616c6c2867656e41615b225f61225d293b000000000000000000000000000000815250600590805190602001906100cf9291906100e2565b503480156100dc57600080fd5b50610187565b828054600181600116156101000203166002900490600052602060002090601f016020900481019282601f1061012357805160ff1916838001178555610151565b82800160010185558215610151579182015b82811115610150578251825591602001919060010190610135565b5b50905061015e9190610162565b5090565b61018491905b80821115610180576000816000905550600101610168565b5090565b90565b610d94806101966000396000f3fe6080604052600436106100af576000357c0100000000000000000000000000000000000000000000000000000000900463ffffffff16806307da68f5146100b457806309cdcf9b146100cb5780632e7e36431461010657806332e7c5bf146101555780633f74a95e1461018057806352fef9bb146102105780635fca164b1461026b5780636fecb623146102fb5780638482e01c146103265780638b8fbd9214610406578063a34f8c9d14610431575b600080fd5b3480156100c057600080fd5b506100c961048a565b005b3480156100d757600080fd5b50610104600480360360208110156100ee57600080fd5b81019080803590602001909291905050506104a3565b005b34801561011257600080fd5b5061013f6004803603602081101561012957600080fd5b81019080803590602001909291905050506104ee565b6040518082815260200191505060405180910390f35b34801561016157600080fd5b5061016a61069d565b6040518082815260200191505060405180910390f35b34801561018c57600080fd5b506101956106a3565b6040518080602001828103825283818151815260200191508051906020019080838360005b838110156101d55780820151818401526020810190506101ba565b50505050905090810190601f1680156102025780820380516001836020036101000a031916815260200191505b509250505060405180910390f35b34801561021c57600080fd5b506102696004803603604081101561023357600080fd5b81019080803573ffffffffffffffffffffffffffffffffffffffff16906020019092919080359060200190929190505050610741565b005b34801561027757600080fd5b50610280610ac1565b6040518080602001828103825283818151815260200191508051906020019080838360005b838110156102c05780820151818401526020810190506102a5565b50505050905090810190601f1680156102ed5780820380516001836020036101000a031916815260200191505b509250505060405180910390f35b34801561030757600080fd5b50610310610b5f565b6040518082815260200191505060405180910390f35b34801561033257600080fd5b506103e96004803603602081101561034957600080fd5b810190808035906020019064010000000081111561036657600080fd5b82018360208201111561037857600080fd5b8035906020019184602083028401116401000000008311171561039a57600080fd5b919080806020026020016040519081016040528093929190818152602001838360200280828437600081840152601f19601f820116905080830192505050505050509192919290505050610b65565b604051808381526020018281526020019250505060405180910390f35b34801561041257600080fd5b5061041b610bff565b6040518082815260200191505060405180910390f35b34801561043d57600080fd5b506104746004803603604081101561045457600080fd5b810190808035906020019092919080359060200190929190505050610c05565b6040518082815260200191505060405180910390f35b3373ffffffffffffffffffffffffffffffffffffffff16ff5b33600360006101000a81548173ffffffffffffffffffffffffffffffffffffffff021916908373ffffffffffffffffffffffffffffffffffffffff1602179055508060028190555050565b60008073ffffffffffffffffffffffffffffffffffffffff16600360009054906101000a900473ffffffffffffffffffffffffffffffffffffffff1673ffffffffffffffffffffffffffffffffffffffff16141515156105dc576040517f08c379a000000000000000000000000000000000000000000000000000000000815260040180806020018281038252602d8152602001807f4f7468657220536d61727444696666696548656c6c6d616e20636f6e7472616381526020017f7420756e61737369676e65642e0000000000000000000000000000000000000081525060400191505060405180910390fd5b60006002541415151561067d576040517f08c379a00000000000000000000000000000000000000000000000000000000081526004018080602001828103825260378152602001807f4220686173206e6f74206265656e207472616e736d6974746564206279206f7481526020017f68657220536d61727444696666696548656c6c6d616e2e00000000000000000081525060400191505060405180910390fd5b61069682600054600254610c269092919063ffffffff16565b9050919050565b60025481565b60058054600181600116156101000203166002900480601f0160208091040260200160405190810160405280929190818152602001828054600181600116156101000203166002900480156107395780601f1061070e57610100808354040283529160200191610739565b820191906000526020600020905b81548152906001019060200180831161071c57829003601f168201915b505050505081565b600073ffffffffffffffffffffffffffffffffffffffff168273ffffffffffffffffffffffffffffffffffffffff161415151561080c576040517f08c379a000000000000000000000000000000000000000000000000000000000815260040180806020018281038252602d8152602001807f4f7468657220536d61727444696666696548656c6c6d616e20636f6e7472616381526020017f7420756e61737369676e65642e0000000000000000000000000000000000000081525060400191505060405180910390fd5b8173ffffffffffffffffffffffffffffffffffffffff16638b8fbd926040518163ffffffff167c010000000000000000000000000000000000000000000000000000000002815260040160206040518083038186803b15801561086e57600080fd5b505afa158015610882573d6000803e3d6000fd5b505050506040513d602081101561089857600080fd5b8101908080519060200190929190505050600054141515610921576040517f08c379a00000000000000000000000000000000000000000000000000000000081526004018080602001828103825260138152602001807f5072696d6520697320646966666572656e742e0000000000000000000000000081525060200191505060405180910390fd5b8173ffffffffffffffffffffffffffffffffffffffff16636fecb6236040518163ffffffff167c010000000000000000000000000000000000000000000000000000000002815260040160206040518083038186803b15801561098357600080fd5b505afa158015610997573d6000803e3d6000fd5b505050506040513d60208110156109ad57600080fd5b8101908080519060200190929190505050600154141515610a36576040517f08c379a00000000000000000000000000000000000000000000000000000000081526004018080602001828103825260128152602001807f526f6f7420697320646966666572656e742e000000000000000000000000000081525060200191505060405180910390fd5b8173ffffffffffffffffffffffffffffffffffffffff166309cdcf9b826040518263ffffffff167c010000000000000000000000000000000000000000000000000000000002815260040180828152602001915050600060405180830381600087803b158015610aa557600080fd5b505af1158015610ab9573d6000803e3d6000fd5b505050505050565b60048054600181600116156101000203166002900480601f016020809104026020016040519081016040528092919081815260200182805460018160011615610100020316600290048015610b575780601f10610b2c57610100808354040283529160200191610b57565b820191906000526020600020905b815481529060010190602001808311610b3a57829003601f168201915b505050505081565b60015481565b6000806000805414151515610b7657fe5b600060015414151515610b8557fe5b8260405160200180828051906020019060200280838360005b83811015610bb9578082015181840152602081019050610b9e565b5050505090500191505060405160208183030381529060405280519060200120600190049150610bf882600054600154610c269092919063ffffffff16565b9050915091565b60005481565b6000610c1e8360005484610c269092919063ffffffff16565b905092915050565b600080610c31610d22565b610c39610d45565b6020816000600681101515610c4a57fe5b6020020181815250506020816001600681101515610c6457fe5b6020020181815250506020816002600681101515610c7e57fe5b60200201818152505086816003600681101515610c9757fe5b60200201818152505085816004600681101515610cb057fe5b60200201818152505084816005600681101515610cc957fe5b60200201818152505060208260c08360056107d05a03fa92508260008114610cf057610cf5565b600080fd5b50821515610d0257600080fd5b816000600181101515610d1157fe5b602002015193505050509392505050565b602060405190810160405280600190602082028038833980820191505090505090565b60c06040519081016040528060069060208202803883398082019150509050509056fea165627a7a72305820cef41fa7a93ebb9f158998de3437ac31acb48e4c707ecb3d2fdaef73bdcb7b8800296c65742072616e646f6d203d205b2e2e2e4172726179283332295d2e6d6170282829203d3e207061727365496e74284d6174682e72616e646f6d2829202a2032353529293b206c65742067656e4161203d206177616974206468496e7374312e67656e6572617465412e63616c6c2872616e646f6d293b206177616974206468496e7374312e7472616e736d697441286468496e7374322e616464726573732c2067656e41615b225f41225d293b2072657475726e2067656e41613ba165627a7a723058204f68e153bbf332e9dd13461a5d71f483f5e6dbfc01239025273844720be60e0e0029",
  "source": "pragma solidity >=0.5.0 <0.7.0;\n\nimport \"./provableAPI.sol\";\nimport \"./SmartDiffieHellman.sol\";\n\ncontract ShuffleAndRoundRobin is usingProvable {\n\n    // provableAPI\n    uint public provableRandomNumber;\n\n    // 0. Contract state\n    enum State { Init, Register, Commit, Reveal, Vote }\n    State public state = State.Init;\n\n    // 1. Register all accounts\n    address[] public registered;\n    mapping(address => bool) public isRegistered; // only allow registration once\n\n    // 2. Commit Reveal\n    mapping(address => bytes32) public commits;\n    mapping(address => string) public reveals;\n\n    // seed from owner\n    bytes32 public seedCommit;\n    string public seedReveal;\n\n    // 3. distribute accounts in round robin\n    mapping(address => uint256) public groups;\n    uint256 public numberOfGroups;\n\n    // 4. shuffle the accounts\n    address[] public shuffled;\n    mapping(address => bool) isShuffled;\n\n    // only the contract owner can start distribution and selfdestruct the contract\n    address payable owner = msg.sender;\n\n    // voting\n    uint256[] public votingOptions;\n    mapping(address => mapping(address => string)) public votes;\n    mapping(address => uint256[]) public groupTotals;\n    uint256[] public totalCounts;\n\n    // debugging events\n    event randomNr(uint256 indexed _rand, bool indexed _accepted);\n    event distributed(address indexed _address, uint256 indexed _group);\n    event LogNewRandomNumber(string randomNumber);\n    event LogNewProvableQuery(string description);\n\n    constructor() public {\n        OAR = OracleAddrResolverI(0x8D0be561Aa14bC084174CdCaE822F4724AE51ab8);\n    }\n\n    function __callback(bytes32 myid, string memory result) public\n    {\n        require(msg.sender == provable_cbAddress());\n        emit LogNewRandomNumber(result);\n        provableRandomNumber = parseInt(result);\n    }\n\n    function getProvableRandomNumber() public payable\n    {\n        require(msg.sender == owner, 'Only the owner can get a random number from provable');\n        emit LogNewProvableQuery(\"Provable query was sent, standing by for the answer...\");\n        provable_query(\"URL\", \"https://www.random.org/integers/?num=1&min=1&max=1000000000&col=1&base=10&format=plain&rnd=new\");\n    }\n\n    // set voting options\n    function setVotingOptions(uint256[] memory _votingOptions) public {\n        require(msg.sender == owner, 'Sender must be owner');\n        require(_votingOptions.length > 1, 'There must be at least two voting options');\n        require(state == State.Init, 'State must be Init');\n\n        state = State.Register;\n\n        votingOptions = _votingOptions;\n    }\n\n    // ======= 1. =======\n    function register() public {\n        require(state == State.Register, 'Not in state Register');\n        require(!isRegistered[msg.sender], 'Already registered');\n\n        isRegistered[msg.sender] = true;\n        registered.push(msg.sender);\n    }\n\n    // ======= 2.1 =======\n    function startCommitPhase(bytes32 _seedCommit) public {\n        require(state == State.Register, 'Must be in registration phase');\n        require(msg.sender == owner, 'Only the owner can start the commit phase');\n        require(_seedCommit.length > 0, 'The seed is not good enough');\n\n        state = State.Commit;\n\n        seedCommit = _seedCommit;\n    }\n\n    // ======= 2.2 =======\n    function startRevealPhase(string memory _seedReveal) public {\n        require(state == State.Commit, 'Must be in commit phase');\n        require(msg.sender == owner, 'Only the owner can start the reveal phase');\n\n        state = State.Reveal;\n\n        bytes32 hash = keccak256(bytes(_seedReveal));\n\n        require(hash == seedCommit, 'Seed from owner does not match the commit');\n\n        seedReveal = _seedReveal;\n    }\n\n    // ======= 2.3 =======\n    function commit(bytes32 _hash) public {\n        require(isRegistered[msg.sender], 'Voter not registered');\n        require(state == State.Commit, 'Must be in commit phase');\n\n        commits[msg.sender] = _hash;\n    }\n\n    // ======= 2.4 =======\n    function reveal(string memory _secret) public {\n        require(isRegistered[msg.sender], 'Voter not registered');\n        require(state == State.Reveal, 'Must be in reveal phase');\n\n        bytes32 hash = keccak256(bytes(_secret));\n\n        require(hash == commits[msg.sender], 'reveal does not match commit');\n\n        reveals[msg.sender] = _secret;\n    }\n\n    // ======= 3. =======\n    function distribute(uint256 _groups) public {\n        require(msg.sender == owner);\n        require(provableRandomNumber > 0, 'Random number from provable must exist');\n        require(state == State.Reveal, 'Must be in reveal phase');\n        require(_groups > 1, 'There must be more than 1 group');\n        require(bytes(seedReveal).length > 0, 'No seed from owner found');\n        require(registered.length > 0, 'There are no registered voters');\n\n        shuffle(uint256(keccak256(abi.encodePacked(seedReveal))));\n        roundRobin(_groups);\n\n        state = State.Vote;\n\n        for(uint256 i = 0; i < registered.length; i++) {\n            address addr = registered[i];\n            uint256 group = groups[addr];\n\n            emit distributed(addr, group);\n        }\n    }\n\n    // ======= 4. =======\n    function shuffle(uint256 _seed) private {\n        require(msg.sender == owner);\n\n        // prevBlockHash\n        uint256 prevBlockHash = uint256(blockhash(block.number - 1));\n\n        uint256 allReveals;\n        // reveals\n        for(uint256 i = 0; i < registered.length; i++) {\n            allReveals += uint256(keccak256(abi.encodePacked(reveals[msg.sender])));\n        }\n\n        uint256 prevRand = 1;\n\n        for(uint256 i = 0; i < registered.length; i++) {\n            uint256 rand;\n            uint256 randPosition;\n\n            // search for a registered address which has not been shuffled\n            do {\n                // values from Java's java.util.Random, POSIX [ln]rand48, glibc [ln]rand48[_r],\n                // see https://en.wikipedia.org/wiki/Linear_congruential_generator#Parameters_in_common_use\n                rand = (prevRand * 25214903917 + 11) % (2 ** 48);\n                prevRand = rand;\n\n                // last block hash\n                randPosition = rand + prevBlockHash;\n                // seed from owner\n                randPosition += _seed;\n                // reveals from voters\n                randPosition += allReveals;\n                // timestamp of current block\n                randPosition += now;\n                // random number from provable\n                randPosition += provableRandomNumber;\n\n                // find a position in the mapping\n                randPosition = randPosition % registered.length;\n\n                emit randomNr(randPosition, !isShuffled[registered[randPosition]]);\n            } while(isShuffled[registered[randPosition]]);\n\n            isShuffled[registered[randPosition]] = true;\n\n            shuffled.push(registered[randPosition]);\n        }\n    }\n\n    function roundRobin(uint256 _groups) private {\n        require(msg.sender == owner);\n\n        for(uint256 i = 0; i < shuffled.length; i++) {\n            groups[registered[i]] = i % _groups;\n        }\n\n        numberOfGroups = _groups;\n        state = State.Vote;\n    }\n\n    // ========== smartDHX ===========\n    mapping(bytes32 => SmartDiffieHellman) public smartDHXs;\n\n    function getEdgeKey(address _first, address _second) public pure returns (bytes32 _edgeKey) {\n        return keccak256(abi.encodePacked(_first, _second));\n    }\n\n    function deploySmartDHX(address _first, address _second) public {\n        require(msg.sender == owner);\n        require(state == State.Vote);\n\n        SmartDiffieHellman firstSmartDHX = new SmartDiffieHellman();\n        SmartDiffieHellman secondSmartDHX = new SmartDiffieHellman();\n\n        bytes32 firstEdgeKey = getEdgeKey(_first, _second);\n        bytes32 secondEdgeKey = getEdgeKey(_second, _first);\n\n        smartDHXs[firstEdgeKey] = firstSmartDHX;\n        smartDHXs[secondEdgeKey] = secondSmartDHX;\n    }\n\n    function sendVote(string memory _vote, address _to) public {\n        require(state == State.Vote, 'Not in voting state');\n        require(bytes(votes[msg.sender][_to]).length == 0, 'Vote was already sent');\n\n        votes[msg.sender][_to] = _vote;\n    }\n\n    function broadcastGroupTotalVotes(uint256[] memory _groupTotals) public {\n        require(_groupTotals.length == votingOptions.length, 'Group totals must have total for each voting option');\n        require(groupTotals[msg.sender].length == 0, 'Sender already broadcasted the group totals');\n\n        groupTotals[msg.sender] = _groupTotals;\n    }\n\n    function calculateTotals() public {\n        require(msg.sender == owner);\n        require(totalCounts.length == 0, 'Already calculated the totals');\n\n        for(uint256 i = 0; i < votingOptions.length; i++) {\n            totalCounts.push(0);\n        }\n\n        for(uint256 i = 0; i < registered.length; i++) {\n            for (uint256 j = 0; j < groupTotals[registered[i]].length; j++) {\n                totalCounts[j] += groupTotals[registered[i]][j];\n            }\n        }\n    }\n\n    function stop() public {\n        require(msg.sender == owner);\n        selfdestruct(msg.sender);\n    }\n}",
  "sourcePath": "/Users/florens/Documents/Master/Master Thesis/grouping/contracts/ShuffleAndRoundRobin.sol",
  "compiler": {
    "name": "solc",
    "version": "0.5.0+commit.1d4f565a.Emscripten.clang"
  },
  "schemaVersion": "3.0.9",
  "updatedAt": "2020-06-08T11:51:27.664Z",
  "devdoc": {
    "methods": {}
  },
  "userdoc": {
    "methods": {}
  }
}