{
  "contractName": "ShuffleAndRoundRobin",
  "abi": [
    {
      "inputs": [],
      "payable": false,
      "stateMutability": "nonpayable",
      "type": "constructor"
    },
    {
      "anonymous": false,
      "inputs": [
        {
          "indexed": false,
          "internalType": "string",
          "name": "description",
          "type": "string"
        }
      ],
      "name": "LogNewProvableQuery",
      "type": "event"
    },
    {
      "anonymous": false,
      "inputs": [
        {
          "indexed": false,
          "internalType": "string",
          "name": "randomNumber",
          "type": "string"
        }
      ],
      "name": "LogNewRandomNumber",
      "type": "event"
    },
    {
      "anonymous": false,
      "inputs": [
        {
          "indexed": true,
          "internalType": "address",
          "name": "_address",
          "type": "address"
        },
        {
          "indexed": true,
          "internalType": "uint256",
          "name": "_group",
          "type": "uint256"
        }
      ],
      "name": "distributed",
      "type": "event"
    },
    {
      "anonymous": false,
      "inputs": [
        {
          "indexed": true,
          "internalType": "uint256",
          "name": "_rand",
          "type": "uint256"
        },
        {
          "indexed": true,
          "internalType": "bool",
          "name": "_accepted",
          "type": "bool"
        }
      ],
      "name": "randomNr",
      "type": "event"
    },
    {
      "constant": true,
      "inputs": [
        {
          "internalType": "address",
          "name": "",
          "type": "address"
        }
      ],
      "name": "commits",
      "outputs": [
        {
          "internalType": "bytes32",
          "name": "",
          "type": "bytes32"
        }
      ],
      "payable": false,
      "stateMutability": "view",
      "type": "function"
    },
    {
      "constant": true,
      "inputs": [
        {
          "internalType": "address",
          "name": "",
          "type": "address"
        }
      ],
      "name": "groups",
      "outputs": [
        {
          "internalType": "uint256",
          "name": "",
          "type": "uint256"
        }
      ],
      "payable": false,
      "stateMutability": "view",
      "type": "function"
    },
    {
      "constant": true,
      "inputs": [
        {
          "internalType": "address",
          "name": "",
          "type": "address"
        }
      ],
      "name": "isRegistered",
      "outputs": [
        {
          "internalType": "bool",
          "name": "",
          "type": "bool"
        }
      ],
      "payable": false,
      "stateMutability": "view",
      "type": "function"
    },
    {
      "constant": true,
      "inputs": [],
      "name": "numberOfGroups",
      "outputs": [
        {
          "internalType": "uint256",
          "name": "",
          "type": "uint256"
        }
      ],
      "payable": false,
      "stateMutability": "view",
      "type": "function"
    },
    {
      "constant": true,
      "inputs": [],
      "name": "provableRandomNumber",
      "outputs": [
        {
          "internalType": "uint256",
          "name": "",
          "type": "uint256"
        }
      ],
      "payable": false,
      "stateMutability": "view",
      "type": "function"
    },
    {
      "constant": true,
      "inputs": [
        {
          "internalType": "uint256",
          "name": "",
          "type": "uint256"
        }
      ],
      "name": "registered",
      "outputs": [
        {
          "internalType": "address",
          "name": "",
          "type": "address"
        }
      ],
      "payable": false,
      "stateMutability": "view",
      "type": "function"
    },
    {
      "constant": true,
      "inputs": [
        {
          "internalType": "address",
          "name": "",
          "type": "address"
        }
      ],
      "name": "reveals",
      "outputs": [
        {
          "internalType": "string",
          "name": "",
          "type": "string"
        }
      ],
      "payable": false,
      "stateMutability": "view",
      "type": "function"
    },
    {
      "constant": true,
      "inputs": [],
      "name": "seedCommit",
      "outputs": [
        {
          "internalType": "bytes32",
          "name": "",
          "type": "bytes32"
        }
      ],
      "payable": false,
      "stateMutability": "view",
      "type": "function"
    },
    {
      "constant": true,
      "inputs": [],
      "name": "seedReveal",
      "outputs": [
        {
          "internalType": "string",
          "name": "",
          "type": "string"
        }
      ],
      "payable": false,
      "stateMutability": "view",
      "type": "function"
    },
    {
      "constant": true,
      "inputs": [
        {
          "internalType": "uint256",
          "name": "",
          "type": "uint256"
        }
      ],
      "name": "shuffled",
      "outputs": [
        {
          "internalType": "address",
          "name": "",
          "type": "address"
        }
      ],
      "payable": false,
      "stateMutability": "view",
      "type": "function"
    },
    {
      "constant": true,
      "inputs": [
        {
          "internalType": "bytes",
          "name": "",
          "type": "bytes"
        },
        {
          "internalType": "uint256",
          "name": "",
          "type": "uint256"
        }
      ],
      "name": "smartDHXs",
      "outputs": [
        {
          "internalType": "contract SmartDiffieHellman",
          "name": "",
          "type": "address"
        }
      ],
      "payable": false,
      "stateMutability": "view",
      "type": "function"
    },
    {
      "constant": true,
      "inputs": [],
      "name": "state",
      "outputs": [
        {
          "internalType": "enum ShuffleAndRoundRobin.State",
          "name": "",
          "type": "uint8"
        }
      ],
      "payable": false,
      "stateMutability": "view",
      "type": "function"
    },
    {
      "constant": false,
      "inputs": [
        {
          "internalType": "bytes32",
          "name": "myid",
          "type": "bytes32"
        },
        {
          "internalType": "string",
          "name": "result",
          "type": "string"
        }
      ],
      "name": "__callback",
      "outputs": [],
      "payable": false,
      "stateMutability": "nonpayable",
      "type": "function"
    },
    {
      "constant": false,
      "inputs": [
        {
          "internalType": "bytes32",
          "name": "_myid",
          "type": "bytes32"
        },
        {
          "internalType": "string",
          "name": "_result",
          "type": "string"
        },
        {
          "internalType": "bytes",
          "name": "_proof",
          "type": "bytes"
        }
      ],
      "name": "__callback",
      "outputs": [],
      "payable": false,
      "stateMutability": "nonpayable",
      "type": "function"
    },
    {
      "constant": false,
      "inputs": [],
      "name": "getProvableRandomNumber",
      "outputs": [],
      "payable": true,
      "stateMutability": "payable",
      "type": "function"
    },
    {
      "constant": false,
      "inputs": [],
      "name": "register",
      "outputs": [],
      "payable": false,
      "stateMutability": "nonpayable",
      "type": "function"
    },
    {
      "constant": false,
      "inputs": [
        {
          "internalType": "bytes32",
          "name": "_seedCommit",
          "type": "bytes32"
        }
      ],
      "name": "startCommitPhase",
      "outputs": [],
      "payable": false,
      "stateMutability": "nonpayable",
      "type": "function"
    },
    {
      "constant": false,
      "inputs": [
        {
          "internalType": "string",
          "name": "_seedReveal",
          "type": "string"
        }
      ],
      "name": "startRevealPhase",
      "outputs": [],
      "payable": false,
      "stateMutability": "nonpayable",
      "type": "function"
    },
    {
      "constant": false,
      "inputs": [
        {
          "internalType": "bytes32",
          "name": "_hash",
          "type": "bytes32"
        }
      ],
      "name": "commit",
      "outputs": [],
      "payable": false,
      "stateMutability": "nonpayable",
      "type": "function"
    },
    {
      "constant": false,
      "inputs": [
        {
          "internalType": "string",
          "name": "_secret",
          "type": "string"
        }
      ],
      "name": "reveal",
      "outputs": [],
      "payable": false,
      "stateMutability": "nonpayable",
      "type": "function"
    },
    {
      "constant": false,
      "inputs": [
        {
          "internalType": "uint256",
          "name": "_groups",
          "type": "uint256"
        }
      ],
      "name": "distribute",
      "outputs": [],
      "payable": false,
      "stateMutability": "nonpayable",
      "type": "function"
    },
    {
      "constant": true,
      "inputs": [
        {
          "internalType": "address",
          "name": "_first",
          "type": "address"
        },
        {
          "internalType": "address",
          "name": "_second",
          "type": "address"
        }
      ],
      "name": "getEdgeKey",
      "outputs": [
        {
          "internalType": "bytes",
          "name": "_edgeKey",
          "type": "bytes"
        }
      ],
      "payable": false,
      "stateMutability": "view",
      "type": "function"
    },
    {
      "constant": false,
      "inputs": [
        {
          "internalType": "address",
          "name": "_first",
          "type": "address"
        },
        {
          "internalType": "address",
          "name": "_second",
          "type": "address"
        }
      ],
      "name": "deploySmartDHX",
      "outputs": [
        {
          "internalType": "bytes",
          "name": "_edgeKey",
          "type": "bytes"
        }
      ],
      "payable": false,
      "stateMutability": "nonpayable",
      "type": "function"
    },
    {
      "constant": false,
      "inputs": [],
      "name": "stop",
      "outputs": [],
      "payable": false,
      "stateMutability": "nonpayable",
      "type": "function"
    }
  ],
  "bytecode": "0x60806040526000600660006101000a81548160ff0219169083600381111561002357fe5b021790555033601160006101000a81548173ffffffffffffffffffffffffffffffffffffffff021916908373ffffffffffffffffffffffffffffffffffffffff16021790555034801561007557600080fd5b5073864b12a155db678f6033a963bc2e1c35b8cebfda600160006101000a81548173ffffffffffffffffffffffffffffffffffffffff021916908373ffffffffffffffffffffffffffffffffffffffff160217905550614ac6806100da6000396000f3fe6080604052600436106200016a5760003560e01c80638f36f02d11620000c7578063bff3e1ba1162000079578063bff3e1ba1462000ab4578063c19d93fb1462000b85578063c3c5a5471462000bc2578063e6cf13461462000c2f578063f14fcbc81462000cae578063f2ea38cb1462000ced576200016a565b80638f36f02d146200081a5780638f4a5e16146200090b57806391c05b0b14620009fc5780639e7186db1462000a3b578063b60baacb1462000a47578063bf9524961462000a86576200016a565b806348a9e4e0116200012157806348a9e4e0146200044b5780634c26124714620004ca5780636311edb4146200059957806363d5e44d14620006b25780636a7c5571146200071b5780637b43a8e614620007b1576200016a565b806307da68f5146200016f5780631aa3a008146200018957806323939c6714620001a357806326cef7d714620001d157806327dc297e14620001ff57806338bbfa5014620002d8575b600080fd5b3480156200017c57600080fd5b506200018762000dbc565b005b3480156200019657600080fd5b50620001a162000e30565b005b348015620001b057600080fd5b50620001bb62000f7d565b6040518082815260200191505060405180910390f35b348015620001de57600080fd5b50620001e962000f83565b6040518082815260200191505060405180910390f35b3480156200020c57600080fd5b50620002d6600480360360408110156200022557600080fd5b8101908080359060200190929190803590602001906401000000008111156200024d57600080fd5b8201836020820111156200026057600080fd5b803590602001918460018302840111640100000000831117156200028357600080fd5b91908080601f016020809104026020016040519081016040528093929190818152602001838380828437600081840152601f19601f82011690508083019250505050505050919291929050505062000f89565b005b348015620002e557600080fd5b506200044960048036036060811015620002fe57600080fd5b8101908080359060200190929190803590602001906401000000008111156200032657600080fd5b8201836020820111156200033957600080fd5b803590602001918460018302840111640100000000831117156200035c57600080fd5b91908080601f016020809104026020016040519081016040528093929190818152602001838380828437600081840152601f19601f82011690508083019250505050505050919291929080359060200190640100000000811115620003c057600080fd5b820183602082011115620003d357600080fd5b80359060200191846001830284011164010000000083111715620003f657600080fd5b91908080601f016020809104026020016040519081016040528093929190818152602001838380828437600081840152601f19601f8201169050808301925050505050505091929192905050506200107f565b005b3480156200045857600080fd5b5062000488600480360360208110156200047157600080fd5b8101908080359060200190929190505050620010a2565b604051808273ffffffffffffffffffffffffffffffffffffffff1673ffffffffffffffffffffffffffffffffffffffff16815260200191505060405180910390f35b348015620004d757600080fd5b506200059760048036036020811015620004f057600080fd5b81019080803590602001906401000000008111156200050e57600080fd5b8201836020820111156200052157600080fd5b803590602001918460018302840111640100000000831117156200054457600080fd5b91908080601f016020809104026020016040519081016040528093929190818152602001838380828437600081840152601f19601f820116905080830192505050505050509192919290505050620010df565b005b348015620005a657600080fd5b506200067060048036036040811015620005bf57600080fd5b8101908080359060200190640100000000811115620005dd57600080fd5b820183602082011115620005f057600080fd5b803590602001918460018302840111640100000000831117156200061357600080fd5b91908080601f016020809104026020016040519081016040528093929190818152602001838380828437600081840152601f19601f8201169050808301925050505050505091929192908035906020019092919050505062001358565b604051808273ffffffffffffffffffffffffffffffffffffffff1673ffffffffffffffffffffffffffffffffffffffff16815260200191505060405180910390f35b348015620006bf57600080fd5b506200070560048036036020811015620006d857600080fd5b81019080803573ffffffffffffffffffffffffffffffffffffffff169060200190929190505050620013ba565b6040518082815260200191505060405180910390f35b3480156200072857600080fd5b5062000733620013d2565b6040518080602001828103825283818151815260200191508051906020019080838360005b838110156200077557808201518184015260208101905062000758565b50505050905090810190601f168015620007a35780820380516001836020036101000a031916815260200191505b509250505060405180910390f35b348015620007be57600080fd5b506200080460048036036020811015620007d757600080fd5b81019080803573ffffffffffffffffffffffffffffffffffffffff16906020019092919050505062001474565b6040518082815260200191505060405180910390f35b3480156200082757600080fd5b506200088d600480360360408110156200084057600080fd5b81019080803573ffffffffffffffffffffffffffffffffffffffff169060200190929190803573ffffffffffffffffffffffffffffffffffffffff1690602001909291905050506200148c565b6040518080602001828103825283818151815260200191508051906020019080838360005b83811015620008cf578082015181840152602081019050620008b2565b50505050905090810190601f168015620008fd5780820380516001836020036101000a031916815260200191505b509250505060405180910390f35b3480156200091857600080fd5b506200097e600480360360408110156200093157600080fd5b81019080803573ffffffffffffffffffffffffffffffffffffffff169060200190929190803573ffffffffffffffffffffffffffffffffffffffff169060200190929190505050620015e0565b6040518080602001828103825283818151815260200191508051906020019080838360005b83811015620009c0578082015181840152602081019050620009a3565b50505050905090810190601f168015620009ee5780820380516001836020036101000a031916815260200191505b509250505060405180910390f35b34801562000a0957600080fd5b5062000a396004803603602081101562000a2257600080fd5b81019080803590602001909291905050506200188b565b005b62000a4562001d0a565b005b34801562000a5457600080fd5b5062000a846004803603602081101562000a6d57600080fd5b810190808035906020019092919050505062001e5b565b005b34801562000a9357600080fd5b5062000a9e6200204b565b6040518082815260200191505060405180910390f35b34801562000ac157600080fd5b5062000b076004803603602081101562000ada57600080fd5b81019080803573ffffffffffffffffffffffffffffffffffffffff16906020019092919050505062002051565b6040518080602001828103825283818151815260200191508051906020019080838360005b8381101562000b4957808201518184015260208101905062000b2c565b50505050905090810190601f16801562000b775780820380516001836020036101000a031916815260200191505b509250505060405180910390f35b34801562000b9257600080fd5b5062000b9d62002105565b6040518082600381111562000bae57fe5b60ff16815260200191505060405180910390f35b34801562000bcf57600080fd5b5062000c156004803603602081101562000be857600080fd5b81019080803573ffffffffffffffffffffffffffffffffffffffff16906020019092919050505062002118565b604051808215151515815260200191505060405180910390f35b34801562000c3c57600080fd5b5062000c6c6004803603602081101562000c5557600080fd5b810190808035906020019092919050505062002138565b604051808273ffffffffffffffffffffffffffffffffffffffff1673ffffffffffffffffffffffffffffffffffffffff16815260200191505060405180910390f35b34801562000cbb57600080fd5b5062000ceb6004803603602081101562000cd457600080fd5b810190808035906020019092919050505062002175565b005b34801562000cfa57600080fd5b5062000dba6004803603602081101562000d1357600080fd5b810190808035906020019064010000000081111562000d3157600080fd5b82018360208201111562000d4457600080fd5b8035906020019184600183028401116401000000008311171562000d6757600080fd5b91908080601f016020809104026020016040519081016040528093929190818152602001838380828437600081840152601f19601f8201169050808301925050505050505091929192905050506200231a565b005b601160009054906101000a900473ffffffffffffffffffffffffffffffffffffffff1673ffffffffffffffffffffffffffffffffffffffff163373ffffffffffffffffffffffffffffffffffffffff161462000e1757600080fd5b3373ffffffffffffffffffffffffffffffffffffffff16ff5b6000600381111562000e3e57fe5b600660009054906101000a900460ff16600381111562000e5a57fe5b1462000e6557600080fd5b600860003373ffffffffffffffffffffffffffffffffffffffff1673ffffffffffffffffffffffffffffffffffffffff16815260200190815260200160002060009054906101000a900460ff161562000ebd57600080fd5b6001600860003373ffffffffffffffffffffffffffffffffffffffff1673ffffffffffffffffffffffffffffffffffffffff16815260200190815260200160002060006101000a81548160ff02191690831515021790555060073390806001815401808255809150509060018203906000526020600020016000909192909190916101000a81548173ffffffffffffffffffffffffffffffffffffffff021916908373ffffffffffffffffffffffffffffffffffffffff16021790555050565b600b5481565b60055481565b62000f936200250a565b73ffffffffffffffffffffffffffffffffffffffff163373ffffffffffffffffffffffffffffffffffffffff161462000fcb57600080fd5b7f067c40d9272b02fb8e9bfe6a064b465504d8f549abce9d58121baec5ffaecae1816040518080602001828103825283818151815260200191508051906020019080838360005b838110156200102f57808201518184015260208101905062001012565b50505050905090810190601f1680156200105d5780820380516001836020036101000a031916815260200191505b509250505060405180910390a1620010758162002837565b6005819055505050565b6000801b600360008060001b815260200190815260200160002081905550505050565b600f8181548110620010b057fe5b906000526020600020016000915054906101000a900473ffffffffffffffffffffffffffffffffffffffff1681565b600860003373ffffffffffffffffffffffffffffffffffffffff1673ffffffffffffffffffffffffffffffffffffffff16815260200190815260200160002060009054906101000a900460ff166200119f576040517f08c379a00000000000000000000000000000000000000000000000000000000081526004018080602001828103825260148152602001807f566f746572206e6f74207265676973746572656400000000000000000000000081525060200191505060405180910390fd5b60026003811115620011ad57fe5b600660009054906101000a900460ff166003811115620011c957fe5b146200123d576040517f08c379a00000000000000000000000000000000000000000000000000000000081526004018080602001828103825260178152602001807f4d75737420626520696e2072657665616c20706861736500000000000000000081525060200191505060405180910390fd5b600081805190602001209050600960003373ffffffffffffffffffffffffffffffffffffffff1673ffffffffffffffffffffffffffffffffffffffff168152602001908152602001600020548114620012fe576040517f08c379a000000000000000000000000000000000000000000000000000000000815260040180806020018281038252601c8152602001807f72657665616c20646f6573206e6f74206d6174636820636f6d6d69740000000081525060200191505060405180910390fd5b81600a60003373ffffffffffffffffffffffffffffffffffffffff1673ffffffffffffffffffffffffffffffffffffffff168152602001908152602001600020908051906020019062001353929190620039ff565b505050565b60128280516020810182018051848252602083016020850120818352809550505050505081815481106200138857fe5b906000526020600020016000915091509054906101000a900473ffffffffffffffffffffffffffffffffffffffff1681565b600d6020528060005260406000206000915090505481565b600c8054600181600116156101000203166002900480601f0160208091040260200160405190810160405280929190818152602001828054600181600116156101000203166002900480156200146c5780601f1062001440576101008083540402835291602001916200146c565b820191906000526020600020905b8154815290600101906020018083116200144e57829003601f168201915b505050505081565b60096020528060005260406000206000915090505481565b60608173ffffffffffffffffffffffffffffffffffffffff168373ffffffffffffffffffffffffffffffffffffffff16101562001551578282604051602001808373ffffffffffffffffffffffffffffffffffffffff1673ffffffffffffffffffffffffffffffffffffffff1660601b81526014018273ffffffffffffffffffffffffffffffffffffffff1673ffffffffffffffffffffffffffffffffffffffff1660601b8152601401925050506040516020818303038152906040529050620015da565b8183604051602001808373ffffffffffffffffffffffffffffffffffffffff1673ffffffffffffffffffffffffffffffffffffffff1660601b81526014018273ffffffffffffffffffffffffffffffffffffffff1673ffffffffffffffffffffffffffffffffffffffff1660601b81526014019250505060405160208183030381529060405290505b92915050565b6060601160009054906101000a900473ffffffffffffffffffffffffffffffffffffffff1673ffffffffffffffffffffffffffffffffffffffff163373ffffffffffffffffffffffffffffffffffffffff16146200163d57600080fd5b6003808111156200164a57fe5b600660009054906101000a900460ff1660038111156200166657fe5b146200167157600080fd5b6000604051620016819062003a86565b604051809103906000f0801580156200169e573d6000803e3d6000fd5b5090506000604051620016b19062003a86565b604051809103906000f080158015620016ce573d6000803e3d6000fd5b5090506060620016df86866200148c565b90506012816040518082805190602001908083835b60208310620017195780518252602082019150602081019050602083039250620016f4565b6001836020036101000a03801982511681845116808217855250505050505090500191505090815260200160405180910390208390806001815401808255809150509060018203906000526020600020016000909192909190916101000a81548173ffffffffffffffffffffffffffffffffffffffff021916908373ffffffffffffffffffffffffffffffffffffffff160217905550506012816040518082805190602001908083835b60208310620017e85780518252602082019150602081019050602083039250620017c3565b6001836020036101000a03801982511681845116808217855250505050505090500191505090815260200160405180910390208290806001815401808255809150509060018203906000526020600020016000909192909190916101000a81548173ffffffffffffffffffffffffffffffffffffffff021916908373ffffffffffffffffffffffffffffffffffffffff1602179055505080935050505092915050565b601160009054906101000a900473ffffffffffffffffffffffffffffffffffffffff1673ffffffffffffffffffffffffffffffffffffffff163373ffffffffffffffffffffffffffffffffffffffff1614620018e657600080fd5b60006005541162001943576040517f08c379a0000000000000000000000000000000000000000000000000000000008152600401808060200182810382526026815260200180620049526026913960400191505060405180910390fd5b600260038111156200195157fe5b600660009054906101000a900460ff1660038111156200196d57fe5b14620019e1576040517f08c379a00000000000000000000000000000000000000000000000000000000081526004018080602001828103825260178152602001807f4d75737420626520696e2072657665616c20706861736500000000000000000081525060200191505060405180910390fd5b6001811162001a58576040517f08c379a000000000000000000000000000000000000000000000000000000000815260040180806020018281038252601f8152602001807f5468657265206d757374206265206d6f7265207468616e20312067726f75700081525060200191505060405180910390fd5b6000600c8054600181600116156101000203166002900490501162001ae5576040517f08c379a00000000000000000000000000000000000000000000000000000000081526004018080602001828103825260188152602001807f4e6f20736565642066726f6d206f776e657220666f756e64000000000000000081525060200191505060405180910390fd5b60006007805490501162001b61576040517f08c379a000000000000000000000000000000000000000000000000000000000815260040180806020018281038252601e8152602001807f546865726520617265206e6f207265676973746572656420766f74657273000081525060200191505060405180910390fd5b62001bed600c604051602001808280546001816001161561010002031660029004801562001bc95780601f1062001ba657610100808354040283529182019162001bc9565b820191906000526020600020905b81548152906001019060200180831162001bb4575b50509150506040516020818303038152906040528051906020012060001c6200284d565b62001bf88162002c8c565b6003600660006101000a81548160ff0219169083600381111562001c1857fe5b021790555060008090505b60078054905081101562001d065760006007828154811062001c4157fe5b9060005260206000200160009054906101000a900473ffffffffffffffffffffffffffffffffffffffff1690506000600d60008373ffffffffffffffffffffffffffffffffffffffff1673ffffffffffffffffffffffffffffffffffffffff168152602001908152602001600020549050808273ffffffffffffffffffffffffffffffffffffffff167f774c33ab58e0ee92b864f81d9310d1b9b002c5941b4f5275a0a95255856f546e60405160405180910390a35050808060010191505062001c23565b5050565b601160009054906101000a900473ffffffffffffffffffffffffffffffffffffffff1673ffffffffffffffffffffffffffffffffffffffff163373ffffffffffffffffffffffffffffffffffffffff161462001db2576040517f08c379a0000000000000000000000000000000000000000000000000000000008152600401808060200182810382526034815260200180620049786034913960400191505060405180910390fd5b7fc4dc360d0a9c0677a3379ae0a3d81e887f761e65fdf3d7e00859d1bcd3c4738960405180806020018281038252603681526020018062004a336036913960400191505060405180910390a162001e586040518060400160405280600381526020017f55524c00000000000000000000000000000000000000000000000000000000008152506040518060800160405280605e8152602001620049d5605e913962002dbf565b50565b6000600381111562001e6957fe5b600660009054906101000a900460ff16600381111562001e8557fe5b1462001ef9576040517f08c379a000000000000000000000000000000000000000000000000000000000815260040180806020018281038252601d8152602001807f4d75737420626520696e20726567697374726174696f6e20706861736500000081525060200191505060405180910390fd5b601160009054906101000a900473ffffffffffffffffffffffffffffffffffffffff1673ffffffffffffffffffffffffffffffffffffffff163373ffffffffffffffffffffffffffffffffffffffff161462001fa1576040517f08c379a0000000000000000000000000000000000000000000000000000000008152600401808060200182810382526029815260200180620049296029913960400191505060405180910390fd5b6000602060ff16116200201c576040517f08c379a000000000000000000000000000000000000000000000000000000000815260040180806020018281038252601b8152602001807f5468652073656564206973206e6f7420676f6f6420656e6f756768000000000081525060200191505060405180910390fd5b6001600660006101000a81548160ff021916908360038111156200203c57fe5b021790555080600b8190555050565b600e5481565b600a6020528060005260406000206000915090508054600181600116156101000203166002900480601f016020809104026020016040519081016040528092919081815260200182805460018160011615610100020316600290048015620020fd5780601f10620020d157610100808354040283529160200191620020fd565b820191906000526020600020905b815481529060010190602001808311620020df57829003601f168201915b505050505081565b600660009054906101000a900460ff1681565b60086020528060005260406000206000915054906101000a900460ff1681565b600781815481106200214657fe5b906000526020600020016000915054906101000a900473ffffffffffffffffffffffffffffffffffffffff1681565b600860003373ffffffffffffffffffffffffffffffffffffffff1673ffffffffffffffffffffffffffffffffffffffff16815260200190815260200160002060009054906101000a900460ff1662002235576040517f08c379a00000000000000000000000000000000000000000000000000000000081526004018080602001828103825260148152602001807f566f746572206e6f74207265676973746572656400000000000000000000000081525060200191505060405180910390fd5b600160038111156200224357fe5b600660009054906101000a900460ff1660038111156200225f57fe5b14620022d3576040517f08c379a00000000000000000000000000000000000000000000000000000000081526004018080602001828103825260178152602001807f4d75737420626520696e20636f6d6d697420706861736500000000000000000081525060200191505060405180910390fd5b80600960003373ffffffffffffffffffffffffffffffffffffffff1673ffffffffffffffffffffffffffffffffffffffff1681526020019081526020016000208190555050565b600160038111156200232857fe5b600660009054906101000a900460ff1660038111156200234457fe5b14620023b8576040517f08c379a00000000000000000000000000000000000000000000000000000000081526004018080602001828103825260178152602001807f4d75737420626520696e20636f6d6d697420706861736500000000000000000081525060200191505060405180910390fd5b601160009054906101000a900473ffffffffffffffffffffffffffffffffffffffff1673ffffffffffffffffffffffffffffffffffffffff163373ffffffffffffffffffffffffffffffffffffffff161462002460576040517f08c379a000000000000000000000000000000000000000000000000000000000815260040180806020018281038252602981526020018062004a696029913960400191505060405180910390fd5b6002600660006101000a81548160ff021916908360038111156200248057fe5b0217905550600081805190602001209050600b548114620024ed576040517f08c379a0000000000000000000000000000000000000000000000000000000008152600401808060200182810382526029815260200180620049ac6029913960400191505060405180910390fd5b81600c908051906020019062002505929190620039ff565b505050565b60008073ffffffffffffffffffffffffffffffffffffffff16600160009054906101000a900473ffffffffffffffffffffffffffffffffffffffff1673ffffffffffffffffffffffffffffffffffffffff161480620025955750600062002593600160009054906101000a900473ffffffffffffffffffffffffffffffffffffffff1662003323565b145b15620025a957620025a760006200332e565b505b600160009054906101000a900473ffffffffffffffffffffffffffffffffffffffff1673ffffffffffffffffffffffffffffffffffffffff166338cc48316040518163ffffffff1660e01b8152600401602060405180830381600087803b1580156200261457600080fd5b505af115801562002629573d6000803e3d6000fd5b505050506040513d60208110156200264057600080fd5b810190808051906020019092919050505073ffffffffffffffffffffffffffffffffffffffff166000809054906101000a900473ffffffffffffffffffffffffffffffffffffffff1673ffffffffffffffffffffffffffffffffffffffff16146200278d57600160009054906101000a900473ffffffffffffffffffffffffffffffffffffffff1673ffffffffffffffffffffffffffffffffffffffff166338cc48316040518163ffffffff1660e01b8152600401602060405180830381600087803b1580156200271057600080fd5b505af115801562002725573d6000803e3d6000fd5b505050506040513d60208110156200273c57600080fd5b81019080805190602001909291905050506000806101000a81548173ffffffffffffffffffffffffffffffffffffffff021916908373ffffffffffffffffffffffffffffffffffffffff1602179055505b6000809054906101000a900473ffffffffffffffffffffffffffffffffffffffff1673ffffffffffffffffffffffffffffffffffffffff1663c281d19e6040518163ffffffff1660e01b815260040160206040518083038186803b158015620027f557600080fd5b505afa1580156200280a573d6000803e3d6000fd5b505050506040513d60208110156200282157600080fd5b8101908080519060200190929190505050905090565b60006200284682600062003341565b9050919050565b601160009054906101000a900473ffffffffffffffffffffffffffffffffffffffff1673ffffffffffffffffffffffffffffffffffffffff163373ffffffffffffffffffffffffffffffffffffffff1614620028a857600080fd5b6000600143034060001c9050600080600090505b6007805490508110156200299b57600a60003373ffffffffffffffffffffffffffffffffffffffff1673ffffffffffffffffffffffffffffffffffffffff16815260200190815260200160002060405160200180828054600181600116156101000203166002900480156200296b5780601f10620029485761010080835404028352918201916200296b565b820191906000526020600020905b81548152906001019060200180831162002956575b50509150506040516020818303038152906040528051906020012060001c820191508080600101915050620028bc565b5060006001905060008090505b60078054905081101562002c85576000805b6601000000000000600b6405deece66d86020181620029d557fe5b069150819350858201905086810190508481019050428101905060055481019050600780549050818162002a0557fe5b069050601060006007838154811062002a1a57fe5b9060005260206000200160009054906101000a900473ffffffffffffffffffffffffffffffffffffffff1673ffffffffffffffffffffffffffffffffffffffff1673ffffffffffffffffffffffffffffffffffffffff16815260200190815260200160002060009054906101000a900460ff16151515817fd84b79b64ded9cb22be639e98c3de1f1c48160ad04b001bad25640c137342e4060405160405180910390a3601060006007838154811062002acf57fe5b9060005260206000200160009054906101000a900473ffffffffffffffffffffffffffffffffffffffff1673ffffffffffffffffffffffffffffffffffffffff1673ffffffffffffffffffffffffffffffffffffffff16815260200190815260200160002060009054906101000a900460ff16620029ba576001601060006007848154811062002b5b57fe5b9060005260206000200160009054906101000a900473ffffffffffffffffffffffffffffffffffffffff1673ffffffffffffffffffffffffffffffffffffffff1673ffffffffffffffffffffffffffffffffffffffff16815260200190815260200160002060006101000a81548160ff021916908315150217905550600f6007828154811062002be757fe5b9060005260206000200160009054906101000a900473ffffffffffffffffffffffffffffffffffffffff1690806001815401808255809150509060018203906000526020600020016000909192909190916101000a81548173ffffffffffffffffffffffffffffffffffffffff021916908373ffffffffffffffffffffffffffffffffffffffff1602179055505050508080600101915050620029a8565b5050505050565b601160009054906101000a900473ffffffffffffffffffffffffffffffffffffffff1673ffffffffffffffffffffffffffffffffffffffff163373ffffffffffffffffffffffffffffffffffffffff161462002ce757600080fd5b60008090505b600f8054905081101562002d8f5781818162002d0557fe5b06600d60006007848154811062002d1857fe5b9060005260206000200160009054906101000a900473ffffffffffffffffffffffffffffffffffffffff1673ffffffffffffffffffffffffffffffffffffffff1673ffffffffffffffffffffffffffffffffffffffff16815260200190815260200160002081905550808060010191505062002ced565b5080600e819055506003600660006101000a81548160ff0219169083600381111562002db757fe5b021790555050565b60008073ffffffffffffffffffffffffffffffffffffffff16600160009054906101000a900473ffffffffffffffffffffffffffffffffffffffff1673ffffffffffffffffffffffffffffffffffffffff16148062002e4a5750600062002e48600160009054906101000a900473ffffffffffffffffffffffffffffffffffffffff1662003323565b145b1562002e5e5762002e5c60006200332e565b505b600160009054906101000a900473ffffffffffffffffffffffffffffffffffffffff1673ffffffffffffffffffffffffffffffffffffffff166338cc48316040518163ffffffff1660e01b8152600401602060405180830381600087803b15801562002ec957600080fd5b505af115801562002ede573d6000803e3d6000fd5b505050506040513d602081101562002ef557600080fd5b810190808051906020019092919050505073ffffffffffffffffffffffffffffffffffffffff166000809054906101000a900473ffffffffffffffffffffffffffffffffffffffff1673ffffffffffffffffffffffffffffffffffffffff16146200304257600160009054906101000a900473ffffffffffffffffffffffffffffffffffffffff1673ffffffffffffffffffffffffffffffffffffffff166338cc48316040518163ffffffff1660e01b8152600401602060405180830381600087803b15801562002fc557600080fd5b505af115801562002fda573d6000803e3d6000fd5b505050506040513d602081101562002ff157600080fd5b81019080805190602001909291905050506000806101000a81548173ffffffffffffffffffffffffffffffffffffffff021916908373ffffffffffffffffffffffffffffffffffffffff1602179055505b60008060009054906101000a900473ffffffffffffffffffffffffffffffffffffffff1673ffffffffffffffffffffffffffffffffffffffff1663524f3889856040518263ffffffff1660e01b81526004018080602001828103825283818151815260200191508051906020019080838360005b83811015620030d3578082015181840152602081019050620030b6565b50505050905090810190601f168015620031015780820380516001836020036101000a031916815260200191505b5092505050602060405180830381600087803b1580156200312157600080fd5b505af115801562003136573d6000803e3d6000fd5b505050506040513d60208110156200314d57600080fd5b8101908080519060200190929190505050905062030d403a02670de0b6b3a76400000181111562003185576000801b9150506200331d565b6000809054906101000a900473ffffffffffffffffffffffffffffffffffffffff1673ffffffffffffffffffffffffffffffffffffffff1663adf59f9982600087876040518563ffffffff1660e01b8152600401808481526020018060200180602001838103835285818151815260200191508051906020019080838360005b838110156200322257808201518184015260208101905062003205565b50505050905090810190601f168015620032505780820380516001836020036101000a031916815260200191505b50838103825284818151815260200191508051906020019080838360005b838110156200328b5780820151818401526020810190506200326e565b50505050905090810190601f168015620032b95780820380516001836020036101000a031916815260200191505b50955050505050506020604051808303818588803b158015620032db57600080fd5b505af1158015620032f0573d6000803e3d6000fd5b50505050506040513d60208110156200330857600080fd5b81019080805190602001909291905050509150505b92915050565b6000813b9050919050565b60006200333a62003462565b9050919050565b600060608390506000809050600080905060008090505b8351811015620034425760308482815181106200337157fe5b602001015160f81c60f81b60f81c60ff1610158015620033af575060398482815181106200339b57fe5b602001015160f81c60f81b60f81c60ff1611155b1562003407578115620033d6576000861415620033cc5762003442565b8580600190039650505b600a830292506030848281518110620033eb57fe5b602001015160f81c60f81b60f81c60ff16038301925062003434565b602e8482815181106200341657fe5b602001015160f81c60f81b60f81c60ff1614156200343357600191505b5b808060010191505062003358565b506000851115620034565784600a0a820291505b81935050505092915050565b60008062003484731d3b2638a7cc9f2cb3d298a3da7a90b67e5506ed62003323565b11156200352a57731d3b2638a7cc9f2cb3d298a3da7a90b67e5506ed600160006101000a81548173ffffffffffffffffffffffffffffffffffffffff021916908373ffffffffffffffffffffffffffffffffffffffff160217905550620035206040518060400160405280600b81526020017f6574685f6d61696e6e6574000000000000000000000000000000000000000000815250620039e3565b60019050620039e0565b60006200354b73c03a2615d5efaf5f49f60b7bb6583eaec212fdf162003323565b1115620035f15773c03a2615d5efaf5f49f60b7bb6583eaec212fdf1600160006101000a81548173ffffffffffffffffffffffffffffffffffffffff021916908373ffffffffffffffffffffffffffffffffffffffff160217905550620035e76040518060400160405280600c81526020017f6574685f726f707374656e330000000000000000000000000000000000000000815250620039e3565b60019050620039e0565b60006200361273b7a07bcf2ba2f2703b24c0691b5278999c59ac7e62003323565b1115620036b85773b7a07bcf2ba2f2703b24c0691b5278999c59ac7e600160006101000a81548173ffffffffffffffffffffffffffffffffffffffff021916908373ffffffffffffffffffffffffffffffffffffffff160217905550620036ae6040518060400160405280600981526020017f6574685f6b6f76616e0000000000000000000000000000000000000000000000815250620039e3565b60019050620039e0565b6000620036d973146500cfd35b22e4a392fe0adc06de1a1368ed4862003323565b11156200377f5773146500cfd35b22e4a392fe0adc06de1a1368ed48600160006101000a81548173ffffffffffffffffffffffffffffffffffffffff021916908373ffffffffffffffffffffffffffffffffffffffff160217905550620037756040518060400160405280600b81526020017f6574685f72696e6b656279000000000000000000000000000000000000000000815250620039e3565b60019050620039e0565b6000620037a073a2998efd205fb9d4b4963afb70778d6354ad3a4162003323565b1115620038465773a2998efd205fb9d4b4963afb70778d6354ad3a41600160006101000a81548173ffffffffffffffffffffffffffffffffffffffff021916908373ffffffffffffffffffffffffffffffffffffffff1602179055506200383c6040518060400160405280600a81526020017f6574685f676f65726c6900000000000000000000000000000000000000000000815250620039e3565b60019050620039e0565b600062003867736f485c8bf6fc43ea212e93bbf8ce046c7f1cb47562003323565b1115620038cd57736f485c8bf6fc43ea212e93bbf8ce046c7f1cb475600160006101000a81548173ffffffffffffffffffffffffffffffffffffffff021916908373ffffffffffffffffffffffffffffffffffffffff16021790555060019050620039e0565b6000620038ee7320e12a1f859b3feae5fb2a0a32c18f5a65555bbf62003323565b111562003954577320e12a1f859b3feae5fb2a0a32c18f5a65555bbf600160006101000a81548173ffffffffffffffffffffffffffffffffffffffff021916908373ffffffffffffffffffffffffffffffffffffffff16021790555060019050620039e0565b6000620039757351efaf4c8b3c9afbd5ab9f4bbc82784ab6ef8faa62003323565b1115620039db577351efaf4c8b3c9afbd5ab9f4bbc82784ab6ef8faa600160006101000a81548173ffffffffffffffffffffffffffffffffffffffff021916908373ffffffffffffffffffffffffffffffffffffffff16021790555060019050620039e0565b600090505b90565b8060029080519060200190620039fb929190620039ff565b5050565b828054600181600116156101000203166002900490600052602060002090601f016020900481019282601f1062003a4257805160ff191683800117855562003a73565b8280016001018555821562003a73579182015b8281111562003a7257825182559160200191906001019062003a55565b5b50905062003a82919062003a94565b5090565b610e6c8062003abd83390190565b62003ab991905b8082111562003ab557600081600090555060010162003a9b565b5090565b9056fe60806040527ff3ec75cc015a7f458c242e37c292eef96c40cfb670ed8cff3bba27ee3301205b60005560026001556040518060e0016040528060bc8152602001610d7f60bc91396004908051906020019061005b92919061009d565b50604051806060016040528060318152602001610e3b603191396005908051906020019061008a92919061009d565b5034801561009757600080fd5b50610142565b828054600181600116156101000203166002900490600052602060002090601f016020900481019282601f106100de57805160ff191683800117855561010c565b8280016001018555821561010c579182015b8281111561010b5782518255916020019190600101906100f0565b5b509050610119919061011d565b5090565b61013f91905b8082111561013b576000816000905550600101610123565b5090565b90565b610c2e806101516000396000f3fe608060405234801561001057600080fd5b50600436106100a95760003560e01c806352fef9bb1161007157806352fef9bb146101c95780635fca164b146102175780636fecb6231461029a5780638482e01c146102b85780638b8fbd921461038b578063a34f8c9d146103a9576100a9565b806307da68f5146100ae57806309cdcf9b146100b85780632e7e3643146100e657806332e7c5bf146101285780633f74a95e14610146575b600080fd5b6100b66103f5565b005b6100e4600480360360208110156100ce57600080fd5b810190808035906020019092919050505061040e565b005b610112600480360360208110156100fc57600080fd5b8101908080359060200190929190505050610459565b6040518082815260200191505060405180910390f35b61013061057e565b6040518082815260200191505060405180910390f35b61014e610584565b6040518080602001828103825283818151815260200191508051906020019080838360005b8381101561018e578082015181840152602081019050610173565b50505050905090810190601f1680156101bb5780820380516001836020036101000a031916815260200191505b509250505060405180910390f35b610215600480360360408110156101df57600080fd5b81019080803573ffffffffffffffffffffffffffffffffffffffff16906020019092919080359060200190929190505050610622565b005b61021f610905565b6040518080602001828103825283818151815260200191508051906020019080838360005b8381101561025f578082015181840152602081019050610244565b50505050905090810190601f16801561028c5780820380516001836020036101000a031916815260200191505b509250505060405180910390f35b6102a26109a3565b6040518082815260200191505060405180910390f35b61036e600480360360208110156102ce57600080fd5b81019080803590602001906401000000008111156102eb57600080fd5b8201836020820111156102fd57600080fd5b8035906020019184602083028401116401000000008311171561031f57600080fd5b919080806020026020016040519081016040528093929190818152602001838360200280828437600081840152601f19601f8201169050808301925050505050505091929192905050506109a9565b604051808381526020018281526020019250505060405180910390f35b610393610a3e565b6040518082815260200191505060405180910390f35b6103df600480360360408110156103bf57600080fd5b810190808035906020019092919080359060200190929190505050610a44565b6040518082815260200191505060405180910390f35b3373ffffffffffffffffffffffffffffffffffffffff16ff5b33600360006101000a81548173ffffffffffffffffffffffffffffffffffffffff021916908373ffffffffffffffffffffffffffffffffffffffff1602179055508060028190555050565b60008073ffffffffffffffffffffffffffffffffffffffff16600360009054906101000a900473ffffffffffffffffffffffffffffffffffffffff1673ffffffffffffffffffffffffffffffffffffffff161415610502576040517f08c379a000000000000000000000000000000000000000000000000000000000815260040180806020018281038252602d815260200180610b96602d913960400191505060405180910390fd5b6000600254141561055e576040517f08c379a0000000000000000000000000000000000000000000000000000000008152600401808060200182810382526037815260200180610bc36037913960400191505060405180910390fd5b61057782600054600254610a659092919063ffffffff16565b9050919050565b60025481565b60058054600181600116156101000203166002900480601f01602080910402602001604051908101604052809291908181526020018280546001816001161561010002031660029004801561061a5780601f106105ef5761010080835404028352916020019161061a565b820191906000526020600020905b8154815290600101906020018083116105fd57829003601f168201915b505050505081565b600073ffffffffffffffffffffffffffffffffffffffff168273ffffffffffffffffffffffffffffffffffffffff1614156106a8576040517f08c379a000000000000000000000000000000000000000000000000000000000815260040180806020018281038252602d815260200180610b96602d913960400191505060405180910390fd5b8173ffffffffffffffffffffffffffffffffffffffff16638b8fbd926040518163ffffffff1660e01b815260040160206040518083038186803b1580156106ee57600080fd5b505afa158015610702573d6000803e3d6000fd5b505050506040513d602081101561071857600080fd5b81019080805190602001909291905050506000541461079f576040517f08c379a00000000000000000000000000000000000000000000000000000000081526004018080602001828103825260138152602001807f5072696d6520697320646966666572656e742e0000000000000000000000000081525060200191505060405180910390fd5b8173ffffffffffffffffffffffffffffffffffffffff16636fecb6236040518163ffffffff1660e01b815260040160206040518083038186803b1580156107e557600080fd5b505afa1580156107f9573d6000803e3d6000fd5b505050506040513d602081101561080f57600080fd5b810190808051906020019092919050505060015414610896576040517f08c379a00000000000000000000000000000000000000000000000000000000081526004018080602001828103825260128152602001807f526f6f7420697320646966666572656e742e000000000000000000000000000081525060200191505060405180910390fd5b8173ffffffffffffffffffffffffffffffffffffffff166309cdcf9b826040518263ffffffff1660e01b815260040180828152602001915050600060405180830381600087803b1580156108e957600080fd5b505af11580156108fd573d6000803e3d6000fd5b505050505050565b60048054600181600116156101000203166002900480601f01602080910402602001604051908101604052809291908181526020018280546001816001161561010002031660029004801561099b5780601f106109705761010080835404028352916020019161099b565b820191906000526020600020905b81548152906001019060200180831161097e57829003601f168201915b505050505081565b60015481565b6000806000805414156109b857fe5b600060015414156109c557fe5b8260405160200180828051906020019060200280838360005b838110156109f95780820151818401526020810190506109de565b505050509050019150506040516020818303038152906040528051906020012060001c9150610a3782600054600154610a659092919063ffffffff16565b9050915091565b60005481565b6000610a5d8360005484610a659092919063ffffffff16565b905092915050565b600080610a70610b51565b610a78610b73565b602081600060068110610a8757fe5b602002018181525050602081600160068110610a9f57fe5b602002018181525050602081600260068110610ab757fe5b6020020181815250508681600360068110610ace57fe5b6020020181815250508581600460068110610ae557fe5b6020020181815250508481600560068110610afc57fe5b60200201818152505060208260c08360056107d05a03fa92508260008114610b2357610b28565b600080fd5b5082610b3357600080fd5b81600060018110610b4057fe5b602002015193505050509392505050565b6040518060200160405280600190602082028038833980820191505090505090565b6040518060c0016040528060069060208202803883398082019150509050509056fe4f7468657220536d61727444696666696548656c6c6d616e20636f6e747261637420756e61737369676e65642e4220686173206e6f74206265656e207472616e736d6974746564206279206f7468657220536d61727444696666696548656c6c6d616e2ea265627a7a7231582037cf3961392957f6c5575a862b04f304362eebecd84aef867aabdd19065c0d5d64736f6c634300051000326c65742072616e646f6d203d205b2e2e2e4172726179283332295d2e6d6170282829203d3e207061727365496e74284d6174682e72616e646f6d2829202a2032353529293b206c65742067656e4161203d206177616974206468496e7374312e67656e6572617465412e63616c6c2872616e646f6d293b206177616974206468496e7374312e7472616e736d697441286468496e7374322e616464726573732c2067656e41615b225f41225d293b2072657475726e2067656e41613b72657475726e206177616974206468496e73742e67656e657261746541422e63616c6c2867656e41615b225f61225d293b4f6e6c7920746865206f776e65722063616e2073746172742074686520636f6d6d697420706861736552616e646f6d206e756d6265722066726f6d2070726f7661626c65206d7573742065786973744f6e6c7920746865206f776e65722063616e2067657420612072616e646f6d206e756d6265722066726f6d2070726f7661626c65536565642066726f6d206f776e657220646f6573206e6f74206d617463682074686520636f6d6d697468747470733a2f2f7777772e72616e646f6d2e6f72672f696e7465676572732f3f6e756d3d31266d696e3d31266d61783d3130303030303030303026636f6c3d3126626173653d313026666f726d61743d706c61696e26726e643d6e657750726f7661626c65207175657279207761732073656e742c207374616e64696e6720627920666f722074686520616e737765722e2e2e4f6e6c7920746865206f776e65722063616e207374617274207468652072657665616c207068617365a265627a7a723158207ee802e0d474f5b0af92876005dc53bcf201e88ec72d6350009558049c14edb964736f6c63430005100032",
  "source": "pragma solidity >=0.5.0 <0.7.0;\n\nimport \"./provableAPI.sol\";\nimport \"./SmartDiffieHellman.sol\";\n\ncontract ShuffleAndRoundRobin is usingProvable {\n\n    // provableAPI\n    uint public provableRandomNumber;\n\n    // 0. Contract state\n    enum State { Register, Commit, Reveal, Vote }\n    State public state = State.Register;\n\n    // 1. Register all accounts\n    address[] public registered;\n    mapping(address => bool) public isRegistered; // only allow registration once\n\n    // 2. Commit Reveal\n    mapping(address => bytes32) public commits;\n    mapping(address => string) public reveals;\n\n    // seed from owner\n    bytes32 public seedCommit;\n    string public seedReveal;\n\n    // 3. distribute accounts in round robin\n    mapping(address => uint256) public groups;\n    uint256 public numberOfGroups;\n\n    // 4. shuffle the accounts\n    address[] public shuffled;\n    mapping(address => bool) isShuffled;\n\n    // only the contract owner can start distribution and selfdestruct the contract\n    address payable owner = msg.sender;\n\n    // debugging events\n    event randomNr(uint256 indexed _rand, bool indexed _accepted);\n    event distributed(address indexed _address, uint256 indexed _group);\n    event LogNewRandomNumber(string randomNumber);\n    event LogNewProvableQuery(string description);\n\n    constructor() public {\n        OAR = OracleAddrResolverI(0x864b12a155Db678F6033A963bC2e1c35B8cEbFda);\n    }\n\n    function __callback(bytes32 myid, string memory result) public\n    {\n        require(msg.sender == provable_cbAddress());\n        emit LogNewRandomNumber(result);\n        provableRandomNumber = parseInt(result);\n    }\n\n    function getProvableRandomNumber() public payable\n    {\n        require(msg.sender == owner, 'Only the owner can get a random number from provable');\n        emit LogNewProvableQuery(\"Provable query was sent, standing by for the answer...\");\n        provable_query(\"URL\", \"https://www.random.org/integers/?num=1&min=1&max=1000000000&col=1&base=10&format=plain&rnd=new\");\n    }\n\n    // ======= 1. =======\n    function register() public {\n        require(state == State.Register);\n        require(!isRegistered[msg.sender]);\n\n        isRegistered[msg.sender] = true;\n        registered.push(msg.sender);\n    }\n\n    // ======= 2.1 =======\n    function startCommitPhase(bytes32 _seedCommit) public {\n        require(state == State.Register, 'Must be in registration phase');\n        require(msg.sender == owner, 'Only the owner can start the commit phase');\n        require(_seedCommit.length > 0, 'The seed is not good enough');\n\n        state = State.Commit;\n\n        seedCommit = _seedCommit;\n    }\n\n    // ======= 2.2 =======\n    function startRevealPhase(string memory _seedReveal) public {\n        require(state == State.Commit, 'Must be in commit phase');\n        require(msg.sender == owner, 'Only the owner can start the reveal phase');\n\n        state = State.Reveal;\n\n        bytes32 hash = keccak256(bytes(_seedReveal));\n\n        require(hash == seedCommit, 'Seed from owner does not match the commit');\n\n        seedReveal = _seedReveal;\n    }\n\n    // ======= 2.3 =======\n    function commit(bytes32 _hash) public {\n        require(isRegistered[msg.sender], 'Voter not registered');\n        require(state == State.Commit, 'Must be in commit phase');\n\n        commits[msg.sender] = _hash;\n    }\n\n    // ======= 2.4 =======\n    function reveal(string memory _secret) public {\n        require(isRegistered[msg.sender], 'Voter not registered');\n        require(state == State.Reveal, 'Must be in reveal phase');\n\n        bytes32 hash = keccak256(bytes(_secret));\n\n        require(hash == commits[msg.sender], 'reveal does not match commit');\n\n        reveals[msg.sender] = _secret;\n    }\n\n    // ======= 3. =======\n    function distribute(uint256 _groups) public {\n        require(msg.sender == owner);\n        require(provableRandomNumber > 0, 'Random number from provable must exist');\n        require(state == State.Reveal, 'Must be in reveal phase');\n        require(_groups > 1, 'There must be more than 1 group');\n        require(bytes(seedReveal).length > 0, 'No seed from owner found');\n        require(registered.length > 0, 'There are no registered voters');\n\n        shuffle(uint256(keccak256(abi.encodePacked(seedReveal))));\n        roundRobin(_groups);\n\n        state = State.Vote;\n\n        for(uint256 i = 0; i < registered.length; i++) {\n            address addr = registered[i];\n            uint256 group = groups[addr];\n\n            emit distributed(addr, group);\n        }\n    }\n\n    // ======= 4. =======\n    function shuffle(uint256 _seed) private {\n        require(msg.sender == owner);\n\n        // prevBlockHash\n        uint256 prevBlockHash = uint256(blockhash(block.number - 1));\n\n        uint256 allReveals;\n        // reveals\n        for(uint256 i = 0; i < registered.length; i++) {\n            allReveals += uint256(keccak256(abi.encodePacked(reveals[msg.sender])));\n        }\n\n        uint256 prevRand = 1;\n\n        for(uint256 i = 0; i < registered.length; i++) {\n            uint256 rand;\n            uint256 randPosition;\n\n            // search for a registered address which has not been shuffled\n            do {\n                // values from Java's java.util.Random, POSIX [ln]rand48, glibc [ln]rand48[_r],\n                // see https://en.wikipedia.org/wiki/Linear_congruential_generator#Parameters_in_common_use\n                rand = (prevRand * 25214903917 + 11) % (2 ** 48);\n                prevRand = rand;\n\n                // last block hash\n                randPosition = rand + prevBlockHash;\n                // seed from owner\n                randPosition += _seed;\n                // reveals from voters\n                randPosition += allReveals;\n                // timestamp of current block\n                randPosition += now;\n                // random number from provable\n                randPosition += provableRandomNumber;\n\n                // find a position in the mapping\n                randPosition = randPosition % registered.length;\n\n                emit randomNr(randPosition, !isShuffled[registered[randPosition]]);\n            } while(isShuffled[registered[randPosition]]);\n\n            isShuffled[registered[randPosition]] = true;\n\n            shuffled.push(registered[randPosition]);\n        }\n    }\n\n    function roundRobin(uint256 _groups) private {\n        require(msg.sender == owner);\n\n        for(uint256 i = 0; i < shuffled.length; i++) {\n            groups[registered[i]] = i % _groups;\n        }\n\n        numberOfGroups = _groups;\n        state = State.Vote;\n    }\n\n    // ========== smartDHX ===========\n    mapping(bytes => SmartDiffieHellman[]) public smartDHXs;\n\n    function numberOfNeededSmartDHXs() private view returns (uint256 _count) {\n        uint256 groupSize = registered.length / numberOfGroups;\n        uint256 smartDHXCountPerGroup = (groupSize / 2) * (groupSize - 1);\n        _count = smartDHXCountPerGroup * groupSize;\n    }\n\n    function getEdgeKey(address _first, address _second) public view returns (bytes memory _edgeKey) {\n        if (_first < _second) {\n            return abi.encodePacked(_first, _second);\n        }\n        return abi.encodePacked(_second, _first);\n    }\n\n    function deploySmartDHX(address _first, address _second) public returns (bytes memory _edgeKey) {\n        require(msg.sender == owner);\n        require(state == State.Vote);\n\n        SmartDiffieHellman firstSmartDHX = new SmartDiffieHellman();\n        SmartDiffieHellman secondSmartDHX = new SmartDiffieHellman();\n\n        bytes memory edgeKey = getEdgeKey(_first, _second);\n\n        smartDHXs[edgeKey].push(firstSmartDHX);\n        smartDHXs[edgeKey].push(secondSmartDHX);\n\n        return edgeKey;\n    }\n\n    function stop() public {\n        require(msg.sender == owner);\n        selfdestruct(msg.sender);\n    }\n}",
  "sourcePath": "/Users/florens/Documents/Master/Master Thesis/grouping/contracts/ShuffleAndRoundRobin.sol",
  "compiler": {
    "name": "solc",
    "version": "0.5.16+commit.9c3226ce.Emscripten.clang"
  },
  "schemaVersion": "3.0.23",
  "updatedAt": "2020-05-22T11:43:04.934Z",
  "networkType": "ethereum",
  "devdoc": {
    "methods": {}
  },
  "userdoc": {
    "methods": {}
  }
}