{
  "contractName": "ShuffleAndRoundRobin",
  "abi": [
    {
      "inputs": [],
      "payable": false,
      "stateMutability": "nonpayable",
      "type": "constructor"
    },
    {
      "anonymous": false,
      "inputs": [
        {
          "indexed": false,
          "internalType": "string",
          "name": "description",
          "type": "string"
        }
      ],
      "name": "LogNewProvableQuery",
      "type": "event"
    },
    {
      "anonymous": false,
      "inputs": [
        {
          "indexed": false,
          "internalType": "string",
          "name": "randomNumber",
          "type": "string"
        }
      ],
      "name": "LogNewRandomNumber",
      "type": "event"
    },
    {
      "anonymous": false,
      "inputs": [
        {
          "indexed": true,
          "internalType": "address",
          "name": "_address",
          "type": "address"
        },
        {
          "indexed": true,
          "internalType": "uint256",
          "name": "_group",
          "type": "uint256"
        }
      ],
      "name": "distributed",
      "type": "event"
    },
    {
      "anonymous": false,
      "inputs": [
        {
          "indexed": true,
          "internalType": "uint256",
          "name": "_rand",
          "type": "uint256"
        },
        {
          "indexed": true,
          "internalType": "bool",
          "name": "_accepted",
          "type": "bool"
        }
      ],
      "name": "randomNr",
      "type": "event"
    },
    {
      "constant": true,
      "inputs": [
        {
          "internalType": "address",
          "name": "",
          "type": "address"
        }
      ],
      "name": "commits",
      "outputs": [
        {
          "internalType": "bytes32",
          "name": "",
          "type": "bytes32"
        }
      ],
      "payable": false,
      "stateMutability": "view",
      "type": "function"
    },
    {
      "constant": true,
      "inputs": [
        {
          "internalType": "address",
          "name": "",
          "type": "address"
        }
      ],
      "name": "groups",
      "outputs": [
        {
          "internalType": "uint256",
          "name": "",
          "type": "uint256"
        }
      ],
      "payable": false,
      "stateMutability": "view",
      "type": "function"
    },
    {
      "constant": true,
      "inputs": [
        {
          "internalType": "address",
          "name": "",
          "type": "address"
        }
      ],
      "name": "isRegistered",
      "outputs": [
        {
          "internalType": "bool",
          "name": "",
          "type": "bool"
        }
      ],
      "payable": false,
      "stateMutability": "view",
      "type": "function"
    },
    {
      "constant": true,
      "inputs": [],
      "name": "numberOfGroups",
      "outputs": [
        {
          "internalType": "uint256",
          "name": "",
          "type": "uint256"
        }
      ],
      "payable": false,
      "stateMutability": "view",
      "type": "function"
    },
    {
      "constant": true,
      "inputs": [],
      "name": "provableRandomNumber",
      "outputs": [
        {
          "internalType": "uint256",
          "name": "",
          "type": "uint256"
        }
      ],
      "payable": false,
      "stateMutability": "view",
      "type": "function"
    },
    {
      "constant": true,
      "inputs": [
        {
          "internalType": "uint256",
          "name": "",
          "type": "uint256"
        }
      ],
      "name": "registered",
      "outputs": [
        {
          "internalType": "address",
          "name": "",
          "type": "address"
        }
      ],
      "payable": false,
      "stateMutability": "view",
      "type": "function"
    },
    {
      "constant": true,
      "inputs": [
        {
          "internalType": "address",
          "name": "",
          "type": "address"
        }
      ],
      "name": "reveals",
      "outputs": [
        {
          "internalType": "string",
          "name": "",
          "type": "string"
        }
      ],
      "payable": false,
      "stateMutability": "view",
      "type": "function"
    },
    {
      "constant": true,
      "inputs": [],
      "name": "seedCommit",
      "outputs": [
        {
          "internalType": "bytes32",
          "name": "",
          "type": "bytes32"
        }
      ],
      "payable": false,
      "stateMutability": "view",
      "type": "function"
    },
    {
      "constant": true,
      "inputs": [],
      "name": "seedReveal",
      "outputs": [
        {
          "internalType": "string",
          "name": "",
          "type": "string"
        }
      ],
      "payable": false,
      "stateMutability": "view",
      "type": "function"
    },
    {
      "constant": true,
      "inputs": [
        {
          "internalType": "uint256",
          "name": "",
          "type": "uint256"
        }
      ],
      "name": "shuffled",
      "outputs": [
        {
          "internalType": "address",
          "name": "",
          "type": "address"
        }
      ],
      "payable": false,
      "stateMutability": "view",
      "type": "function"
    },
    {
      "constant": true,
      "inputs": [
        {
          "internalType": "bytes32",
          "name": "",
          "type": "bytes32"
        }
      ],
      "name": "smartDHXs",
      "outputs": [
        {
          "internalType": "contract SmartDiffieHellman",
          "name": "",
          "type": "address"
        }
      ],
      "payable": false,
      "stateMutability": "view",
      "type": "function"
    },
    {
      "constant": true,
      "inputs": [],
      "name": "state",
      "outputs": [
        {
          "internalType": "enum ShuffleAndRoundRobin.State",
          "name": "",
          "type": "uint8"
        }
      ],
      "payable": false,
      "stateMutability": "view",
      "type": "function"
    },
    {
      "constant": true,
      "inputs": [
        {
          "internalType": "uint256",
          "name": "",
          "type": "uint256"
        }
      ],
      "name": "votingOptions",
      "outputs": [
        {
          "internalType": "uint256",
          "name": "",
          "type": "uint256"
        }
      ],
      "payable": false,
      "stateMutability": "view",
      "type": "function"
    },
    {
      "constant": false,
      "inputs": [
        {
          "internalType": "bytes32",
          "name": "myid",
          "type": "bytes32"
        },
        {
          "internalType": "string",
          "name": "result",
          "type": "string"
        }
      ],
      "name": "__callback",
      "outputs": [],
      "payable": false,
      "stateMutability": "nonpayable",
      "type": "function"
    },
    {
      "constant": false,
      "inputs": [
        {
          "internalType": "bytes32",
          "name": "_myid",
          "type": "bytes32"
        },
        {
          "internalType": "string",
          "name": "_result",
          "type": "string"
        },
        {
          "internalType": "bytes",
          "name": "_proof",
          "type": "bytes"
        }
      ],
      "name": "__callback",
      "outputs": [],
      "payable": false,
      "stateMutability": "nonpayable",
      "type": "function"
    },
    {
      "constant": false,
      "inputs": [],
      "name": "getProvableRandomNumber",
      "outputs": [],
      "payable": true,
      "stateMutability": "payable",
      "type": "function"
    },
    {
      "constant": false,
      "inputs": [
        {
          "internalType": "uint256[]",
          "name": "_votingOptions",
          "type": "uint256[]"
        }
      ],
      "name": "setVotingOptions",
      "outputs": [],
      "payable": false,
      "stateMutability": "nonpayable",
      "type": "function"
    },
    {
      "constant": false,
      "inputs": [],
      "name": "register",
      "outputs": [],
      "payable": false,
      "stateMutability": "nonpayable",
      "type": "function"
    },
    {
      "constant": false,
      "inputs": [
        {
          "internalType": "bytes32",
          "name": "_seedCommit",
          "type": "bytes32"
        }
      ],
      "name": "startCommitPhase",
      "outputs": [],
      "payable": false,
      "stateMutability": "nonpayable",
      "type": "function"
    },
    {
      "constant": false,
      "inputs": [
        {
          "internalType": "string",
          "name": "_seedReveal",
          "type": "string"
        }
      ],
      "name": "startRevealPhase",
      "outputs": [],
      "payable": false,
      "stateMutability": "nonpayable",
      "type": "function"
    },
    {
      "constant": false,
      "inputs": [
        {
          "internalType": "bytes32",
          "name": "_hash",
          "type": "bytes32"
        }
      ],
      "name": "commit",
      "outputs": [],
      "payable": false,
      "stateMutability": "nonpayable",
      "type": "function"
    },
    {
      "constant": false,
      "inputs": [
        {
          "internalType": "string",
          "name": "_secret",
          "type": "string"
        }
      ],
      "name": "reveal",
      "outputs": [],
      "payable": false,
      "stateMutability": "nonpayable",
      "type": "function"
    },
    {
      "constant": false,
      "inputs": [
        {
          "internalType": "uint256",
          "name": "_groups",
          "type": "uint256"
        }
      ],
      "name": "distribute",
      "outputs": [],
      "payable": false,
      "stateMutability": "nonpayable",
      "type": "function"
    },
    {
      "constant": true,
      "inputs": [
        {
          "internalType": "address",
          "name": "_first",
          "type": "address"
        },
        {
          "internalType": "address",
          "name": "_second",
          "type": "address"
        }
      ],
      "name": "getEdgeKey",
      "outputs": [
        {
          "internalType": "bytes32",
          "name": "_edgeKey",
          "type": "bytes32"
        }
      ],
      "payable": false,
      "stateMutability": "pure",
      "type": "function"
    },
    {
      "constant": false,
      "inputs": [
        {
          "internalType": "address",
          "name": "_first",
          "type": "address"
        },
        {
          "internalType": "address",
          "name": "_second",
          "type": "address"
        }
      ],
      "name": "deploySmartDHX",
      "outputs": [],
      "payable": false,
      "stateMutability": "nonpayable",
      "type": "function"
    },
    {
      "constant": false,
      "inputs": [
        {
          "internalType": "string",
          "name": "_vote",
          "type": "string"
        },
        {
          "internalType": "address",
          "name": "_to",
          "type": "address"
        }
      ],
      "name": "sendVote",
      "outputs": [],
      "payable": false,
      "stateMutability": "nonpayable",
      "type": "function"
    },
    {
      "constant": false,
      "inputs": [],
      "name": "stop",
      "outputs": [],
      "payable": false,
      "stateMutability": "nonpayable",
      "type": "function"
    }
  ],
  "bytecode": "0x60806040526000600660006101000a81548160ff0219169083600481111561002357fe5b021790555033601160006101000a81548173ffffffffffffffffffffffffffffffffffffffff021916908373ffffffffffffffffffffffffffffffffffffffff16021790555034801561007557600080fd5b5073864b12a155db678f6033a963bc2e1c35b8cebfda600160006101000a81548173ffffffffffffffffffffffffffffffffffffffff021916908373ffffffffffffffffffffffffffffffffffffffff160217905550614e7680620000db6000396000f3fe608060405260043610620001c45760003560e01c80638f36f02d1162000103578063c19d93fb1162000097578063dff67f6b116200006d578063dff67f6b1462000cc6578063e6cf13461462000d19578063f14fcbc81462000d98578063f2ea38cb1462000dd757620001c4565b8063c19d93fb1462000b9d578063c214b1f71462000bda578063c3c5a5471462000c5957620001c4565b80639e7186db11620000d95780639e7186db1462000a53578063b60baacb1462000a5f578063bf9524961462000a9e578063bff3e1ba1462000acc57620001c4565b80638f36f02d14620009165780638f4a5e16146200099f57806391c05b0b1462000a1457620001c4565b80632f1eddae116200017b5780634c26124711620001515780634c26124714620006df57806363d5e44d14620007ae5780636a7c557114620008175780637b43a8e614620008ad57620001c4565b80632f1eddae146200042157806338bbfa5014620004ed57806348a9e4e0146200066057620001c4565b806307da68f514620001c957806314e22df814620001e35780631aa3a00814620002d257806323939c6714620002ec57806326cef7d7146200031a57806327dc297e1462000348575b600080fd5b348015620001d657600080fd5b50620001e162000ea6565b005b348015620001f057600080fd5b50620002d0600480360360408110156200020957600080fd5b81019080803590602001906401000000008111156200022757600080fd5b8201836020820111156200023a57600080fd5b803590602001918460018302840111640100000000831117156200025d57600080fd5b91908080601f016020809104026020016040519081016040528093929190818152602001838380828437600081840152601f19601f820116905080830192505050505050509192919290803573ffffffffffffffffffffffffffffffffffffffff16906020019092919050505062000f1a565b005b348015620002df57600080fd5b50620002ea6200104e565b005b348015620002f957600080fd5b50620003046200126d565b6040518082815260200191505060405180910390f35b3480156200032757600080fd5b506200033262001273565b6040518082815260200191505060405180910390f35b3480156200035557600080fd5b506200041f600480360360408110156200036e57600080fd5b8101908080359060200190929190803590602001906401000000008111156200039657600080fd5b820183602082011115620003a957600080fd5b80359060200191846001830284011164010000000083111715620003cc57600080fd5b91908080601f016020809104026020016040519081016040528093929190818152602001838380828437600081840152601f19601f82011690508083019250505050505050919291929050505062001279565b005b3480156200042e57600080fd5b50620004eb600480360360208110156200044757600080fd5b81019080803590602001906401000000008111156200046557600080fd5b8201836020820111156200047857600080fd5b803590602001918460208302840111640100000000831117156200049b57600080fd5b919080806020026020016040519081016040528093929190818152602001838360200280828437600081840152601f19601f8201169050808301925050505050505091929192905050506200136f565b005b348015620004fa57600080fd5b506200065e600480360360608110156200051357600080fd5b8101908080359060200190929190803590602001906401000000008111156200053b57600080fd5b8201836020820111156200054e57600080fd5b803590602001918460018302840111640100000000831117156200057157600080fd5b91908080601f016020809104026020016040519081016040528093929190818152602001838380828437600081840152601f19601f82011690508083019250505050505050919291929080359060200190640100000000811115620005d557600080fd5b820183602082011115620005e857600080fd5b803590602001918460018302840111640100000000831117156200060b57600080fd5b91908080601f016020809104026020016040519081016040528093929190818152602001838380828437600081840152601f19601f8201169050808301925050505050505091929192905050506200156e565b005b3480156200066d57600080fd5b506200069d600480360360208110156200068657600080fd5b810190808035906020019092919050505062001591565b604051808273ffffffffffffffffffffffffffffffffffffffff1673ffffffffffffffffffffffffffffffffffffffff16815260200191505060405180910390f35b348015620006ec57600080fd5b50620007ac600480360360208110156200070557600080fd5b81019080803590602001906401000000008111156200072357600080fd5b8201836020820111156200073657600080fd5b803590602001918460018302840111640100000000831117156200075957600080fd5b91908080601f016020809104026020016040519081016040528093929190818152602001838380828437600081840152601f19601f820116905080830192505050505050509192919290505050620015ce565b005b348015620007bb57600080fd5b506200080160048036036020811015620007d457600080fd5b81019080803573ffffffffffffffffffffffffffffffffffffffff16906020019092919050505062001847565b6040518082815260200191505060405180910390f35b3480156200082457600080fd5b506200082f6200185f565b6040518080602001828103825283818151815260200191508051906020019080838360005b838110156200087157808201518184015260208101905062000854565b50505050905090810190601f1680156200089f5780820380516001836020036101000a031916815260200191505b509250505060405180910390f35b348015620008ba57600080fd5b506200090060048036036020811015620008d357600080fd5b81019080803573ffffffffffffffffffffffffffffffffffffffff16906020019092919050505062001901565b6040518082815260200191505060405180910390f35b3480156200092357600080fd5b5062000989600480360360408110156200093c57600080fd5b81019080803573ffffffffffffffffffffffffffffffffffffffff169060200190929190803573ffffffffffffffffffffffffffffffffffffffff16906020019092919050505062001919565b6040518082815260200191505060405180910390f35b348015620009ac57600080fd5b5062000a1260048036036040811015620009c557600080fd5b81019080803573ffffffffffffffffffffffffffffffffffffffff169060200190929190803573ffffffffffffffffffffffffffffffffffffffff169060200190929190505050620019b0565b005b34801562000a2157600080fd5b5062000a516004803603602081101562000a3a57600080fd5b810190808035906020019092919050505062001b6b565b005b62000a5d62001fea565b005b34801562000a6c57600080fd5b5062000a9c6004803603602081101562000a8557600080fd5b81019080803590602001909291905050506200213b565b005b34801562000aab57600080fd5b5062000ab66200232b565b6040518082815260200191505060405180910390f35b34801562000ad957600080fd5b5062000b1f6004803603602081101562000af257600080fd5b81019080803573ffffffffffffffffffffffffffffffffffffffff16906020019092919050505062002331565b6040518080602001828103825283818151815260200191508051906020019080838360005b8381101562000b6157808201518184015260208101905062000b44565b50505050905090810190601f16801562000b8f5780820380516001836020036101000a031916815260200191505b509250505060405180910390f35b34801562000baa57600080fd5b5062000bb5620023e5565b6040518082600481111562000bc657fe5b60ff16815260200191505060405180910390f35b34801562000be757600080fd5b5062000c176004803603602081101562000c0057600080fd5b8101908080359060200190929190505050620023f8565b604051808273ffffffffffffffffffffffffffffffffffffffff1673ffffffffffffffffffffffffffffffffffffffff16815260200191505060405180910390f35b34801562000c6657600080fd5b5062000cac6004803603602081101562000c7f57600080fd5b81019080803573ffffffffffffffffffffffffffffffffffffffff1690602001909291905050506200242b565b604051808215151515815260200191505060405180910390f35b34801562000cd357600080fd5b5062000d036004803603602081101562000cec57600080fd5b81019080803590602001909291905050506200244b565b6040518082815260200191505060405180910390f35b34801562000d2657600080fd5b5062000d566004803603602081101562000d3f57600080fd5b81019080803590602001909291905050506200246d565b604051808273ffffffffffffffffffffffffffffffffffffffff1673ffffffffffffffffffffffffffffffffffffffff16815260200191505060405180910390f35b34801562000da557600080fd5b5062000dd56004803603602081101562000dbe57600080fd5b8101908080359060200190929190505050620024aa565b005b34801562000de457600080fd5b5062000ea46004803603602081101562000dfd57600080fd5b810190808035906020019064010000000081111562000e1b57600080fd5b82018360208201111562000e2e57600080fd5b8035906020019184600183028401116401000000008311171562000e5157600080fd5b91908080601f016020809104026020016040519081016040528093929190818152602001838380828437600081840152601f19601f8201169050808301925050505050505091929192905050506200264f565b005b601160009054906101000a900473ffffffffffffffffffffffffffffffffffffffff1673ffffffffffffffffffffffffffffffffffffffff163373ffffffffffffffffffffffffffffffffffffffff161462000f0157600080fd5b3373ffffffffffffffffffffffffffffffffffffffff16ff5b60048081111562000f2757fe5b600660009054906101000a900460ff16600481111562000f4357fe5b1462000fb7576040517f08c379a00000000000000000000000000000000000000000000000000000000081526004018080602001828103825260138152602001807f4e6f7420696e20766f74696e672073746174650000000000000000000000000081525060200191505060405180910390fd5b81601360003373ffffffffffffffffffffffffffffffffffffffff1673ffffffffffffffffffffffffffffffffffffffff16815260200190815260200160002060008373ffffffffffffffffffffffffffffffffffffffff1673ffffffffffffffffffffffffffffffffffffffff16815260200190815260200160002090805190602001906200104992919062003d34565b505050565b600160048111156200105c57fe5b600660009054906101000a900460ff1660048111156200107857fe5b14620010ec576040517f08c379a00000000000000000000000000000000000000000000000000000000081526004018080602001828103825260158152602001807f4e6f7420696e207374617465205265676973746572000000000000000000000081525060200191505060405180910390fd5b600860003373ffffffffffffffffffffffffffffffffffffffff1673ffffffffffffffffffffffffffffffffffffffff16815260200190815260200160002060009054906101000a900460ff1615620011ad576040517f08c379a00000000000000000000000000000000000000000000000000000000081526004018080602001828103825260128152602001807f416c72656164792072656769737465726564000000000000000000000000000081525060200191505060405180910390fd5b6001600860003373ffffffffffffffffffffffffffffffffffffffff1673ffffffffffffffffffffffffffffffffffffffff16815260200190815260200160002060006101000a81548160ff02191690831515021790555060073390806001815401808255809150509060018203906000526020600020016000909192909190916101000a81548173ffffffffffffffffffffffffffffffffffffffff021916908373ffffffffffffffffffffffffffffffffffffffff16021790555050565b600b5481565b60055481565b620012836200283f565b73ffffffffffffffffffffffffffffffffffffffff163373ffffffffffffffffffffffffffffffffffffffff1614620012bb57600080fd5b7f067c40d9272b02fb8e9bfe6a064b465504d8f549abce9d58121baec5ffaecae1816040518080602001828103825283818151815260200191508051906020019080838360005b838110156200131f57808201518184015260208101905062001302565b50505050905090810190601f1680156200134d5780820380516001836020036101000a031916815260200191505b509250505060405180910390a1620013658162002b6c565b6005819055505050565b601160009054906101000a900473ffffffffffffffffffffffffffffffffffffffff1673ffffffffffffffffffffffffffffffffffffffff163373ffffffffffffffffffffffffffffffffffffffff161462001433576040517f08c379a00000000000000000000000000000000000000000000000000000000081526004018080602001828103825260148152602001807f53656e646572206d757374206265206f776e657200000000000000000000000081525060200191505060405180910390fd5b60018151116200148f576040517f08c379a000000000000000000000000000000000000000000000000000000000815260040180806020018281038252602981526020018062004df06029913960400191505060405180910390fd5b600060048111156200149d57fe5b600660009054906101000a900460ff166004811115620014b957fe5b146200152d576040517f08c379a00000000000000000000000000000000000000000000000000000000081526004018080602001828103825260128152602001807f5374617465206d75737420626520496e6974000000000000000000000000000081525060200191505060405180910390fd5b6001600660006101000a81548160ff021916908360048111156200154d57fe5b021790555080601290805190602001906200156a92919062003dbb565b5050565b6000801b600360008060001b815260200190815260200160002081905550505050565b600f81815481106200159f57fe5b906000526020600020016000915054906101000a900473ffffffffffffffffffffffffffffffffffffffff1681565b600860003373ffffffffffffffffffffffffffffffffffffffff1673ffffffffffffffffffffffffffffffffffffffff16815260200190815260200160002060009054906101000a900460ff166200168e576040517f08c379a00000000000000000000000000000000000000000000000000000000081526004018080602001828103825260148152602001807f566f746572206e6f74207265676973746572656400000000000000000000000081525060200191505060405180910390fd5b600360048111156200169c57fe5b600660009054906101000a900460ff166004811115620016b857fe5b146200172c576040517f08c379a00000000000000000000000000000000000000000000000000000000081526004018080602001828103825260178152602001807f4d75737420626520696e2072657665616c20706861736500000000000000000081525060200191505060405180910390fd5b600081805190602001209050600960003373ffffffffffffffffffffffffffffffffffffffff1673ffffffffffffffffffffffffffffffffffffffff168152602001908152602001600020548114620017ed576040517f08c379a000000000000000000000000000000000000000000000000000000000815260040180806020018281038252601c8152602001807f72657665616c20646f6573206e6f74206d6174636820636f6d6d69740000000081525060200191505060405180910390fd5b81600a60003373ffffffffffffffffffffffffffffffffffffffff1673ffffffffffffffffffffffffffffffffffffffff16815260200190815260200160002090805190602001906200184292919062003d34565b505050565b600d6020528060005260406000206000915090505481565b600c8054600181600116156101000203166002900480601f016020809104026020016040519081016040528092919081815260200182805460018160011615610100020316600290048015620018f95780601f10620018cd57610100808354040283529160200191620018f9565b820191906000526020600020905b815481529060010190602001808311620018db57829003601f168201915b505050505081565b60096020528060005260406000206000915090505481565b60008282604051602001808373ffffffffffffffffffffffffffffffffffffffff1673ffffffffffffffffffffffffffffffffffffffff1660601b81526014018273ffffffffffffffffffffffffffffffffffffffff1673ffffffffffffffffffffffffffffffffffffffff1660601b81526014019250505060405160208183030381529060405280519060200120905092915050565b601160009054906101000a900473ffffffffffffffffffffffffffffffffffffffff1673ffffffffffffffffffffffffffffffffffffffff163373ffffffffffffffffffffffffffffffffffffffff161462001a0b57600080fd5b60048081111562001a1857fe5b600660009054906101000a900460ff16600481111562001a3457fe5b1462001a3f57600080fd5b600060405162001a4f9062003e0d565b604051809103906000f08015801562001a6c573d6000803e3d6000fd5b509050600060405162001a7f9062003e0d565b604051809103906000f08015801562001a9c573d6000803e3d6000fd5b509050600062001aad858562001919565b9050600062001abd858762001919565b9050836014600084815260200190815260200160002060006101000a81548173ffffffffffffffffffffffffffffffffffffffff021916908373ffffffffffffffffffffffffffffffffffffffff160217905550826014600083815260200190815260200160002060006101000a81548173ffffffffffffffffffffffffffffffffffffffff021916908373ffffffffffffffffffffffffffffffffffffffff160217905550505050505050565b601160009054906101000a900473ffffffffffffffffffffffffffffffffffffffff1673ffffffffffffffffffffffffffffffffffffffff163373ffffffffffffffffffffffffffffffffffffffff161462001bc657600080fd5b60006005541162001c23576040517f08c379a000000000000000000000000000000000000000000000000000000000815260040180806020018281038252602681526020018062004cd96026913960400191505060405180910390fd5b6003600481111562001c3157fe5b600660009054906101000a900460ff16600481111562001c4d57fe5b1462001cc1576040517f08c379a00000000000000000000000000000000000000000000000000000000081526004018080602001828103825260178152602001807f4d75737420626520696e2072657665616c20706861736500000000000000000081525060200191505060405180910390fd5b6001811162001d38576040517f08c379a000000000000000000000000000000000000000000000000000000000815260040180806020018281038252601f8152602001807f5468657265206d757374206265206d6f7265207468616e20312067726f75700081525060200191505060405180910390fd5b6000600c8054600181600116156101000203166002900490501162001dc5576040517f08c379a00000000000000000000000000000000000000000000000000000000081526004018080602001828103825260188152602001807f4e6f20736565642066726f6d206f776e657220666f756e64000000000000000081525060200191505060405180910390fd5b60006007805490501162001e41576040517f08c379a000000000000000000000000000000000000000000000000000000000815260040180806020018281038252601e8152602001807f546865726520617265206e6f207265676973746572656420766f74657273000081525060200191505060405180910390fd5b62001ecd600c604051602001808280546001816001161561010002031660029004801562001ea95780601f1062001e8657610100808354040283529182019162001ea9565b820191906000526020600020905b81548152906001019060200180831162001e94575b50509150506040516020818303038152906040528051906020012060001c62002b82565b62001ed88162002fc1565b6004600660006101000a81548160ff0219169083600481111562001ef857fe5b021790555060008090505b60078054905081101562001fe65760006007828154811062001f2157fe5b9060005260206000200160009054906101000a900473ffffffffffffffffffffffffffffffffffffffff1690506000600d60008373ffffffffffffffffffffffffffffffffffffffff1673ffffffffffffffffffffffffffffffffffffffff168152602001908152602001600020549050808273ffffffffffffffffffffffffffffffffffffffff167f774c33ab58e0ee92b864f81d9310d1b9b002c5941b4f5275a0a95255856f546e60405160405180910390a35050808060010191505062001f03565b5050565b601160009054906101000a900473ffffffffffffffffffffffffffffffffffffffff1673ffffffffffffffffffffffffffffffffffffffff163373ffffffffffffffffffffffffffffffffffffffff161462002092576040517f08c379a000000000000000000000000000000000000000000000000000000000815260040180806020018281038252603481526020018062004cff6034913960400191505060405180910390fd5b7fc4dc360d0a9c0677a3379ae0a3d81e887f761e65fdf3d7e00859d1bcd3c4738960405180806020018281038252603681526020018062004dba6036913960400191505060405180910390a1620021386040518060400160405280600381526020017f55524c00000000000000000000000000000000000000000000000000000000008152506040518060800160405280605e815260200162004d5c605e9139620030f4565b50565b600160048111156200214957fe5b600660009054906101000a900460ff1660048111156200216557fe5b14620021d9576040517f08c379a000000000000000000000000000000000000000000000000000000000815260040180806020018281038252601d8152602001807f4d75737420626520696e20726567697374726174696f6e20706861736500000081525060200191505060405180910390fd5b601160009054906101000a900473ffffffffffffffffffffffffffffffffffffffff1673ffffffffffffffffffffffffffffffffffffffff163373ffffffffffffffffffffffffffffffffffffffff161462002281576040517f08c379a000000000000000000000000000000000000000000000000000000000815260040180806020018281038252602981526020018062004cb06029913960400191505060405180910390fd5b6000602060ff1611620022fc576040517f08c379a000000000000000000000000000000000000000000000000000000000815260040180806020018281038252601b8152602001807f5468652073656564206973206e6f7420676f6f6420656e6f756768000000000081525060200191505060405180910390fd5b6002600660006101000a81548160ff021916908360048111156200231c57fe5b021790555080600b8190555050565b600e5481565b600a6020528060005260406000206000915090508054600181600116156101000203166002900480601f016020809104026020016040519081016040528092919081815260200182805460018160011615610100020316600290048015620023dd5780601f10620023b157610100808354040283529160200191620023dd565b820191906000526020600020905b815481529060010190602001808311620023bf57829003601f168201915b505050505081565b600660009054906101000a900460ff1681565b60146020528060005260406000206000915054906101000a900473ffffffffffffffffffffffffffffffffffffffff1681565b60086020528060005260406000206000915054906101000a900460ff1681565b601281815481106200245957fe5b906000526020600020016000915090505481565b600781815481106200247b57fe5b906000526020600020016000915054906101000a900473ffffffffffffffffffffffffffffffffffffffff1681565b600860003373ffffffffffffffffffffffffffffffffffffffff1673ffffffffffffffffffffffffffffffffffffffff16815260200190815260200160002060009054906101000a900460ff166200256a576040517f08c379a00000000000000000000000000000000000000000000000000000000081526004018080602001828103825260148152602001807f566f746572206e6f74207265676973746572656400000000000000000000000081525060200191505060405180910390fd5b600260048111156200257857fe5b600660009054906101000a900460ff1660048111156200259457fe5b1462002608576040517f08c379a00000000000000000000000000000000000000000000000000000000081526004018080602001828103825260178152602001807f4d75737420626520696e20636f6d6d697420706861736500000000000000000081525060200191505060405180910390fd5b80600960003373ffffffffffffffffffffffffffffffffffffffff1673ffffffffffffffffffffffffffffffffffffffff1681526020019081526020016000208190555050565b600260048111156200265d57fe5b600660009054906101000a900460ff1660048111156200267957fe5b14620026ed576040517f08c379a00000000000000000000000000000000000000000000000000000000081526004018080602001828103825260178152602001807f4d75737420626520696e20636f6d6d697420706861736500000000000000000081525060200191505060405180910390fd5b601160009054906101000a900473ffffffffffffffffffffffffffffffffffffffff1673ffffffffffffffffffffffffffffffffffffffff163373ffffffffffffffffffffffffffffffffffffffff161462002795576040517f08c379a000000000000000000000000000000000000000000000000000000000815260040180806020018281038252602981526020018062004e196029913960400191505060405180910390fd5b6003600660006101000a81548160ff02191690836004811115620027b557fe5b0217905550600081805190602001209050600b54811462002822576040517f08c379a000000000000000000000000000000000000000000000000000000000815260040180806020018281038252602981526020018062004d336029913960400191505060405180910390fd5b81600c90805190602001906200283a92919062003d34565b505050565b60008073ffffffffffffffffffffffffffffffffffffffff16600160009054906101000a900473ffffffffffffffffffffffffffffffffffffffff1673ffffffffffffffffffffffffffffffffffffffff161480620028ca57506000620028c8600160009054906101000a900473ffffffffffffffffffffffffffffffffffffffff1662003658565b145b15620028de57620028dc600062003663565b505b600160009054906101000a900473ffffffffffffffffffffffffffffffffffffffff1673ffffffffffffffffffffffffffffffffffffffff166338cc48316040518163ffffffff1660e01b8152600401602060405180830381600087803b1580156200294957600080fd5b505af11580156200295e573d6000803e3d6000fd5b505050506040513d60208110156200297557600080fd5b810190808051906020019092919050505073ffffffffffffffffffffffffffffffffffffffff166000809054906101000a900473ffffffffffffffffffffffffffffffffffffffff1673ffffffffffffffffffffffffffffffffffffffff161462002ac257600160009054906101000a900473ffffffffffffffffffffffffffffffffffffffff1673ffffffffffffffffffffffffffffffffffffffff166338cc48316040518163ffffffff1660e01b8152600401602060405180830381600087803b15801562002a4557600080fd5b505af115801562002a5a573d6000803e3d6000fd5b505050506040513d602081101562002a7157600080fd5b81019080805190602001909291905050506000806101000a81548173ffffffffffffffffffffffffffffffffffffffff021916908373ffffffffffffffffffffffffffffffffffffffff1602179055505b6000809054906101000a900473ffffffffffffffffffffffffffffffffffffffff1673ffffffffffffffffffffffffffffffffffffffff1663c281d19e6040518163ffffffff1660e01b815260040160206040518083038186803b15801562002b2a57600080fd5b505afa15801562002b3f573d6000803e3d6000fd5b505050506040513d602081101562002b5657600080fd5b8101908080519060200190929190505050905090565b600062002b7b82600062003676565b9050919050565b601160009054906101000a900473ffffffffffffffffffffffffffffffffffffffff1673ffffffffffffffffffffffffffffffffffffffff163373ffffffffffffffffffffffffffffffffffffffff161462002bdd57600080fd5b6000600143034060001c9050600080600090505b60078054905081101562002cd057600a60003373ffffffffffffffffffffffffffffffffffffffff1673ffffffffffffffffffffffffffffffffffffffff168152602001908152602001600020604051602001808280546001816001161561010002031660029004801562002ca05780601f1062002c7d57610100808354040283529182019162002ca0565b820191906000526020600020905b81548152906001019060200180831162002c8b575b50509150506040516020818303038152906040528051906020012060001c82019150808060010191505062002bf1565b5060006001905060008090505b60078054905081101562002fba576000805b6601000000000000600b6405deece66d8602018162002d0a57fe5b069150819350858201905086810190508481019050428101905060055481019050600780549050818162002d3a57fe5b069050601060006007838154811062002d4f57fe5b9060005260206000200160009054906101000a900473ffffffffffffffffffffffffffffffffffffffff1673ffffffffffffffffffffffffffffffffffffffff1673ffffffffffffffffffffffffffffffffffffffff16815260200190815260200160002060009054906101000a900460ff16151515817fd84b79b64ded9cb22be639e98c3de1f1c48160ad04b001bad25640c137342e4060405160405180910390a3601060006007838154811062002e0457fe5b9060005260206000200160009054906101000a900473ffffffffffffffffffffffffffffffffffffffff1673ffffffffffffffffffffffffffffffffffffffff1673ffffffffffffffffffffffffffffffffffffffff16815260200190815260200160002060009054906101000a900460ff1662002cef576001601060006007848154811062002e9057fe5b9060005260206000200160009054906101000a900473ffffffffffffffffffffffffffffffffffffffff1673ffffffffffffffffffffffffffffffffffffffff1673ffffffffffffffffffffffffffffffffffffffff16815260200190815260200160002060006101000a81548160ff021916908315150217905550600f6007828154811062002f1c57fe5b9060005260206000200160009054906101000a900473ffffffffffffffffffffffffffffffffffffffff1690806001815401808255809150509060018203906000526020600020016000909192909190916101000a81548173ffffffffffffffffffffffffffffffffffffffff021916908373ffffffffffffffffffffffffffffffffffffffff160217905550505050808060010191505062002cdd565b5050505050565b601160009054906101000a900473ffffffffffffffffffffffffffffffffffffffff1673ffffffffffffffffffffffffffffffffffffffff163373ffffffffffffffffffffffffffffffffffffffff16146200301c57600080fd5b60008090505b600f80549050811015620030c4578181816200303a57fe5b06600d6000600784815481106200304d57fe5b9060005260206000200160009054906101000a900473ffffffffffffffffffffffffffffffffffffffff1673ffffffffffffffffffffffffffffffffffffffff1673ffffffffffffffffffffffffffffffffffffffff16815260200190815260200160002081905550808060010191505062003022565b5080600e819055506004600660006101000a81548160ff02191690836004811115620030ec57fe5b021790555050565b60008073ffffffffffffffffffffffffffffffffffffffff16600160009054906101000a900473ffffffffffffffffffffffffffffffffffffffff1673ffffffffffffffffffffffffffffffffffffffff1614806200317f575060006200317d600160009054906101000a900473ffffffffffffffffffffffffffffffffffffffff1662003658565b145b15620031935762003191600062003663565b505b600160009054906101000a900473ffffffffffffffffffffffffffffffffffffffff1673ffffffffffffffffffffffffffffffffffffffff166338cc48316040518163ffffffff1660e01b8152600401602060405180830381600087803b158015620031fe57600080fd5b505af115801562003213573d6000803e3d6000fd5b505050506040513d60208110156200322a57600080fd5b810190808051906020019092919050505073ffffffffffffffffffffffffffffffffffffffff166000809054906101000a900473ffffffffffffffffffffffffffffffffffffffff1673ffffffffffffffffffffffffffffffffffffffff16146200337757600160009054906101000a900473ffffffffffffffffffffffffffffffffffffffff1673ffffffffffffffffffffffffffffffffffffffff166338cc48316040518163ffffffff1660e01b8152600401602060405180830381600087803b158015620032fa57600080fd5b505af11580156200330f573d6000803e3d6000fd5b505050506040513d60208110156200332657600080fd5b81019080805190602001909291905050506000806101000a81548173ffffffffffffffffffffffffffffffffffffffff021916908373ffffffffffffffffffffffffffffffffffffffff1602179055505b60008060009054906101000a900473ffffffffffffffffffffffffffffffffffffffff1673ffffffffffffffffffffffffffffffffffffffff1663524f3889856040518263ffffffff1660e01b81526004018080602001828103825283818151815260200191508051906020019080838360005b8381101562003408578082015181840152602081019050620033eb565b50505050905090810190601f168015620034365780820380516001836020036101000a031916815260200191505b5092505050602060405180830381600087803b1580156200345657600080fd5b505af11580156200346b573d6000803e3d6000fd5b505050506040513d60208110156200348257600080fd5b8101908080519060200190929190505050905062030d403a02670de0b6b3a764000001811115620034ba576000801b91505062003652565b6000809054906101000a900473ffffffffffffffffffffffffffffffffffffffff1673ffffffffffffffffffffffffffffffffffffffff1663adf59f9982600087876040518563ffffffff1660e01b8152600401808481526020018060200180602001838103835285818151815260200191508051906020019080838360005b83811015620035575780820151818401526020810190506200353a565b50505050905090810190601f168015620035855780820380516001836020036101000a031916815260200191505b50838103825284818151815260200191508051906020019080838360005b83811015620035c0578082015181840152602081019050620035a3565b50505050905090810190601f168015620035ee5780820380516001836020036101000a031916815260200191505b50955050505050506020604051808303818588803b1580156200361057600080fd5b505af115801562003625573d6000803e3d6000fd5b50505050506040513d60208110156200363d57600080fd5b81019080805190602001909291905050509150505b92915050565b6000813b9050919050565b60006200366f62003797565b9050919050565b600060608390506000809050600080905060008090505b835181101562003777576030848281518110620036a657fe5b602001015160f81c60f81b60f81c60ff1610158015620036e457506039848281518110620036d057fe5b602001015160f81c60f81b60f81c60ff1611155b156200373c5781156200370b576000861415620037015762003777565b8580600190039650505b600a8302925060308482815181106200372057fe5b602001015160f81c60f81b60f81c60ff16038301925062003769565b602e8482815181106200374b57fe5b602001015160f81c60f81b60f81c60ff1614156200376857600191505b5b80806001019150506200368d565b5060008511156200378b5784600a0a820291505b81935050505092915050565b600080620037b9731d3b2638a7cc9f2cb3d298a3da7a90b67e5506ed62003658565b11156200385f57731d3b2638a7cc9f2cb3d298a3da7a90b67e5506ed600160006101000a81548173ffffffffffffffffffffffffffffffffffffffff021916908373ffffffffffffffffffffffffffffffffffffffff160217905550620038556040518060400160405280600b81526020017f6574685f6d61696e6e657400000000000000000000000000000000000000000081525062003d18565b6001905062003d15565b60006200388073c03a2615d5efaf5f49f60b7bb6583eaec212fdf162003658565b1115620039265773c03a2615d5efaf5f49f60b7bb6583eaec212fdf1600160006101000a81548173ffffffffffffffffffffffffffffffffffffffff021916908373ffffffffffffffffffffffffffffffffffffffff1602179055506200391c6040518060400160405280600c81526020017f6574685f726f707374656e33000000000000000000000000000000000000000081525062003d18565b6001905062003d15565b60006200394773b7a07bcf2ba2f2703b24c0691b5278999c59ac7e62003658565b1115620039ed5773b7a07bcf2ba2f2703b24c0691b5278999c59ac7e600160006101000a81548173ffffffffffffffffffffffffffffffffffffffff021916908373ffffffffffffffffffffffffffffffffffffffff160217905550620039e36040518060400160405280600981526020017f6574685f6b6f76616e000000000000000000000000000000000000000000000081525062003d18565b6001905062003d15565b600062003a0e73146500cfd35b22e4a392fe0adc06de1a1368ed4862003658565b111562003ab45773146500cfd35b22e4a392fe0adc06de1a1368ed48600160006101000a81548173ffffffffffffffffffffffffffffffffffffffff021916908373ffffffffffffffffffffffffffffffffffffffff16021790555062003aaa6040518060400160405280600b81526020017f6574685f72696e6b65627900000000000000000000000000000000000000000081525062003d18565b6001905062003d15565b600062003ad573a2998efd205fb9d4b4963afb70778d6354ad3a4162003658565b111562003b7b5773a2998efd205fb9d4b4963afb70778d6354ad3a41600160006101000a81548173ffffffffffffffffffffffffffffffffffffffff021916908373ffffffffffffffffffffffffffffffffffffffff16021790555062003b716040518060400160405280600a81526020017f6574685f676f65726c690000000000000000000000000000000000000000000081525062003d18565b6001905062003d15565b600062003b9c736f485c8bf6fc43ea212e93bbf8ce046c7f1cb47562003658565b111562003c0257736f485c8bf6fc43ea212e93bbf8ce046c7f1cb475600160006101000a81548173ffffffffffffffffffffffffffffffffffffffff021916908373ffffffffffffffffffffffffffffffffffffffff1602179055506001905062003d15565b600062003c237320e12a1f859b3feae5fb2a0a32c18f5a65555bbf62003658565b111562003c89577320e12a1f859b3feae5fb2a0a32c18f5a65555bbf600160006101000a81548173ffffffffffffffffffffffffffffffffffffffff021916908373ffffffffffffffffffffffffffffffffffffffff1602179055506001905062003d15565b600062003caa7351efaf4c8b3c9afbd5ab9f4bbc82784ab6ef8faa62003658565b111562003d10577351efaf4c8b3c9afbd5ab9f4bbc82784ab6ef8faa600160006101000a81548173ffffffffffffffffffffffffffffffffffffffff021916908373ffffffffffffffffffffffffffffffffffffffff1602179055506001905062003d15565b600090505b90565b806002908051906020019062003d3092919062003d34565b5050565b828054600181600116156101000203166002900490600052602060002090601f016020900481019282601f1062003d7757805160ff191683800117855562003da8565b8280016001018555821562003da8579182015b8281111562003da757825182559160200191906001019062003d8a565b5b50905062003db7919062003e1b565b5090565b82805482825590600052602060002090810192821562003dfa579160200282015b8281111562003df957825182559160200191906001019062003ddc565b5b50905062003e09919062003e1b565b5090565b610e6c8062003e4483390190565b62003e4091905b8082111562003e3c57600081600090555060010162003e22565b5090565b9056fe60806040527ff3ec75cc015a7f458c242e37c292eef96c40cfb670ed8cff3bba27ee3301205b60005560026001556040518060e0016040528060bc8152602001610d7f60bc91396004908051906020019061005b92919061009d565b50604051806060016040528060318152602001610e3b603191396005908051906020019061008a92919061009d565b5034801561009757600080fd5b50610142565b828054600181600116156101000203166002900490600052602060002090601f016020900481019282601f106100de57805160ff191683800117855561010c565b8280016001018555821561010c579182015b8281111561010b5782518255916020019190600101906100f0565b5b509050610119919061011d565b5090565b61013f91905b8082111561013b576000816000905550600101610123565b5090565b90565b610c2e806101516000396000f3fe608060405234801561001057600080fd5b50600436106100a95760003560e01c806352fef9bb1161007157806352fef9bb146101c95780635fca164b146102175780636fecb6231461029a5780638482e01c146102b85780638b8fbd921461038b578063a34f8c9d146103a9576100a9565b806307da68f5146100ae57806309cdcf9b146100b85780632e7e3643146100e657806332e7c5bf146101285780633f74a95e14610146575b600080fd5b6100b66103f5565b005b6100e4600480360360208110156100ce57600080fd5b810190808035906020019092919050505061040e565b005b610112600480360360208110156100fc57600080fd5b8101908080359060200190929190505050610459565b6040518082815260200191505060405180910390f35b61013061057e565b6040518082815260200191505060405180910390f35b61014e610584565b6040518080602001828103825283818151815260200191508051906020019080838360005b8381101561018e578082015181840152602081019050610173565b50505050905090810190601f1680156101bb5780820380516001836020036101000a031916815260200191505b509250505060405180910390f35b610215600480360360408110156101df57600080fd5b81019080803573ffffffffffffffffffffffffffffffffffffffff16906020019092919080359060200190929190505050610622565b005b61021f610905565b6040518080602001828103825283818151815260200191508051906020019080838360005b8381101561025f578082015181840152602081019050610244565b50505050905090810190601f16801561028c5780820380516001836020036101000a031916815260200191505b509250505060405180910390f35b6102a26109a3565b6040518082815260200191505060405180910390f35b61036e600480360360208110156102ce57600080fd5b81019080803590602001906401000000008111156102eb57600080fd5b8201836020820111156102fd57600080fd5b8035906020019184602083028401116401000000008311171561031f57600080fd5b919080806020026020016040519081016040528093929190818152602001838360200280828437600081840152601f19601f8201169050808301925050505050505091929192905050506109a9565b604051808381526020018281526020019250505060405180910390f35b610393610a3e565b6040518082815260200191505060405180910390f35b6103df600480360360408110156103bf57600080fd5b810190808035906020019092919080359060200190929190505050610a44565b6040518082815260200191505060405180910390f35b3373ffffffffffffffffffffffffffffffffffffffff16ff5b33600360006101000a81548173ffffffffffffffffffffffffffffffffffffffff021916908373ffffffffffffffffffffffffffffffffffffffff1602179055508060028190555050565b60008073ffffffffffffffffffffffffffffffffffffffff16600360009054906101000a900473ffffffffffffffffffffffffffffffffffffffff1673ffffffffffffffffffffffffffffffffffffffff161415610502576040517f08c379a000000000000000000000000000000000000000000000000000000000815260040180806020018281038252602d815260200180610b96602d913960400191505060405180910390fd5b6000600254141561055e576040517f08c379a0000000000000000000000000000000000000000000000000000000008152600401808060200182810382526037815260200180610bc36037913960400191505060405180910390fd5b61057782600054600254610a659092919063ffffffff16565b9050919050565b60025481565b60058054600181600116156101000203166002900480601f01602080910402602001604051908101604052809291908181526020018280546001816001161561010002031660029004801561061a5780601f106105ef5761010080835404028352916020019161061a565b820191906000526020600020905b8154815290600101906020018083116105fd57829003601f168201915b505050505081565b600073ffffffffffffffffffffffffffffffffffffffff168273ffffffffffffffffffffffffffffffffffffffff1614156106a8576040517f08c379a000000000000000000000000000000000000000000000000000000000815260040180806020018281038252602d815260200180610b96602d913960400191505060405180910390fd5b8173ffffffffffffffffffffffffffffffffffffffff16638b8fbd926040518163ffffffff1660e01b815260040160206040518083038186803b1580156106ee57600080fd5b505afa158015610702573d6000803e3d6000fd5b505050506040513d602081101561071857600080fd5b81019080805190602001909291905050506000541461079f576040517f08c379a00000000000000000000000000000000000000000000000000000000081526004018080602001828103825260138152602001807f5072696d6520697320646966666572656e742e0000000000000000000000000081525060200191505060405180910390fd5b8173ffffffffffffffffffffffffffffffffffffffff16636fecb6236040518163ffffffff1660e01b815260040160206040518083038186803b1580156107e557600080fd5b505afa1580156107f9573d6000803e3d6000fd5b505050506040513d602081101561080f57600080fd5b810190808051906020019092919050505060015414610896576040517f08c379a00000000000000000000000000000000000000000000000000000000081526004018080602001828103825260128152602001807f526f6f7420697320646966666572656e742e000000000000000000000000000081525060200191505060405180910390fd5b8173ffffffffffffffffffffffffffffffffffffffff166309cdcf9b826040518263ffffffff1660e01b815260040180828152602001915050600060405180830381600087803b1580156108e957600080fd5b505af11580156108fd573d6000803e3d6000fd5b505050505050565b60048054600181600116156101000203166002900480601f01602080910402602001604051908101604052809291908181526020018280546001816001161561010002031660029004801561099b5780601f106109705761010080835404028352916020019161099b565b820191906000526020600020905b81548152906001019060200180831161097e57829003601f168201915b505050505081565b60015481565b6000806000805414156109b857fe5b600060015414156109c557fe5b8260405160200180828051906020019060200280838360005b838110156109f95780820151818401526020810190506109de565b505050509050019150506040516020818303038152906040528051906020012060001c9150610a3782600054600154610a659092919063ffffffff16565b9050915091565b60005481565b6000610a5d8360005484610a659092919063ffffffff16565b905092915050565b600080610a70610b51565b610a78610b73565b602081600060068110610a8757fe5b602002018181525050602081600160068110610a9f57fe5b602002018181525050602081600260068110610ab757fe5b6020020181815250508681600360068110610ace57fe5b6020020181815250508581600460068110610ae557fe5b6020020181815250508481600560068110610afc57fe5b60200201818152505060208260c08360056107d05a03fa92508260008114610b2357610b28565b600080fd5b5082610b3357600080fd5b81600060018110610b4057fe5b602002015193505050509392505050565b6040518060200160405280600190602082028038833980820191505090505090565b6040518060c0016040528060069060208202803883398082019150509050509056fe4f7468657220536d61727444696666696548656c6c6d616e20636f6e747261637420756e61737369676e65642e4220686173206e6f74206265656e207472616e736d6974746564206279206f7468657220536d61727444696666696548656c6c6d616e2ea265627a7a7231582037cf3961392957f6c5575a862b04f304362eebecd84aef867aabdd19065c0d5d64736f6c634300051000326c65742072616e646f6d203d205b2e2e2e4172726179283332295d2e6d6170282829203d3e207061727365496e74284d6174682e72616e646f6d2829202a2032353529293b206c65742067656e4161203d206177616974206468496e7374312e67656e6572617465412e63616c6c2872616e646f6d293b206177616974206468496e7374312e7472616e736d697441286468496e7374322e616464726573732c2067656e41615b225f41225d293b2072657475726e2067656e41613b72657475726e206177616974206468496e73742e67656e657261746541422e63616c6c2867656e41615b225f61225d293b4f6e6c7920746865206f776e65722063616e2073746172742074686520636f6d6d697420706861736552616e646f6d206e756d6265722066726f6d2070726f7661626c65206d7573742065786973744f6e6c7920746865206f776e65722063616e2067657420612072616e646f6d206e756d6265722066726f6d2070726f7661626c65536565642066726f6d206f776e657220646f6573206e6f74206d617463682074686520636f6d6d697468747470733a2f2f7777772e72616e646f6d2e6f72672f696e7465676572732f3f6e756d3d31266d696e3d31266d61783d3130303030303030303026636f6c3d3126626173653d313026666f726d61743d706c61696e26726e643d6e657750726f7661626c65207175657279207761732073656e742c207374616e64696e6720627920666f722074686520616e737765722e2e2e5468657265206d757374206265206174206c656173742074776f20766f74696e67206f7074696f6e734f6e6c7920746865206f776e65722063616e207374617274207468652072657665616c207068617365a265627a7a72315820aa6fe0ec257bdecc9432861d0c5f688823a8ee201dd8b49eff3a05c0f390870d64736f6c63430005100032",
  "source": "pragma solidity >=0.5.0 <0.7.0;\n\nimport \"./provableAPI.sol\";\nimport \"./SmartDiffieHellman.sol\";\n\ncontract ShuffleAndRoundRobin is usingProvable {\n\n    // provableAPI\n    uint public provableRandomNumber;\n\n    // 0. Contract state\n    enum State { Init, Register, Commit, Reveal, Vote }\n    State public state = State.Init;\n\n    // 1. Register all accounts\n    address[] public registered;\n    mapping(address => bool) public isRegistered; // only allow registration once\n\n    // 2. Commit Reveal\n    mapping(address => bytes32) public commits;\n    mapping(address => string) public reveals;\n\n    // seed from owner\n    bytes32 public seedCommit;\n    string public seedReveal;\n\n    // 3. distribute accounts in round robin\n    mapping(address => uint256) public groups;\n    uint256 public numberOfGroups;\n\n    // 4. shuffle the accounts\n    address[] public shuffled;\n    mapping(address => bool) isShuffled;\n\n    // only the contract owner can start distribution and selfdestruct the contract\n    address payable owner = msg.sender;\n\n    // voting\n    uint256[] public votingOptions;\n    mapping(address => mapping(address => string)) votes;\n\n    // debugging events\n    event randomNr(uint256 indexed _rand, bool indexed _accepted);\n    event distributed(address indexed _address, uint256 indexed _group);\n    event LogNewRandomNumber(string randomNumber);\n    event LogNewProvableQuery(string description);\n\n    constructor() public {\n        OAR = OracleAddrResolverI(0x864b12a155Db678F6033A963bC2e1c35B8cEbFda);\n    }\n\n    function __callback(bytes32 myid, string memory result) public\n    {\n        require(msg.sender == provable_cbAddress());\n        emit LogNewRandomNumber(result);\n        provableRandomNumber = parseInt(result);\n    }\n\n    function getProvableRandomNumber() public payable\n    {\n        require(msg.sender == owner, 'Only the owner can get a random number from provable');\n        emit LogNewProvableQuery(\"Provable query was sent, standing by for the answer...\");\n        provable_query(\"URL\", \"https://www.random.org/integers/?num=1&min=1&max=1000000000&col=1&base=10&format=plain&rnd=new\");\n    }\n\n    // set voting options\n    function setVotingOptions(uint256[] memory _votingOptions) public {\n        require(msg.sender == owner, 'Sender must be owner');\n        require(_votingOptions.length > 1, 'There must be at least two voting options');\n        require(state == State.Init, 'State must be Init');\n\n        state = State.Register;\n\n        votingOptions = _votingOptions;\n    }\n\n    // ======= 1. =======\n    function register() public {\n        require(state == State.Register, 'Not in state Register');\n        require(!isRegistered[msg.sender], 'Already registered');\n\n        isRegistered[msg.sender] = true;\n        registered.push(msg.sender);\n    }\n\n    // ======= 2.1 =======\n    function startCommitPhase(bytes32 _seedCommit) public {\n        require(state == State.Register, 'Must be in registration phase');\n        require(msg.sender == owner, 'Only the owner can start the commit phase');\n        require(_seedCommit.length > 0, 'The seed is not good enough');\n\n        state = State.Commit;\n\n        seedCommit = _seedCommit;\n    }\n\n    // ======= 2.2 =======\n    function startRevealPhase(string memory _seedReveal) public {\n        require(state == State.Commit, 'Must be in commit phase');\n        require(msg.sender == owner, 'Only the owner can start the reveal phase');\n\n        state = State.Reveal;\n\n        bytes32 hash = keccak256(bytes(_seedReveal));\n\n        require(hash == seedCommit, 'Seed from owner does not match the commit');\n\n        seedReveal = _seedReveal;\n    }\n\n    // ======= 2.3 =======\n    function commit(bytes32 _hash) public {\n        require(isRegistered[msg.sender], 'Voter not registered');\n        require(state == State.Commit, 'Must be in commit phase');\n\n        commits[msg.sender] = _hash;\n    }\n\n    // ======= 2.4 =======\n    function reveal(string memory _secret) public {\n        require(isRegistered[msg.sender], 'Voter not registered');\n        require(state == State.Reveal, 'Must be in reveal phase');\n\n        bytes32 hash = keccak256(bytes(_secret));\n\n        require(hash == commits[msg.sender], 'reveal does not match commit');\n\n        reveals[msg.sender] = _secret;\n    }\n\n    // ======= 3. =======\n    function distribute(uint256 _groups) public {\n        require(msg.sender == owner);\n        require(provableRandomNumber > 0, 'Random number from provable must exist');\n        require(state == State.Reveal, 'Must be in reveal phase');\n        require(_groups > 1, 'There must be more than 1 group');\n        require(bytes(seedReveal).length > 0, 'No seed from owner found');\n        require(registered.length > 0, 'There are no registered voters');\n\n        shuffle(uint256(keccak256(abi.encodePacked(seedReveal))));\n        roundRobin(_groups);\n\n        state = State.Vote;\n\n        for(uint256 i = 0; i < registered.length; i++) {\n            address addr = registered[i];\n            uint256 group = groups[addr];\n\n            emit distributed(addr, group);\n        }\n    }\n\n    // ======= 4. =======\n    function shuffle(uint256 _seed) private {\n        require(msg.sender == owner);\n\n        // prevBlockHash\n        uint256 prevBlockHash = uint256(blockhash(block.number - 1));\n\n        uint256 allReveals;\n        // reveals\n        for(uint256 i = 0; i < registered.length; i++) {\n            allReveals += uint256(keccak256(abi.encodePacked(reveals[msg.sender])));\n        }\n\n        uint256 prevRand = 1;\n\n        for(uint256 i = 0; i < registered.length; i++) {\n            uint256 rand;\n            uint256 randPosition;\n\n            // search for a registered address which has not been shuffled\n            do {\n                // values from Java's java.util.Random, POSIX [ln]rand48, glibc [ln]rand48[_r],\n                // see https://en.wikipedia.org/wiki/Linear_congruential_generator#Parameters_in_common_use\n                rand = (prevRand * 25214903917 + 11) % (2 ** 48);\n                prevRand = rand;\n\n                // last block hash\n                randPosition = rand + prevBlockHash;\n                // seed from owner\n                randPosition += _seed;\n                // reveals from voters\n                randPosition += allReveals;\n                // timestamp of current block\n                randPosition += now;\n                // random number from provable\n                randPosition += provableRandomNumber;\n\n                // find a position in the mapping\n                randPosition = randPosition % registered.length;\n\n                emit randomNr(randPosition, !isShuffled[registered[randPosition]]);\n            } while(isShuffled[registered[randPosition]]);\n\n            isShuffled[registered[randPosition]] = true;\n\n            shuffled.push(registered[randPosition]);\n        }\n    }\n\n    function roundRobin(uint256 _groups) private {\n        require(msg.sender == owner);\n\n        for(uint256 i = 0; i < shuffled.length; i++) {\n            groups[registered[i]] = i % _groups;\n        }\n\n        numberOfGroups = _groups;\n        state = State.Vote;\n    }\n\n    // ========== smartDHX ===========\n    mapping(bytes32 => SmartDiffieHellman) public smartDHXs;\n\n    function getEdgeKey(address _first, address _second) public pure returns (bytes32 _edgeKey) {\n        return keccak256(abi.encodePacked(_first, _second));\n    }\n\n    function deploySmartDHX(address _first, address _second) public {\n        require(msg.sender == owner);\n        require(state == State.Vote);\n\n        SmartDiffieHellman firstSmartDHX = new SmartDiffieHellman();\n        SmartDiffieHellman secondSmartDHX = new SmartDiffieHellman();\n\n        bytes32 firstEdgeKey = getEdgeKey(_first, _second);\n        bytes32 secondEdgeKey = getEdgeKey(_second, _first);\n\n        smartDHXs[firstEdgeKey] = firstSmartDHX;\n        smartDHXs[secondEdgeKey] = secondSmartDHX;\n    }\n\n    function sendVote(string memory _vote, address _to) public {\n        require(state == State.Vote, 'Not in voting state');\n        //require(!votes[msg.sender][_to], 'Vote was already shared');\n        votes[msg.sender][_to] = _vote;\n    }\n\n    function stop() public {\n        require(msg.sender == owner);\n        selfdestruct(msg.sender);\n    }\n}",
  "sourcePath": "/Users/florens/Documents/Master/Master Thesis/grouping/contracts/ShuffleAndRoundRobin.sol",
  "compiler": {
    "name": "solc",
    "version": "0.5.16+commit.9c3226ce.Emscripten.clang"
  },
  "schemaVersion": "3.0.23",
  "updatedAt": "2020-06-07T16:20:26.108Z",
  "networkType": "ethereum",
  "devdoc": {
    "methods": {}
  },
  "userdoc": {
    "methods": {}
  }
}