{
  "contractName": "SmartDiffieHellman",
  "abi": [
    {
      "constant": true,
      "inputs": [],
      "name": "B",
      "outputs": [
        {
          "name": "",
          "type": "uint256"
        }
      ],
      "payable": false,
      "stateMutability": "view",
      "type": "function"
    },
    {
      "constant": true,
      "inputs": [],
      "name": "jsCalcSecret",
      "outputs": [
        {
          "name": "",
          "type": "string"
        }
      ],
      "payable": false,
      "stateMutability": "view",
      "type": "function"
    },
    {
      "constant": true,
      "inputs": [],
      "name": "jsInitTransmit",
      "outputs": [
        {
          "name": "",
          "type": "string"
        }
      ],
      "payable": false,
      "stateMutability": "view",
      "type": "function"
    },
    {
      "constant": true,
      "inputs": [],
      "name": "G",
      "outputs": [
        {
          "name": "",
          "type": "uint256"
        }
      ],
      "payable": false,
      "stateMutability": "view",
      "type": "function"
    },
    {
      "constant": true,
      "inputs": [],
      "name": "P",
      "outputs": [
        {
          "name": "",
          "type": "uint256"
        }
      ],
      "payable": false,
      "stateMutability": "view",
      "type": "function"
    },
    {
      "constant": true,
      "inputs": [
        {
          "name": "_seed",
          "type": "uint256[]"
        }
      ],
      "name": "generateA",
      "outputs": [
        {
          "name": "_a",
          "type": "uint256"
        },
        {
          "name": "_A",
          "type": "uint256"
        }
      ],
      "payable": false,
      "stateMutability": "view",
      "type": "function"
    },
    {
      "constant": false,
      "inputs": [
        {
          "name": "_other",
          "type": "address"
        },
        {
          "name": "_A",
          "type": "uint256"
        }
      ],
      "name": "transmitA",
      "outputs": [],
      "payable": false,
      "stateMutability": "nonpayable",
      "type": "function"
    },
    {
      "constant": true,
      "inputs": [
        {
          "name": "_a",
          "type": "uint256"
        },
        {
          "name": "_B",
          "type": "uint256"
        }
      ],
      "name": "generateAExtB",
      "outputs": [
        {
          "name": "_AB",
          "type": "uint256"
        }
      ],
      "payable": false,
      "stateMutability": "view",
      "type": "function"
    },
    {
      "constant": true,
      "inputs": [
        {
          "name": "_a",
          "type": "uint256"
        }
      ],
      "name": "generateAB",
      "outputs": [
        {
          "name": "_AB",
          "type": "uint256"
        }
      ],
      "payable": false,
      "stateMutability": "view",
      "type": "function"
    },
    {
      "constant": false,
      "inputs": [
        {
          "name": "_B",
          "type": "uint256"
        }
      ],
      "name": "setB",
      "outputs": [],
      "payable": false,
      "stateMutability": "nonpayable",
      "type": "function"
    },
    {
      "constant": false,
      "inputs": [],
      "name": "stop",
      "outputs": [],
      "payable": false,
      "stateMutability": "nonpayable",
      "type": "function"
    }
  ],
  "bytecode": "0x60806040527ff3ec75cc015a7f458c242e37c292eef96c40cfb670ed8cff3bba27ee3301205b600055600260015560e06040519081016040528060bc8152602001610f2a60bc91396004908051906020019061005c9291906100e2565b50606060405190810160405280603181526020017f72657475726e206177616974206468496e73742e67656e657261746541422e6381526020017f616c6c2867656e41615b225f61225d293b000000000000000000000000000000815250600590805190602001906100cf9291906100e2565b503480156100dc57600080fd5b50610187565b828054600181600116156101000203166002900490600052602060002090601f016020900481019282601f1061012357805160ff1916838001178555610151565b82800160010185558215610151579182015b82811115610150578251825591602001919060010190610135565b5b50905061015e9190610162565b5090565b61018491905b80821115610180576000816000905550600101610168565b5090565b90565b610d94806101966000396000f3fe6080604052600436106100af576000357c0100000000000000000000000000000000000000000000000000000000900463ffffffff16806307da68f5146100b457806309cdcf9b146100cb5780632e7e36431461010657806332e7c5bf146101555780633f74a95e1461018057806352fef9bb146102105780635fca164b1461026b5780636fecb623146102fb5780638482e01c146103265780638b8fbd9214610406578063a34f8c9d14610431575b600080fd5b3480156100c057600080fd5b506100c961048a565b005b3480156100d757600080fd5b50610104600480360360208110156100ee57600080fd5b81019080803590602001909291905050506104a3565b005b34801561011257600080fd5b5061013f6004803603602081101561012957600080fd5b81019080803590602001909291905050506104ee565b6040518082815260200191505060405180910390f35b34801561016157600080fd5b5061016a61069d565b6040518082815260200191505060405180910390f35b34801561018c57600080fd5b506101956106a3565b6040518080602001828103825283818151815260200191508051906020019080838360005b838110156101d55780820151818401526020810190506101ba565b50505050905090810190601f1680156102025780820380516001836020036101000a031916815260200191505b509250505060405180910390f35b34801561021c57600080fd5b506102696004803603604081101561023357600080fd5b81019080803573ffffffffffffffffffffffffffffffffffffffff16906020019092919080359060200190929190505050610741565b005b34801561027757600080fd5b50610280610ac1565b6040518080602001828103825283818151815260200191508051906020019080838360005b838110156102c05780820151818401526020810190506102a5565b50505050905090810190601f1680156102ed5780820380516001836020036101000a031916815260200191505b509250505060405180910390f35b34801561030757600080fd5b50610310610b5f565b6040518082815260200191505060405180910390f35b34801561033257600080fd5b506103e96004803603602081101561034957600080fd5b810190808035906020019064010000000081111561036657600080fd5b82018360208201111561037857600080fd5b8035906020019184602083028401116401000000008311171561039a57600080fd5b919080806020026020016040519081016040528093929190818152602001838360200280828437600081840152601f19601f820116905080830192505050505050509192919290505050610b65565b604051808381526020018281526020019250505060405180910390f35b34801561041257600080fd5b5061041b610bff565b6040518082815260200191505060405180910390f35b34801561043d57600080fd5b506104746004803603604081101561045457600080fd5b810190808035906020019092919080359060200190929190505050610c05565b6040518082815260200191505060405180910390f35b3373ffffffffffffffffffffffffffffffffffffffff16ff5b33600360006101000a81548173ffffffffffffffffffffffffffffffffffffffff021916908373ffffffffffffffffffffffffffffffffffffffff1602179055508060028190555050565b60008073ffffffffffffffffffffffffffffffffffffffff16600360009054906101000a900473ffffffffffffffffffffffffffffffffffffffff1673ffffffffffffffffffffffffffffffffffffffff16141515156105dc576040517f08c379a000000000000000000000000000000000000000000000000000000000815260040180806020018281038252602d8152602001807f4f7468657220536d61727444696666696548656c6c6d616e20636f6e7472616381526020017f7420756e61737369676e65642e0000000000000000000000000000000000000081525060400191505060405180910390fd5b60006002541415151561067d576040517f08c379a00000000000000000000000000000000000000000000000000000000081526004018080602001828103825260378152602001807f4220686173206e6f74206265656e207472616e736d6974746564206279206f7481526020017f68657220536d61727444696666696548656c6c6d616e2e00000000000000000081525060400191505060405180910390fd5b61069682600054600254610c269092919063ffffffff16565b9050919050565b60025481565b60058054600181600116156101000203166002900480601f0160208091040260200160405190810160405280929190818152602001828054600181600116156101000203166002900480156107395780601f1061070e57610100808354040283529160200191610739565b820191906000526020600020905b81548152906001019060200180831161071c57829003601f168201915b505050505081565b600073ffffffffffffffffffffffffffffffffffffffff168273ffffffffffffffffffffffffffffffffffffffff161415151561080c576040517f08c379a000000000000000000000000000000000000000000000000000000000815260040180806020018281038252602d8152602001807f4f7468657220536d61727444696666696548656c6c6d616e20636f6e7472616381526020017f7420756e61737369676e65642e0000000000000000000000000000000000000081525060400191505060405180910390fd5b8173ffffffffffffffffffffffffffffffffffffffff16638b8fbd926040518163ffffffff167c010000000000000000000000000000000000000000000000000000000002815260040160206040518083038186803b15801561086e57600080fd5b505afa158015610882573d6000803e3d6000fd5b505050506040513d602081101561089857600080fd5b8101908080519060200190929190505050600054141515610921576040517f08c379a00000000000000000000000000000000000000000000000000000000081526004018080602001828103825260138152602001807f5072696d6520697320646966666572656e742e0000000000000000000000000081525060200191505060405180910390fd5b8173ffffffffffffffffffffffffffffffffffffffff16636fecb6236040518163ffffffff167c010000000000000000000000000000000000000000000000000000000002815260040160206040518083038186803b15801561098357600080fd5b505afa158015610997573d6000803e3d6000fd5b505050506040513d60208110156109ad57600080fd5b8101908080519060200190929190505050600154141515610a36576040517f08c379a00000000000000000000000000000000000000000000000000000000081526004018080602001828103825260128152602001807f526f6f7420697320646966666572656e742e000000000000000000000000000081525060200191505060405180910390fd5b8173ffffffffffffffffffffffffffffffffffffffff166309cdcf9b826040518263ffffffff167c010000000000000000000000000000000000000000000000000000000002815260040180828152602001915050600060405180830381600087803b158015610aa557600080fd5b505af1158015610ab9573d6000803e3d6000fd5b505050505050565b60048054600181600116156101000203166002900480601f016020809104026020016040519081016040528092919081815260200182805460018160011615610100020316600290048015610b575780601f10610b2c57610100808354040283529160200191610b57565b820191906000526020600020905b815481529060010190602001808311610b3a57829003601f168201915b505050505081565b60015481565b6000806000805414151515610b7657fe5b600060015414151515610b8557fe5b8260405160200180828051906020019060200280838360005b83811015610bb9578082015181840152602081019050610b9e565b5050505090500191505060405160208183030381529060405280519060200120600190049150610bf882600054600154610c269092919063ffffffff16565b9050915091565b60005481565b6000610c1e8360005484610c269092919063ffffffff16565b905092915050565b600080610c31610d22565b610c39610d45565b6020816000600681101515610c4a57fe5b6020020181815250506020816001600681101515610c6457fe5b6020020181815250506020816002600681101515610c7e57fe5b60200201818152505086816003600681101515610c9757fe5b60200201818152505085816004600681101515610cb057fe5b60200201818152505084816005600681101515610cc957fe5b60200201818152505060208260c08360056107d05a03fa92508260008114610cf057610cf5565b600080fd5b50821515610d0257600080fd5b816000600181101515610d1157fe5b602002015193505050509392505050565b602060405190810160405280600190602082028038833980820191505090505090565b60c06040519081016040528060069060208202803883398082019150509050509056fea165627a7a72305820cef41fa7a93ebb9f158998de3437ac31acb48e4c707ecb3d2fdaef73bdcb7b8800296c65742072616e646f6d203d205b2e2e2e4172726179283332295d2e6d6170282829203d3e207061727365496e74284d6174682e72616e646f6d2829202a2032353529293b206c65742067656e4161203d206177616974206468496e7374312e67656e6572617465412e63616c6c2872616e646f6d293b206177616974206468496e7374312e7472616e736d697441286468496e7374322e616464726573732c2067656e41615b225f41225d293b2072657475726e2067656e41613b",
  "source": "pragma solidity >=0.5.0 <0.6.0;\n\n// SCIENTIFIC PURPOSE ONLY --- DO NOT USE FOR PRODUCTION\n\n/*\n * Copyright 2019-2020 muth@tu-berlin.de www.dsi.tu-berlin.de\n *\n * MIT License\n * \n * Permission is hereby granted, free of charge, to any person obtaining a copy of this software and associated documentation files (the \"Software\"), to deal in the Software without restriction, including without limitation the rights to use, copy, modify, merge, publish, distribute, sublicense, and/or sell copies of the Software, and to permit persons to whom the Software is furnished to do so, subject to the following conditions:\n * The above copyright notice and this permission notice shall be included in all copies or substantial portions of the Software.\n * THE SOFTWARE IS PROVIDED \"AS IS\", WITHOUT WARRANTY OF ANY KIND, EXPRESS OR IMPLIED, INCLUDING BUT NOT LIMITED TO THE WARRANTIES OF MERCHANTABILITY, FITNESS FOR A PARTICULAR PURPOSE AND NONINFRINGEMENT. IN NO EVENT SHALL THE AUTHORS OR COPYRIGHT HOLDERS BE LIABLE FOR ANY CLAIM, DAMAGES OR OTHER LIABILITY, WHETHER IN AN ACTION OF CONTRACT, TORT OR OTHERWISE, ARISING FROM, OUT OF OR IN CONNECTION WITH THE SOFTWARE OR THE USE OR OTHER DEALINGS IN THE SOFTWARE.\n *\n */\n\nimport \"./BigMod.sol\";\n\ncontract SmartDiffieHellman {\n\tusing BigMod for uint256;\n\n\tuint256 public P = 0xF3EC75CC015A7F458C242E37C292EEF96C40CFB670ED8CFF3BBA27EE3301205B; // openssl dhparam 256 | openssl asn1parse\n\tuint256 public G = 2;\n\n\tuint256 public B;\n\n\taddress other;\n\n\tstring public jsInitTransmit = \"let random = [...Array(32)].map(() => parseInt(Math.random() * 255)); let genAa = await dhInst1.generateA.call(random); await dhInst1.transmitA(dhInst2.address, genAa[\\\"_A\\\"]); return genAa;\";\n\tstring public jsCalcSecret = \"return await dhInst.generateAB.call(genAa[\\\"_a\\\"]);\";\n\n\tfunction generateA(uint256[] memory _seed) public view returns (uint256 _a, uint256 _A) {\n\t\tassert(P != 0);\n\t\tassert(G != 0);\n\n\t\t_a = uint256(keccak256(abi.encodePacked(_seed)));\n\t\t_A = G.bigMod(_a, P);\n\t}\n\n\tfunction transmitA(SmartDiffieHellman _other, uint256 _A) public {\n\t\trequire(address(_other) != address(0), \"Other SmartDiffieHellman contract unassigned.\");\n\t\trequire(P == _other.P(), \"Prime is different.\");\n\t\trequire(G == _other.G(), \"Root is different.\");\n\n\t\t_other.setB(_A);\n\t}\n\n\n\tfunction generateAExtB(uint256 _a, uint256 _B) public view returns (uint256 _AB) {\n\t\t_AB = _B.bigMod(_a, P);\n\t}\n\n\tfunction generateAB(uint256 _a) public view returns (uint256 _AB) {\n\t\trequire(address(other) != address(0), \"Other SmartDiffieHellman contract unassigned.\");\n\t\trequire(B != 0, \"B has not been transmitted by other SmartDiffieHellman.\");\n\n\t\t_AB = B.bigMod(_a, P);\n\t}\n\n\tfunction setB(uint256 _B) public {\n\t\tother = msg.sender;\n\t\tB = _B;\n\t}\n\n\tfunction stop() public {\n\t\tselfdestruct(msg.sender);\n\t}\n}",
  "sourcePath": "/Users/florens/Documents/Master/Master Thesis/grouping/contracts/SmartDiffieHellman.sol",
  "compiler": {
    "name": "solc",
    "version": "0.5.0+commit.1d4f565a.Emscripten.clang"
  },
  "schemaVersion": "3.0.9",
  "updatedAt": "2020-06-08T11:51:23.064Z",
  "devdoc": {
    "methods": {}
  },
  "userdoc": {
    "methods": {}
  }
}